{
	"Twitter.sol": {
		"Twitter": {
			"abi": [
				{
					"inputs": [],
					"stateMutability": "nonpayable",
					"type": "constructor"
				},
				{
					"inputs": [],
					"name": "MAX_TWEET_LENGTH",
					"outputs": [
						{
							"internalType": "uint16",
							"name": "",
							"type": "uint16"
						}
					],
					"stateMutability": "view",
					"type": "function"
				},
				{
					"inputs": [
						{
							"internalType": "uint16",
							"name": "newTweetLength",
							"type": "uint16"
						}
					],
					"name": "changeTweetLength",
					"outputs": [],
					"stateMutability": "nonpayable",
					"type": "function"
				},
				{
					"inputs": [
						{
							"internalType": "string",
							"name": "_tweet",
							"type": "string"
						}
					],
					"name": "createTweet",
					"outputs": [],
					"stateMutability": "nonpayable",
					"type": "function"
				},
				{
					"inputs": [
						{
							"internalType": "address",
							"name": "_owner",
							"type": "address"
						}
					],
					"name": "getAllTweet",
					"outputs": [
						{
							"components": [
								{
									"internalType": "uint256",
									"name": "id",
									"type": "uint256"
								},
								{
									"internalType": "address",
									"name": "author",
									"type": "address"
								},
								{
									"internalType": "string",
									"name": "content",
									"type": "string"
								},
								{
									"internalType": "uint256",
									"name": "timestamp",
									"type": "uint256"
								},
								{
									"internalType": "uint256",
									"name": "likes",
									"type": "uint256"
								}
							],
							"internalType": "struct Twitter.Tweet[]",
							"name": "",
							"type": "tuple[]"
						}
					],
					"stateMutability": "view",
					"type": "function"
				},
				{
					"inputs": [
						{
							"internalType": "uint256",
							"name": "_i",
							"type": "uint256"
						}
					],
					"name": "getTweet",
					"outputs": [
						{
							"components": [
								{
									"internalType": "uint256",
									"name": "id",
									"type": "uint256"
								},
								{
									"internalType": "address",
									"name": "author",
									"type": "address"
								},
								{
									"internalType": "string",
									"name": "content",
									"type": "string"
								},
								{
									"internalType": "uint256",
									"name": "timestamp",
									"type": "uint256"
								},
								{
									"internalType": "uint256",
									"name": "likes",
									"type": "uint256"
								}
							],
							"internalType": "struct Twitter.Tweet",
							"name": "",
							"type": "tuple"
						}
					],
					"stateMutability": "view",
					"type": "function"
				},
				{
					"inputs": [
						{
							"internalType": "uint256",
							"name": "id",
							"type": "uint256"
						},
						{
							"internalType": "address",
							"name": "author",
							"type": "address"
						}
					],
					"name": "likeTweet",
					"outputs": [],
					"stateMutability": "nonpayable",
					"type": "function"
				},
				{
					"inputs": [],
					"name": "owner",
					"outputs": [
						{
							"internalType": "address",
							"name": "",
							"type": "address"
						}
					],
					"stateMutability": "view",
					"type": "function"
				},
				{
					"inputs": [
						{
							"internalType": "address",
							"name": "",
							"type": "address"
						},
						{
							"internalType": "uint256",
							"name": "",
							"type": "uint256"
						}
					],
					"name": "tweets",
					"outputs": [
						{
							"internalType": "uint256",
							"name": "id",
							"type": "uint256"
						},
						{
							"internalType": "address",
							"name": "author",
							"type": "address"
						},
						{
							"internalType": "string",
							"name": "content",
							"type": "string"
						},
						{
							"internalType": "uint256",
							"name": "timestamp",
							"type": "uint256"
						},
						{
							"internalType": "uint256",
							"name": "likes",
							"type": "uint256"
						}
					],
					"stateMutability": "view",
					"type": "function"
				},
				{
					"inputs": [
						{
							"internalType": "uint256",
							"name": "id",
							"type": "uint256"
						},
						{
							"internalType": "address",
							"name": "author",
							"type": "address"
						}
					],
					"name": "unlikeTweet",
					"outputs": [],
					"stateMutability": "nonpayable",
					"type": "function"
				}
			],
			"devdoc": {
				"kind": "dev",
				"methods": {},
				"version": 1
			},
			"evm": {
				"assembly": "    /* \"Twitter.sol\":62:1778  contract Twitter {... */\n  mstore(0x40, 0x80)\n    /* \"Twitter.sol\":121:124  280 */\n  0x0118\n    /* \"Twitter.sol\":88:124  uint16 public MAX_TWEET_LENGTH = 280 */\n  0x00\n  dup1\n  0x0100\n  exp\n  dup2\n  sload\n  dup2\n  0xffff\n  mul\n  not\n  and\n  swap1\n  dup4\n  0xffff\n  and\n  mul\n  or\n  swap1\n  sstore\n  pop\n    /* \"Twitter.sol\":380:434  constructor() {... */\n  callvalue\n  dup1\n  iszero\n  tag_1\n  jumpi\n  0x00\n  dup1\n  revert\ntag_1:\n  pop\n    /* \"Twitter.sol\":413:423  msg.sender */\n  caller\n    /* \"Twitter.sol\":405:410  owner */\n  0x02\n  0x00\n    /* \"Twitter.sol\":405:423  owner = msg.sender */\n  0x0100\n  exp\n  dup2\n  sload\n  dup2\n  0xffffffffffffffffffffffffffffffffffffffff\n  mul\n  not\n  and\n  swap1\n  dup4\n  0xffffffffffffffffffffffffffffffffffffffff\n  and\n  mul\n  or\n  swap1\n  sstore\n  pop\n    /* \"Twitter.sol\":62:1778  contract Twitter {... */\n  dataSize(sub_0)\n  dup1\n  dataOffset(sub_0)\n  0x00\n  codecopy\n  0x00\n  return\nstop\n\nsub_0: assembly {\n        /* \"Twitter.sol\":62:1778  contract Twitter {... */\n      mstore(0x40, 0x80)\n      callvalue\n      dup1\n      iszero\n      tag_1\n      jumpi\n      0x00\n      dup1\n      revert\n    tag_1:\n      pop\n      jumpi(tag_2, lt(calldatasize, 0x04))\n      shr(0xe0, calldataload(0x00))\n      dup1\n      0x8da5cb5b\n      gt\n      tag_12\n      jumpi\n      dup1\n      0x8da5cb5b\n      eq\n      tag_7\n      jumpi\n      dup1\n      0xa1488f7c\n      eq\n      tag_8\n      jumpi\n      dup1\n      0xb64988b8\n      eq\n      tag_9\n      jumpi\n      dup1\n      0xc3ad5ecb\n      eq\n      tag_10\n      jumpi\n      dup1\n      0xd04ddaa0\n      eq\n      tag_11\n      jumpi\n      jump(tag_2)\n    tag_12:\n      dup1\n      0x05a1b4a9\n      eq\n      tag_3\n      jumpi\n      dup1\n      0x58bfa4ab\n      eq\n      tag_4\n      jumpi\n      dup1\n      0x6eb10797\n      eq\n      tag_5\n      jumpi\n      dup1\n      0x7c9cd2bc\n      eq\n      tag_6\n      jumpi\n    tag_2:\n      0x00\n      dup1\n      revert\n        /* \"Twitter.sol\":304:346  mapping (address => Tweet[]) public tweets */\n    tag_3:\n      tag_13\n      0x04\n      dup1\n      calldatasize\n      sub\n      dup2\n      add\n      swap1\n      tag_14\n      swap2\n      swap1\n      tag_15\n      jump\t// in\n    tag_14:\n      tag_16\n      jump\t// in\n    tag_13:\n      mload(0x40)\n      tag_17\n      swap6\n      swap5\n      swap4\n      swap3\n      swap2\n      swap1\n      tag_18\n      jump\t// in\n    tag_17:\n      mload(0x40)\n      dup1\n      swap2\n      sub\n      swap1\n      return\n        /* \"Twitter.sol\":555:665  function changeTweetLength(uint16 newTweetLength) public onlyOwner{... */\n    tag_4:\n      tag_19\n      0x04\n      dup1\n      calldatasize\n      sub\n      dup2\n      add\n      swap1\n      tag_20\n      swap2\n      swap1\n      tag_21\n      jump\t// in\n    tag_20:\n      tag_22\n      jump\t// in\n    tag_19:\n      stop\n        /* \"Twitter.sol\":88:124  uint16 public MAX_TWEET_LENGTH = 280 */\n    tag_5:\n      tag_23\n      tag_24\n      jump\t// in\n    tag_23:\n      mload(0x40)\n      tag_25\n      swap2\n      swap1\n      tag_26\n      jump\t// in\n    tag_25:\n      mload(0x40)\n      dup1\n      swap2\n      sub\n      swap1\n      return\n        /* \"Twitter.sol\":673:1104  function createTweet(string memory _tweet) public{... */\n    tag_6:\n      tag_27\n      0x04\n      dup1\n      calldatasize\n      sub\n      dup2\n      add\n      swap1\n      tag_28\n      swap2\n      swap1\n      tag_29\n      jump\t// in\n    tag_28:\n      tag_30\n      jump\t// in\n    tag_27:\n      stop\n        /* \"Twitter.sol\":353:373  address public owner */\n    tag_7:\n      tag_31\n      tag_32\n      jump\t// in\n    tag_31:\n      mload(0x40)\n      tag_33\n      swap2\n      swap1\n      tag_34\n      jump\t// in\n    tag_33:\n      mload(0x40)\n      dup1\n      swap2\n      sub\n      swap1\n      return\n        /* \"Twitter.sol\":1292:1536  function unlikeTweet(uint256 id, address author) external {... */\n    tag_8:\n      tag_35\n      0x04\n      dup1\n      calldatasize\n      sub\n      dup2\n      add\n      swap1\n      tag_36\n      swap2\n      swap1\n      tag_37\n      jump\t// in\n    tag_36:\n      tag_38\n      jump\t// in\n    tag_35:\n      stop\n        /* \"Twitter.sol\":1663:1775  function getAllTweet(address _owner) public view returns(Tweet[] memory){... */\n    tag_9:\n      tag_39\n      0x04\n      dup1\n      calldatasize\n      sub\n      dup2\n      add\n      swap1\n      tag_40\n      swap2\n      swap1\n      tag_41\n      jump\t// in\n    tag_40:\n      tag_42\n      jump\t// in\n    tag_39:\n      mload(0x40)\n      tag_43\n      swap2\n      swap1\n      tag_44\n      jump\t// in\n    tag_43:\n      mload(0x40)\n      dup1\n      swap2\n      sub\n      swap1\n      return\n        /* \"Twitter.sol\":1544:1655  function getTweet( uint _i) public view returns (Tweet memory) {... */\n    tag_10:\n      tag_45\n      0x04\n      dup1\n      calldatasize\n      sub\n      dup2\n      add\n      swap1\n      tag_46\n      swap2\n      swap1\n      tag_47\n      jump\t// in\n    tag_46:\n      tag_48\n      jump\t// in\n    tag_45:\n      mload(0x40)\n      tag_49\n      swap2\n      swap1\n      tag_50\n      jump\t// in\n    tag_49:\n      mload(0x40)\n      dup1\n      swap2\n      sub\n      swap1\n      return\n        /* \"Twitter.sol\":1112:1284  function likeTweet(uint256 id, address author) external {... */\n    tag_11:\n      tag_51\n      0x04\n      dup1\n      calldatasize\n      sub\n      dup2\n      add\n      swap1\n      tag_52\n      swap2\n      swap1\n      tag_37\n      jump\t// in\n    tag_52:\n      tag_53\n      jump\t// in\n    tag_51:\n      stop\n        /* \"Twitter.sol\":304:346  mapping (address => Tweet[]) public tweets */\n    tag_16:\n      mstore(0x20, 0x01)\n      dup2\n      0x00\n      mstore\n      keccak256(0x00, 0x40)\n      dup2\n      dup2\n      sload\n      dup2\n      lt\n      tag_54\n      jumpi\n      0x00\n      dup1\n      revert\n    tag_54:\n      swap1\n      0x00\n      mstore\n      keccak256(0x00, 0x20)\n      swap1\n      0x05\n      mul\n      add\n      0x00\n      swap2\n      pop\n      swap2\n      pop\n      pop\n      dup1\n      0x00\n      add\n      sload\n      swap1\n      dup1\n      0x01\n      add\n      0x00\n      swap1\n      sload\n      swap1\n      0x0100\n      exp\n      swap1\n      div\n      0xffffffffffffffffffffffffffffffffffffffff\n      and\n      swap1\n      dup1\n      0x02\n      add\n      dup1\n      sload\n      tag_56\n      swap1\n      tag_57\n      jump\t// in\n    tag_56:\n      dup1\n      0x1f\n      add\n      0x20\n      dup1\n      swap2\n      div\n      mul\n      0x20\n      add\n      mload(0x40)\n      swap1\n      dup2\n      add\n      0x40\n      mstore\n      dup1\n      swap3\n      swap2\n      swap1\n      dup2\n      dup2\n      mstore\n      0x20\n      add\n      dup3\n      dup1\n      sload\n      tag_58\n      swap1\n      tag_57\n      jump\t// in\n    tag_58:\n      dup1\n      iszero\n      tag_59\n      jumpi\n      dup1\n      0x1f\n      lt\n      tag_60\n      jumpi\n      0x0100\n      dup1\n      dup4\n      sload\n      div\n      mul\n      dup4\n      mstore\n      swap2\n      0x20\n      add\n      swap2\n      jump(tag_59)\n    tag_60:\n      dup3\n      add\n      swap2\n      swap1\n      0x00\n      mstore\n      keccak256(0x00, 0x20)\n      swap1\n    tag_61:\n      dup2\n      sload\n      dup2\n      mstore\n      swap1\n      0x01\n      add\n      swap1\n      0x20\n      add\n      dup1\n      dup4\n      gt\n      tag_61\n      jumpi\n      dup3\n      swap1\n      sub\n      0x1f\n      and\n      dup3\n      add\n      swap2\n    tag_59:\n      pop\n      pop\n      pop\n      pop\n      pop\n      swap1\n      dup1\n      0x03\n      add\n      sload\n      swap1\n      dup1\n      0x04\n      add\n      sload\n      swap1\n      pop\n      dup6\n      jump\t// out\n        /* \"Twitter.sol\":555:665  function changeTweetLength(uint16 newTweetLength) public onlyOwner{... */\n    tag_22:\n        /* \"Twitter.sol\":496:501  owner */\n      0x02\n      0x00\n      swap1\n      sload\n      swap1\n      0x0100\n      exp\n      swap1\n      div\n      0xffffffffffffffffffffffffffffffffffffffff\n      and\n        /* \"Twitter.sol\":482:501  msg.sender == owner */\n      0xffffffffffffffffffffffffffffffffffffffff\n      and\n        /* \"Twitter.sol\":482:492  msg.sender */\n      caller\n        /* \"Twitter.sol\":482:501  msg.sender == owner */\n      0xffffffffffffffffffffffffffffffffffffffff\n      and\n      eq\n        /* \"Twitter.sol\":474:527  require(msg.sender == owner, \"YOU ARE NOT THE OWNER\") */\n      tag_63\n      jumpi\n      mload(0x40)\n      0x08c379a000000000000000000000000000000000000000000000000000000000\n      dup2\n      mstore\n      0x04\n      add\n      tag_64\n      swap1\n      tag_65\n      jump\t// in\n    tag_64:\n      mload(0x40)\n      dup1\n      swap2\n      sub\n      swap1\n      revert\n    tag_63:\n        /* \"Twitter.sol\":647:661  newTweetLength */\n      dup1\n        /* \"Twitter.sol\":628:644  MAX_TWEET_LENGTH */\n      0x00\n      dup1\n        /* \"Twitter.sol\":628:661  MAX_TWEET_LENGTH = newTweetLength */\n      0x0100\n      exp\n      dup2\n      sload\n      dup2\n      0xffff\n      mul\n      not\n      and\n      swap1\n      dup4\n      0xffff\n      and\n      mul\n      or\n      swap1\n      sstore\n      pop\n        /* \"Twitter.sol\":555:665  function changeTweetLength(uint16 newTweetLength) public onlyOwner{... */\n      pop\n      jump\t// out\n        /* \"Twitter.sol\":88:124  uint16 public MAX_TWEET_LENGTH = 280 */\n    tag_24:\n      0x00\n      dup1\n      sload\n      swap1\n      0x0100\n      exp\n      swap1\n      div\n      0xffff\n      and\n      dup2\n      jump\t// out\n        /* \"Twitter.sol\":673:1104  function createTweet(string memory _tweet) public{... */\n    tag_30:\n        /* \"Twitter.sol\":768:784  MAX_TWEET_LENGTH */\n      0x00\n      dup1\n      sload\n      swap1\n      0x0100\n      exp\n      swap1\n      div\n      0xffff\n      and\n        /* \"Twitter.sol\":744:784  bytes(_tweet).length <= MAX_TWEET_LENGTH */\n      0xffff\n      and\n        /* \"Twitter.sol\":750:756  _tweet */\n      dup2\n        /* \"Twitter.sol\":744:764  bytes(_tweet).length */\n      mload\n        /* \"Twitter.sol\":744:784  bytes(_tweet).length <= MAX_TWEET_LENGTH */\n      gt\n      iszero\n        /* \"Twitter.sol\":735:807  require (bytes(_tweet).length <= MAX_TWEET_LENGTH, \"Tweet is too long!\") */\n      tag_68\n      jumpi\n      mload(0x40)\n      0x08c379a000000000000000000000000000000000000000000000000000000000\n      dup2\n      mstore\n      0x04\n      add\n      tag_69\n      swap1\n      tag_70\n      jump\t// in\n    tag_69:\n      mload(0x40)\n      dup1\n      swap2\n      sub\n      swap1\n      revert\n    tag_68:\n        /* \"Twitter.sol\":818:839  Tweet memory newTweet */\n      0x00\n        /* \"Twitter.sol\":842:1052  Tweet({... */\n      mload(0x40)\n      dup1\n      0xa0\n      add\n      0x40\n      mstore\n      dup1\n        /* \"Twitter.sol\":871:877  tweets */\n      0x01\n        /* \"Twitter.sol\":871:889  tweets[msg.sender] */\n      0x00\n        /* \"Twitter.sol\":878:888  msg.sender */\n      caller\n        /* \"Twitter.sol\":871:889  tweets[msg.sender] */\n      0xffffffffffffffffffffffffffffffffffffffff\n      and\n      0xffffffffffffffffffffffffffffffffffffffff\n      and\n      dup2\n      mstore\n      0x20\n      add\n      swap1\n      dup2\n      mstore\n      0x20\n      add\n      0x00\n      keccak256\n        /* \"Twitter.sol\":871:896  tweets[msg.sender].length */\n      dup1\n      sload\n      swap1\n      pop\n        /* \"Twitter.sol\":842:1052  Tweet({... */\n      dup2\n      mstore\n      0x20\n      add\n        /* \"Twitter.sol\":924:934  msg.sender */\n      caller\n        /* \"Twitter.sol\":842:1052  Tweet({... */\n      0xffffffffffffffffffffffffffffffffffffffff\n      and\n      dup2\n      mstore\n      0x20\n      add\n        /* \"Twitter.sol\":962:968  _tweet */\n      dup4\n        /* \"Twitter.sol\":842:1052  Tweet({... */\n      dup2\n      mstore\n      0x20\n      add\n        /* \"Twitter.sol\":998:1013  block.timestamp */\n      timestamp\n        /* \"Twitter.sol\":842:1052  Tweet({... */\n      dup2\n      mstore\n      0x20\n      add\n        /* \"Twitter.sol\":1039:1040  0 */\n      0x00\n        /* \"Twitter.sol\":842:1052  Tweet({... */\n      dup2\n      mstore\n      pop\n        /* \"Twitter.sol\":818:1052  Tweet memory newTweet = Tweet({... */\n      swap1\n      pop\n        /* \"Twitter.sol\":1063:1069  tweets */\n      0x01\n        /* \"Twitter.sol\":1063:1081  tweets[msg.sender] */\n      0x00\n        /* \"Twitter.sol\":1070:1080  msg.sender */\n      caller\n        /* \"Twitter.sol\":1063:1081  tweets[msg.sender] */\n      0xffffffffffffffffffffffffffffffffffffffff\n      and\n      0xffffffffffffffffffffffffffffffffffffffff\n      and\n      dup2\n      mstore\n      0x20\n      add\n      swap1\n      dup2\n      mstore\n      0x20\n      add\n      0x00\n      keccak256\n        /* \"Twitter.sol\":1087:1095  newTweet */\n      dup2\n        /* \"Twitter.sol\":1063:1096  tweets[msg.sender].push(newTweet) */\n      swap1\n      dup1\n      0x01\n      dup2\n      sload\n      add\n      dup1\n      dup3\n      sstore\n      dup1\n      swap2\n      pop\n      pop\n      0x01\n      swap1\n      sub\n      swap1\n      0x00\n      mstore\n      keccak256(0x00, 0x20)\n      swap1\n      0x05\n      mul\n      add\n      0x00\n      swap1\n      swap2\n      swap1\n      swap2\n      swap1\n      swap2\n      pop\n      0x00\n      dup3\n      add\n      mload\n      dup2\n      0x00\n      add\n      sstore\n      0x20\n      dup3\n      add\n      mload\n      dup2\n      0x01\n      add\n      exp(0x0100, 0x00)\n      dup2\n      sload\n      dup2\n      0xffffffffffffffffffffffffffffffffffffffff\n      mul\n      not\n      and\n      swap1\n      dup4\n      0xffffffffffffffffffffffffffffffffffffffff\n      and\n      mul\n      or\n      swap1\n      sstore\n      pop\n      0x40\n      dup3\n      add\n      mload\n      dup2\n      0x02\n      add\n      swap1\n      dup2\n      tag_72\n      swap2\n      swap1\n      tag_73\n      jump\t// in\n    tag_72:\n      pop\n      0x60\n      dup3\n      add\n      mload\n      dup2\n      0x03\n      add\n      sstore\n      0x80\n      dup3\n      add\n      mload\n      dup2\n      0x04\n      add\n      sstore\n      pop\n      pop\n        /* \"Twitter.sol\":722:1104  {... */\n      pop\n        /* \"Twitter.sol\":673:1104  function createTweet(string memory _tweet) public{... */\n      pop\n      jump\t// out\n        /* \"Twitter.sol\":353:373  address public owner */\n    tag_32:\n      0x02\n      0x00\n      swap1\n      sload\n      swap1\n      0x0100\n      exp\n      swap1\n      div\n      0xffffffffffffffffffffffffffffffffffffffff\n      and\n      dup2\n      jump\t// out\n        /* \"Twitter.sol\":1292:1536  function unlikeTweet(uint256 id, address author) external {... */\n    tag_38:\n        /* \"Twitter.sol\":1394:1396  id */\n      dup2\n        /* \"Twitter.sol\":1369:1375  tweets */\n      0x01\n        /* \"Twitter.sol\":1369:1383  tweets[author] */\n      0x00\n        /* \"Twitter.sol\":1376:1382  author */\n      dup4\n        /* \"Twitter.sol\":1369:1383  tweets[author] */\n      0xffffffffffffffffffffffffffffffffffffffff\n      and\n      0xffffffffffffffffffffffffffffffffffffffff\n      and\n      dup2\n      mstore\n      0x20\n      add\n      swap1\n      dup2\n      mstore\n      0x20\n      add\n      0x00\n      keccak256\n        /* \"Twitter.sol\":1384:1386  id */\n      dup4\n        /* \"Twitter.sol\":1369:1387  tweets[author][id] */\n      dup2\n      sload\n      dup2\n      lt\n      tag_75\n      jumpi\n      tag_76\n      tag_77\n      jump\t// in\n    tag_76:\n    tag_75:\n      swap1\n      0x00\n      mstore\n      keccak256(0x00, 0x20)\n      swap1\n      0x05\n      mul\n      add\n        /* \"Twitter.sol\":1369:1390  tweets[author][id].id */\n      0x00\n      add\n      sload\n        /* \"Twitter.sol\":1369:1396  tweets[author][id].id == id */\n      eq\n        /* \"Twitter.sol\":1361:1421  require(tweets[author][id].id == id, \"TWEET DOES NOT EXIST\") */\n      tag_79\n      jumpi\n      mload(0x40)\n      0x08c379a000000000000000000000000000000000000000000000000000000000\n      dup2\n      mstore\n      0x04\n      add\n      tag_80\n      swap1\n      tag_81\n      jump\t// in\n    tag_80:\n      mload(0x40)\n      dup1\n      swap2\n      sub\n      swap1\n      revert\n    tag_79:\n        /* \"Twitter.sol\":1467:1468  0 */\n      0x00\n        /* \"Twitter.sol\":1440:1446  tweets */\n      0x01\n        /* \"Twitter.sol\":1440:1454  tweets[author] */\n      0x00\n        /* \"Twitter.sol\":1447:1453  author */\n      dup4\n        /* \"Twitter.sol\":1440:1454  tweets[author] */\n      0xffffffffffffffffffffffffffffffffffffffff\n      and\n      0xffffffffffffffffffffffffffffffffffffffff\n      and\n      dup2\n      mstore\n      0x20\n      add\n      swap1\n      dup2\n      mstore\n      0x20\n      add\n      0x00\n      keccak256\n        /* \"Twitter.sol\":1455:1457  id */\n      dup4\n        /* \"Twitter.sol\":1440:1458  tweets[author][id] */\n      dup2\n      sload\n      dup2\n      lt\n      tag_82\n      jumpi\n      tag_83\n      tag_77\n      jump\t// in\n    tag_83:\n    tag_82:\n      swap1\n      0x00\n      mstore\n      keccak256(0x00, 0x20)\n      swap1\n      0x05\n      mul\n      add\n        /* \"Twitter.sol\":1440:1464  tweets[author][id].likes */\n      0x04\n      add\n      sload\n        /* \"Twitter.sol\":1440:1468  tweets[author][id].likes > 0 */\n      gt\n        /* \"Twitter.sol\":1432:1491  require(tweets[author][id].likes > 0, \"TWEET HAS NO LIKES\") */\n      tag_85\n      jumpi\n      mload(0x40)\n      0x08c379a000000000000000000000000000000000000000000000000000000000\n      dup2\n      mstore\n      0x04\n      add\n      tag_86\n      swap1\n      tag_87\n      jump\t// in\n    tag_86:\n      mload(0x40)\n      dup1\n      swap2\n      sub\n      swap1\n      revert\n    tag_85:\n        /* \"Twitter.sol\":1502:1508  tweets */\n      0x01\n        /* \"Twitter.sol\":1502:1516  tweets[author] */\n      0x00\n        /* \"Twitter.sol\":1509:1515  author */\n      dup3\n        /* \"Twitter.sol\":1502:1516  tweets[author] */\n      0xffffffffffffffffffffffffffffffffffffffff\n      and\n      0xffffffffffffffffffffffffffffffffffffffff\n      and\n      dup2\n      mstore\n      0x20\n      add\n      swap1\n      dup2\n      mstore\n      0x20\n      add\n      0x00\n      keccak256\n        /* \"Twitter.sol\":1517:1519  id */\n      dup3\n        /* \"Twitter.sol\":1502:1520  tweets[author][id] */\n      dup2\n      sload\n      dup2\n      lt\n      tag_88\n      jumpi\n      tag_89\n      tag_77\n      jump\t// in\n    tag_89:\n    tag_88:\n      swap1\n      0x00\n      mstore\n      keccak256(0x00, 0x20)\n      swap1\n      0x05\n      mul\n      add\n        /* \"Twitter.sol\":1502:1526  tweets[author][id].likes */\n      0x04\n      add\n      0x00\n        /* \"Twitter.sol\":1502:1528  tweets[author][id].likes-- */\n      dup2\n      sload\n      dup1\n      swap3\n      swap2\n      swap1\n      tag_91\n      swap1\n      tag_92\n      jump\t// in\n    tag_91:\n      swap2\n      swap1\n      pop\n      sstore\n      pop\n        /* \"Twitter.sol\":1292:1536  function unlikeTweet(uint256 id, address author) external {... */\n      pop\n      pop\n      jump\t// out\n        /* \"Twitter.sol\":1663:1775  function getAllTweet(address _owner) public view returns(Tweet[] memory){... */\n    tag_42:\n        /* \"Twitter.sol\":1720:1734  Tweet[] memory */\n      0x60\n        /* \"Twitter.sol\":1753:1759  tweets */\n      0x01\n        /* \"Twitter.sol\":1753:1767  tweets[_owner] */\n      0x00\n        /* \"Twitter.sol\":1760:1766  _owner */\n      dup4\n        /* \"Twitter.sol\":1753:1767  tweets[_owner] */\n      0xffffffffffffffffffffffffffffffffffffffff\n      and\n      0xffffffffffffffffffffffffffffffffffffffff\n      and\n      dup2\n      mstore\n      0x20\n      add\n      swap1\n      dup2\n      mstore\n      0x20\n      add\n      0x00\n      keccak256\n        /* \"Twitter.sol\":1746:1767  return tweets[_owner] */\n      dup1\n      sload\n      dup1\n      0x20\n      mul\n      0x20\n      add\n      mload(0x40)\n      swap1\n      dup2\n      add\n      0x40\n      mstore\n      dup1\n      swap3\n      swap2\n      swap1\n      dup2\n      dup2\n      mstore\n      0x20\n      add\n      0x00\n      swap1\n    tag_94:\n      dup3\n      dup3\n      lt\n      iszero\n      tag_95\n      jumpi\n      dup4\n      dup3\n      swap1\n      0x00\n      mstore\n      keccak256(0x00, 0x20)\n      swap1\n      0x05\n      mul\n      add\n      mload(0x40)\n      dup1\n      0xa0\n      add\n      0x40\n      mstore\n      swap1\n      dup2\n      0x00\n      dup3\n      add\n      sload\n      dup2\n      mstore\n      0x20\n      add\n      0x01\n      dup3\n      add\n      0x00\n      swap1\n      sload\n      swap1\n      0x0100\n      exp\n      swap1\n      div\n      0xffffffffffffffffffffffffffffffffffffffff\n      and\n      0xffffffffffffffffffffffffffffffffffffffff\n      and\n      0xffffffffffffffffffffffffffffffffffffffff\n      and\n      dup2\n      mstore\n      0x20\n      add\n      0x02\n      dup3\n      add\n      dup1\n      sload\n      tag_97\n      swap1\n      tag_57\n      jump\t// in\n    tag_97:\n      dup1\n      0x1f\n      add\n      0x20\n      dup1\n      swap2\n      div\n      mul\n      0x20\n      add\n      mload(0x40)\n      swap1\n      dup2\n      add\n      0x40\n      mstore\n      dup1\n      swap3\n      swap2\n      swap1\n      dup2\n      dup2\n      mstore\n      0x20\n      add\n      dup3\n      dup1\n      sload\n      tag_98\n      swap1\n      tag_57\n      jump\t// in\n    tag_98:\n      dup1\n      iszero\n      tag_99\n      jumpi\n      dup1\n      0x1f\n      lt\n      tag_100\n      jumpi\n      0x0100\n      dup1\n      dup4\n      sload\n      div\n      mul\n      dup4\n      mstore\n      swap2\n      0x20\n      add\n      swap2\n      jump(tag_99)\n    tag_100:\n      dup3\n      add\n      swap2\n      swap1\n      0x00\n      mstore\n      keccak256(0x00, 0x20)\n      swap1\n    tag_101:\n      dup2\n      sload\n      dup2\n      mstore\n      swap1\n      0x01\n      add\n      swap1\n      0x20\n      add\n      dup1\n      dup4\n      gt\n      tag_101\n      jumpi\n      dup3\n      swap1\n      sub\n      0x1f\n      and\n      dup3\n      add\n      swap2\n    tag_99:\n      pop\n      pop\n      pop\n      pop\n      pop\n      dup2\n      mstore\n      0x20\n      add\n      0x03\n      dup3\n      add\n      sload\n      dup2\n      mstore\n      0x20\n      add\n      0x04\n      dup3\n      add\n      sload\n      dup2\n      mstore\n      pop\n      pop\n      dup2\n      mstore\n      0x20\n      add\n      swap1\n      0x01\n      add\n      swap1\n      jump(tag_94)\n    tag_95:\n      pop\n      pop\n      pop\n      pop\n      swap1\n      pop\n        /* \"Twitter.sol\":1663:1775  function getAllTweet(address _owner) public view returns(Tweet[] memory){... */\n      swap2\n      swap1\n      pop\n      jump\t// out\n        /* \"Twitter.sol\":1544:1655  function getTweet( uint _i) public view returns (Tweet memory) {... */\n    tag_48:\n        /* \"Twitter.sol\":1593:1605  Tweet memory */\n      tag_102\n      tag_103\n      jump\t// in\n    tag_102:\n        /* \"Twitter.sol\":1625:1631  tweets */\n      0x01\n        /* \"Twitter.sol\":1625:1643  tweets[msg.sender] */\n      0x00\n        /* \"Twitter.sol\":1632:1642  msg.sender */\n      caller\n        /* \"Twitter.sol\":1625:1643  tweets[msg.sender] */\n      0xffffffffffffffffffffffffffffffffffffffff\n      and\n      0xffffffffffffffffffffffffffffffffffffffff\n      and\n      dup2\n      mstore\n      0x20\n      add\n      swap1\n      dup2\n      mstore\n      0x20\n      add\n      0x00\n      keccak256\n        /* \"Twitter.sol\":1644:1646  _i */\n      dup3\n        /* \"Twitter.sol\":1625:1647  tweets[msg.sender][_i] */\n      dup2\n      sload\n      dup2\n      lt\n      tag_105\n      jumpi\n      tag_106\n      tag_77\n      jump\t// in\n    tag_106:\n    tag_105:\n      swap1\n      0x00\n      mstore\n      keccak256(0x00, 0x20)\n      swap1\n      0x05\n      mul\n      add\n        /* \"Twitter.sol\":1618:1647  return tweets[msg.sender][_i] */\n      mload(0x40)\n      dup1\n      0xa0\n      add\n      0x40\n      mstore\n      swap1\n      dup2\n      0x00\n      dup3\n      add\n      sload\n      dup2\n      mstore\n      0x20\n      add\n      0x01\n      dup3\n      add\n      0x00\n      swap1\n      sload\n      swap1\n      0x0100\n      exp\n      swap1\n      div\n      0xffffffffffffffffffffffffffffffffffffffff\n      and\n      0xffffffffffffffffffffffffffffffffffffffff\n      and\n      0xffffffffffffffffffffffffffffffffffffffff\n      and\n      dup2\n      mstore\n      0x20\n      add\n      0x02\n      dup3\n      add\n      dup1\n      sload\n      tag_108\n      swap1\n      tag_57\n      jump\t// in\n    tag_108:\n      dup1\n      0x1f\n      add\n      0x20\n      dup1\n      swap2\n      div\n      mul\n      0x20\n      add\n      mload(0x40)\n      swap1\n      dup2\n      add\n      0x40\n      mstore\n      dup1\n      swap3\n      swap2\n      swap1\n      dup2\n      dup2\n      mstore\n      0x20\n      add\n      dup3\n      dup1\n      sload\n      tag_109\n      swap1\n      tag_57\n      jump\t// in\n    tag_109:\n      dup1\n      iszero\n      tag_110\n      jumpi\n      dup1\n      0x1f\n      lt\n      tag_111\n      jumpi\n      0x0100\n      dup1\n      dup4\n      sload\n      div\n      mul\n      dup4\n      mstore\n      swap2\n      0x20\n      add\n      swap2\n      jump(tag_110)\n    tag_111:\n      dup3\n      add\n      swap2\n      swap1\n      0x00\n      mstore\n      keccak256(0x00, 0x20)\n      swap1\n    tag_112:\n      dup2\n      sload\n      dup2\n      mstore\n      swap1\n      0x01\n      add\n      swap1\n      0x20\n      add\n      dup1\n      dup4\n      gt\n      tag_112\n      jumpi\n      dup3\n      swap1\n      sub\n      0x1f\n      and\n      dup3\n      add\n      swap2\n    tag_110:\n      pop\n      pop\n      pop\n      pop\n      pop\n      dup2\n      mstore\n      0x20\n      add\n      0x03\n      dup3\n      add\n      sload\n      dup2\n      mstore\n      0x20\n      add\n      0x04\n      dup3\n      add\n      sload\n      dup2\n      mstore\n      pop\n      pop\n      swap1\n      pop\n        /* \"Twitter.sol\":1544:1655  function getTweet( uint _i) public view returns (Tweet memory) {... */\n      swap2\n      swap1\n      pop\n      jump\t// out\n        /* \"Twitter.sol\":1112:1284  function likeTweet(uint256 id, address author) external {... */\n    tag_53:\n        /* \"Twitter.sol\":1212:1214  id */\n      dup2\n        /* \"Twitter.sol\":1187:1193  tweets */\n      0x01\n        /* \"Twitter.sol\":1187:1201  tweets[author] */\n      0x00\n        /* \"Twitter.sol\":1194:1200  author */\n      dup4\n        /* \"Twitter.sol\":1187:1201  tweets[author] */\n      0xffffffffffffffffffffffffffffffffffffffff\n      and\n      0xffffffffffffffffffffffffffffffffffffffff\n      and\n      dup2\n      mstore\n      0x20\n      add\n      swap1\n      dup2\n      mstore\n      0x20\n      add\n      0x00\n      keccak256\n        /* \"Twitter.sol\":1202:1204  id */\n      dup4\n        /* \"Twitter.sol\":1187:1205  tweets[author][id] */\n      dup2\n      sload\n      dup2\n      lt\n      tag_114\n      jumpi\n      tag_115\n      tag_77\n      jump\t// in\n    tag_115:\n    tag_114:\n      swap1\n      0x00\n      mstore\n      keccak256(0x00, 0x20)\n      swap1\n      0x05\n      mul\n      add\n        /* \"Twitter.sol\":1187:1208  tweets[author][id].id */\n      0x00\n      add\n      sload\n        /* \"Twitter.sol\":1187:1214  tweets[author][id].id == id */\n      eq\n        /* \"Twitter.sol\":1179:1239  require(tweets[author][id].id == id, \"TWEET DOES NOT EXIST\") */\n      tag_117\n      jumpi\n      mload(0x40)\n      0x08c379a000000000000000000000000000000000000000000000000000000000\n      dup2\n      mstore\n      0x04\n      add\n      tag_118\n      swap1\n      tag_81\n      jump\t// in\n    tag_118:\n      mload(0x40)\n      dup1\n      swap2\n      sub\n      swap1\n      revert\n    tag_117:\n        /* \"Twitter.sol\":1250:1256  tweets */\n      0x01\n        /* \"Twitter.sol\":1250:1264  tweets[author] */\n      0x00\n        /* \"Twitter.sol\":1257:1263  author */\n      dup3\n        /* \"Twitter.sol\":1250:1264  tweets[author] */\n      0xffffffffffffffffffffffffffffffffffffffff\n      and\n      0xffffffffffffffffffffffffffffffffffffffff\n      and\n      dup2\n      mstore\n      0x20\n      add\n      swap1\n      dup2\n      mstore\n      0x20\n      add\n      0x00\n      keccak256\n        /* \"Twitter.sol\":1265:1267  id */\n      dup3\n        /* \"Twitter.sol\":1250:1268  tweets[author][id] */\n      dup2\n      sload\n      dup2\n      lt\n      tag_119\n      jumpi\n      tag_120\n      tag_77\n      jump\t// in\n    tag_120:\n    tag_119:\n      swap1\n      0x00\n      mstore\n      keccak256(0x00, 0x20)\n      swap1\n      0x05\n      mul\n      add\n        /* \"Twitter.sol\":1250:1274  tweets[author][id].likes */\n      0x04\n      add\n      0x00\n        /* \"Twitter.sol\":1250:1276  tweets[author][id].likes++ */\n      dup2\n      sload\n      dup1\n      swap3\n      swap2\n      swap1\n      tag_122\n      swap1\n      tag_123\n      jump\t// in\n    tag_122:\n      swap2\n      swap1\n      pop\n      sstore\n      pop\n        /* \"Twitter.sol\":1112:1284  function likeTweet(uint256 id, address author) external {... */\n      pop\n      pop\n      jump\t// out\n    tag_103:\n      mload(0x40)\n      dup1\n      0xa0\n      add\n      0x40\n      mstore\n      dup1\n      0x00\n      dup2\n      mstore\n      0x20\n      add\n      and(0xffffffffffffffffffffffffffffffffffffffff, 0x00)\n      dup2\n      mstore\n      0x20\n      add\n      0x60\n      dup2\n      mstore\n      0x20\n      add\n      0x00\n      dup2\n      mstore\n      0x20\n      add\n      0x00\n      dup2\n      mstore\n      pop\n      swap1\n      jump\t// out\n        /* \"#utility.yul\":7:82   */\n    tag_124:\n        /* \"#utility.yul\":40:46   */\n      0x00\n        /* \"#utility.yul\":73:75   */\n      0x40\n        /* \"#utility.yul\":67:76   */\n      mload\n        /* \"#utility.yul\":57:76   */\n      swap1\n      pop\n        /* \"#utility.yul\":7:82   */\n      swap1\n      jump\t// out\n        /* \"#utility.yul\":88:205   */\n    tag_125:\n        /* \"#utility.yul\":197:198   */\n      0x00\n        /* \"#utility.yul\":194:195   */\n      dup1\n        /* \"#utility.yul\":187:199   */\n      revert\n        /* \"#utility.yul\":211:328   */\n    tag_126:\n        /* \"#utility.yul\":320:321   */\n      0x00\n        /* \"#utility.yul\":317:318   */\n      dup1\n        /* \"#utility.yul\":310:322   */\n      revert\n        /* \"#utility.yul\":334:460   */\n    tag_127:\n        /* \"#utility.yul\":371:378   */\n      0x00\n        /* \"#utility.yul\":411:453   */\n      0xffffffffffffffffffffffffffffffffffffffff\n        /* \"#utility.yul\":404:409   */\n      dup3\n        /* \"#utility.yul\":400:454   */\n      and\n        /* \"#utility.yul\":389:454   */\n      swap1\n      pop\n        /* \"#utility.yul\":334:460   */\n      swap2\n      swap1\n      pop\n      jump\t// out\n        /* \"#utility.yul\":466:562   */\n    tag_128:\n        /* \"#utility.yul\":503:510   */\n      0x00\n        /* \"#utility.yul\":532:556   */\n      tag_197\n        /* \"#utility.yul\":550:555   */\n      dup3\n        /* \"#utility.yul\":532:556   */\n      tag_127\n      jump\t// in\n    tag_197:\n        /* \"#utility.yul\":521:556   */\n      swap1\n      pop\n        /* \"#utility.yul\":466:562   */\n      swap2\n      swap1\n      pop\n      jump\t// out\n        /* \"#utility.yul\":568:690   */\n    tag_129:\n        /* \"#utility.yul\":641:665   */\n      tag_199\n        /* \"#utility.yul\":659:664   */\n      dup2\n        /* \"#utility.yul\":641:665   */\n      tag_128\n      jump\t// in\n    tag_199:\n        /* \"#utility.yul\":634:639   */\n      dup2\n        /* \"#utility.yul\":631:666   */\n      eq\n        /* \"#utility.yul\":621:684   */\n      tag_200\n      jumpi\n        /* \"#utility.yul\":680:681   */\n      0x00\n        /* \"#utility.yul\":677:678   */\n      dup1\n        /* \"#utility.yul\":670:682   */\n      revert\n        /* \"#utility.yul\":621:684   */\n    tag_200:\n        /* \"#utility.yul\":568:690   */\n      pop\n      jump\t// out\n        /* \"#utility.yul\":696:835   */\n    tag_130:\n        /* \"#utility.yul\":742:747   */\n      0x00\n        /* \"#utility.yul\":780:786   */\n      dup2\n        /* \"#utility.yul\":767:787   */\n      calldataload\n        /* \"#utility.yul\":758:787   */\n      swap1\n      pop\n        /* \"#utility.yul\":796:829   */\n      tag_202\n        /* \"#utility.yul\":823:828   */\n      dup2\n        /* \"#utility.yul\":796:829   */\n      tag_129\n      jump\t// in\n    tag_202:\n        /* \"#utility.yul\":696:835   */\n      swap3\n      swap2\n      pop\n      pop\n      jump\t// out\n        /* \"#utility.yul\":841:918   */\n    tag_131:\n        /* \"#utility.yul\":878:885   */\n      0x00\n        /* \"#utility.yul\":907:912   */\n      dup2\n        /* \"#utility.yul\":896:912   */\n      swap1\n      pop\n        /* \"#utility.yul\":841:918   */\n      swap2\n      swap1\n      pop\n      jump\t// out\n        /* \"#utility.yul\":924:1046   */\n    tag_132:\n        /* \"#utility.yul\":997:1021   */\n      tag_205\n        /* \"#utility.yul\":1015:1020   */\n      dup2\n        /* \"#utility.yul\":997:1021   */\n      tag_131\n      jump\t// in\n    tag_205:\n        /* \"#utility.yul\":990:995   */\n      dup2\n        /* \"#utility.yul\":987:1022   */\n      eq\n        /* \"#utility.yul\":977:1040   */\n      tag_206\n      jumpi\n        /* \"#utility.yul\":1036:1037   */\n      0x00\n        /* \"#utility.yul\":1033:1034   */\n      dup1\n        /* \"#utility.yul\":1026:1038   */\n      revert\n        /* \"#utility.yul\":977:1040   */\n    tag_206:\n        /* \"#utility.yul\":924:1046   */\n      pop\n      jump\t// out\n        /* \"#utility.yul\":1052:1191   */\n    tag_133:\n        /* \"#utility.yul\":1098:1103   */\n      0x00\n        /* \"#utility.yul\":1136:1142   */\n      dup2\n        /* \"#utility.yul\":1123:1143   */\n      calldataload\n        /* \"#utility.yul\":1114:1143   */\n      swap1\n      pop\n        /* \"#utility.yul\":1152:1185   */\n      tag_208\n        /* \"#utility.yul\":1179:1184   */\n      dup2\n        /* \"#utility.yul\":1152:1185   */\n      tag_132\n      jump\t// in\n    tag_208:\n        /* \"#utility.yul\":1052:1191   */\n      swap3\n      swap2\n      pop\n      pop\n      jump\t// out\n        /* \"#utility.yul\":1197:1671   */\n    tag_15:\n        /* \"#utility.yul\":1265:1271   */\n      0x00\n        /* \"#utility.yul\":1273:1279   */\n      dup1\n        /* \"#utility.yul\":1322:1324   */\n      0x40\n        /* \"#utility.yul\":1310:1319   */\n      dup4\n        /* \"#utility.yul\":1301:1308   */\n      dup6\n        /* \"#utility.yul\":1297:1320   */\n      sub\n        /* \"#utility.yul\":1293:1325   */\n      slt\n        /* \"#utility.yul\":1290:1409   */\n      iszero\n      tag_210\n      jumpi\n        /* \"#utility.yul\":1328:1407   */\n      tag_211\n      tag_125\n      jump\t// in\n    tag_211:\n        /* \"#utility.yul\":1290:1409   */\n    tag_210:\n        /* \"#utility.yul\":1448:1449   */\n      0x00\n        /* \"#utility.yul\":1473:1526   */\n      tag_212\n        /* \"#utility.yul\":1518:1525   */\n      dup6\n        /* \"#utility.yul\":1509:1515   */\n      dup3\n        /* \"#utility.yul\":1498:1507   */\n      dup7\n        /* \"#utility.yul\":1494:1516   */\n      add\n        /* \"#utility.yul\":1473:1526   */\n      tag_130\n      jump\t// in\n    tag_212:\n        /* \"#utility.yul\":1463:1526   */\n      swap3\n      pop\n        /* \"#utility.yul\":1419:1536   */\n      pop\n        /* \"#utility.yul\":1575:1577   */\n      0x20\n        /* \"#utility.yul\":1601:1654   */\n      tag_213\n        /* \"#utility.yul\":1646:1653   */\n      dup6\n        /* \"#utility.yul\":1637:1643   */\n      dup3\n        /* \"#utility.yul\":1626:1635   */\n      dup7\n        /* \"#utility.yul\":1622:1644   */\n      add\n        /* \"#utility.yul\":1601:1654   */\n      tag_133\n      jump\t// in\n    tag_213:\n        /* \"#utility.yul\":1591:1654   */\n      swap2\n      pop\n        /* \"#utility.yul\":1546:1664   */\n      pop\n        /* \"#utility.yul\":1197:1671   */\n      swap3\n      pop\n      swap3\n      swap1\n      pop\n      jump\t// out\n        /* \"#utility.yul\":1677:1795   */\n    tag_134:\n        /* \"#utility.yul\":1764:1788   */\n      tag_215\n        /* \"#utility.yul\":1782:1787   */\n      dup2\n        /* \"#utility.yul\":1764:1788   */\n      tag_131\n      jump\t// in\n    tag_215:\n        /* \"#utility.yul\":1759:1762   */\n      dup3\n        /* \"#utility.yul\":1752:1789   */\n      mstore\n        /* \"#utility.yul\":1677:1795   */\n      pop\n      pop\n      jump\t// out\n        /* \"#utility.yul\":1801:1919   */\n    tag_135:\n        /* \"#utility.yul\":1888:1912   */\n      tag_217\n        /* \"#utility.yul\":1906:1911   */\n      dup2\n        /* \"#utility.yul\":1888:1912   */\n      tag_128\n      jump\t// in\n    tag_217:\n        /* \"#utility.yul\":1883:1886   */\n      dup3\n        /* \"#utility.yul\":1876:1913   */\n      mstore\n        /* \"#utility.yul\":1801:1919   */\n      pop\n      pop\n      jump\t// out\n        /* \"#utility.yul\":1925:2024   */\n    tag_136:\n        /* \"#utility.yul\":1977:1983   */\n      0x00\n        /* \"#utility.yul\":2011:2016   */\n      dup2\n        /* \"#utility.yul\":2005:2017   */\n      mload\n        /* \"#utility.yul\":1995:2017   */\n      swap1\n      pop\n        /* \"#utility.yul\":1925:2024   */\n      swap2\n      swap1\n      pop\n      jump\t// out\n        /* \"#utility.yul\":2030:2199   */\n    tag_137:\n        /* \"#utility.yul\":2114:2125   */\n      0x00\n        /* \"#utility.yul\":2148:2154   */\n      dup3\n        /* \"#utility.yul\":2143:2146   */\n      dup3\n        /* \"#utility.yul\":2136:2155   */\n      mstore\n        /* \"#utility.yul\":2188:2192   */\n      0x20\n        /* \"#utility.yul\":2183:2186   */\n      dup3\n        /* \"#utility.yul\":2179:2193   */\n      add\n        /* \"#utility.yul\":2164:2193   */\n      swap1\n      pop\n        /* \"#utility.yul\":2030:2199   */\n      swap3\n      swap2\n      pop\n      pop\n      jump\t// out\n        /* \"#utility.yul\":2205:2451   */\n    tag_138:\n        /* \"#utility.yul\":2286:2287   */\n      0x00\n        /* \"#utility.yul\":2296:2409   */\n    tag_221:\n        /* \"#utility.yul\":2310:2316   */\n      dup4\n        /* \"#utility.yul\":2307:2308   */\n      dup2\n        /* \"#utility.yul\":2304:2317   */\n      lt\n        /* \"#utility.yul\":2296:2409   */\n      iszero\n      tag_223\n      jumpi\n        /* \"#utility.yul\":2395:2396   */\n      dup1\n        /* \"#utility.yul\":2390:2393   */\n      dup3\n        /* \"#utility.yul\":2386:2397   */\n      add\n        /* \"#utility.yul\":2380:2398   */\n      mload\n        /* \"#utility.yul\":2376:2377   */\n      dup2\n        /* \"#utility.yul\":2371:2374   */\n      dup5\n        /* \"#utility.yul\":2367:2378   */\n      add\n        /* \"#utility.yul\":2360:2399   */\n      mstore\n        /* \"#utility.yul\":2332:2334   */\n      0x20\n        /* \"#utility.yul\":2329:2330   */\n      dup2\n        /* \"#utility.yul\":2325:2335   */\n      add\n        /* \"#utility.yul\":2320:2335   */\n      swap1\n      pop\n        /* \"#utility.yul\":2296:2409   */\n      jump(tag_221)\n    tag_223:\n        /* \"#utility.yul\":2443:2444   */\n      0x00\n        /* \"#utility.yul\":2434:2440   */\n      dup5\n        /* \"#utility.yul\":2429:2432   */\n      dup5\n        /* \"#utility.yul\":2425:2441   */\n      add\n        /* \"#utility.yul\":2418:2445   */\n      mstore\n        /* \"#utility.yul\":2267:2451   */\n      pop\n        /* \"#utility.yul\":2205:2451   */\n      pop\n      pop\n      pop\n      jump\t// out\n        /* \"#utility.yul\":2457:2559   */\n    tag_139:\n        /* \"#utility.yul\":2498:2504   */\n      0x00\n        /* \"#utility.yul\":2549:2551   */\n      0x1f\n        /* \"#utility.yul\":2545:2552   */\n      not\n        /* \"#utility.yul\":2540:2542   */\n      0x1f\n        /* \"#utility.yul\":2533:2538   */\n      dup4\n        /* \"#utility.yul\":2529:2543   */\n      add\n        /* \"#utility.yul\":2525:2553   */\n      and\n        /* \"#utility.yul\":2515:2553   */\n      swap1\n      pop\n        /* \"#utility.yul\":2457:2559   */\n      swap2\n      swap1\n      pop\n      jump\t// out\n        /* \"#utility.yul\":2565:2942   */\n    tag_140:\n        /* \"#utility.yul\":2653:2656   */\n      0x00\n        /* \"#utility.yul\":2681:2720   */\n      tag_226\n        /* \"#utility.yul\":2714:2719   */\n      dup3\n        /* \"#utility.yul\":2681:2720   */\n      tag_136\n      jump\t// in\n    tag_226:\n        /* \"#utility.yul\":2736:2807   */\n      tag_227\n        /* \"#utility.yul\":2800:2806   */\n      dup2\n        /* \"#utility.yul\":2795:2798   */\n      dup6\n        /* \"#utility.yul\":2736:2807   */\n      tag_137\n      jump\t// in\n    tag_227:\n        /* \"#utility.yul\":2729:2807   */\n      swap4\n      pop\n        /* \"#utility.yul\":2816:2881   */\n      tag_228\n        /* \"#utility.yul\":2874:2880   */\n      dup2\n        /* \"#utility.yul\":2869:2872   */\n      dup6\n        /* \"#utility.yul\":2862:2866   */\n      0x20\n        /* \"#utility.yul\":2855:2860   */\n      dup7\n        /* \"#utility.yul\":2851:2867   */\n      add\n        /* \"#utility.yul\":2816:2881   */\n      tag_138\n      jump\t// in\n    tag_228:\n        /* \"#utility.yul\":2906:2935   */\n      tag_229\n        /* \"#utility.yul\":2928:2934   */\n      dup2\n        /* \"#utility.yul\":2906:2935   */\n      tag_139\n      jump\t// in\n    tag_229:\n        /* \"#utility.yul\":2901:2904   */\n      dup5\n        /* \"#utility.yul\":2897:2936   */\n      add\n        /* \"#utility.yul\":2890:2936   */\n      swap2\n      pop\n        /* \"#utility.yul\":2657:2942   */\n      pop\n        /* \"#utility.yul\":2565:2942   */\n      swap3\n      swap2\n      pop\n      pop\n      jump\t// out\n        /* \"#utility.yul\":2948:3703   */\n    tag_18:\n        /* \"#utility.yul\":3173:3177   */\n      0x00\n        /* \"#utility.yul\":3211:3214   */\n      0xa0\n        /* \"#utility.yul\":3200:3209   */\n      dup3\n        /* \"#utility.yul\":3196:3215   */\n      add\n        /* \"#utility.yul\":3188:3215   */\n      swap1\n      pop\n        /* \"#utility.yul\":3225:3296   */\n      tag_231\n        /* \"#utility.yul\":3293:3294   */\n      0x00\n        /* \"#utility.yul\":3282:3291   */\n      dup4\n        /* \"#utility.yul\":3278:3295   */\n      add\n        /* \"#utility.yul\":3269:3275   */\n      dup9\n        /* \"#utility.yul\":3225:3296   */\n      tag_134\n      jump\t// in\n    tag_231:\n        /* \"#utility.yul\":3306:3378   */\n      tag_232\n        /* \"#utility.yul\":3374:3376   */\n      0x20\n        /* \"#utility.yul\":3363:3372   */\n      dup4\n        /* \"#utility.yul\":3359:3377   */\n      add\n        /* \"#utility.yul\":3350:3356   */\n      dup8\n        /* \"#utility.yul\":3306:3378   */\n      tag_135\n      jump\t// in\n    tag_232:\n        /* \"#utility.yul\":3425:3434   */\n      dup2\n        /* \"#utility.yul\":3419:3423   */\n      dup2\n        /* \"#utility.yul\":3415:3435   */\n      sub\n        /* \"#utility.yul\":3410:3412   */\n      0x40\n        /* \"#utility.yul\":3399:3408   */\n      dup4\n        /* \"#utility.yul\":3395:3413   */\n      add\n        /* \"#utility.yul\":3388:3436   */\n      mstore\n        /* \"#utility.yul\":3453:3531   */\n      tag_233\n        /* \"#utility.yul\":3526:3530   */\n      dup2\n        /* \"#utility.yul\":3517:3523   */\n      dup7\n        /* \"#utility.yul\":3453:3531   */\n      tag_140\n      jump\t// in\n    tag_233:\n        /* \"#utility.yul\":3445:3531   */\n      swap1\n      pop\n        /* \"#utility.yul\":3541:3613   */\n      tag_234\n        /* \"#utility.yul\":3609:3611   */\n      0x60\n        /* \"#utility.yul\":3598:3607   */\n      dup4\n        /* \"#utility.yul\":3594:3612   */\n      add\n        /* \"#utility.yul\":3585:3591   */\n      dup6\n        /* \"#utility.yul\":3541:3613   */\n      tag_134\n      jump\t// in\n    tag_234:\n        /* \"#utility.yul\":3623:3696   */\n      tag_235\n        /* \"#utility.yul\":3691:3694   */\n      0x80\n        /* \"#utility.yul\":3680:3689   */\n      dup4\n        /* \"#utility.yul\":3676:3695   */\n      add\n        /* \"#utility.yul\":3667:3673   */\n      dup5\n        /* \"#utility.yul\":3623:3696   */\n      tag_134\n      jump\t// in\n    tag_235:\n        /* \"#utility.yul\":2948:3703   */\n      swap7\n      swap6\n      pop\n      pop\n      pop\n      pop\n      pop\n      pop\n      jump\t// out\n        /* \"#utility.yul\":3709:3798   */\n    tag_141:\n        /* \"#utility.yul\":3745:3752   */\n      0x00\n        /* \"#utility.yul\":3785:3791   */\n      0xffff\n        /* \"#utility.yul\":3778:3783   */\n      dup3\n        /* \"#utility.yul\":3774:3792   */\n      and\n        /* \"#utility.yul\":3763:3792   */\n      swap1\n      pop\n        /* \"#utility.yul\":3709:3798   */\n      swap2\n      swap1\n      pop\n      jump\t// out\n        /* \"#utility.yul\":3804:3924   */\n    tag_142:\n        /* \"#utility.yul\":3876:3899   */\n      tag_238\n        /* \"#utility.yul\":3893:3898   */\n      dup2\n        /* \"#utility.yul\":3876:3899   */\n      tag_141\n      jump\t// in\n    tag_238:\n        /* \"#utility.yul\":3869:3874   */\n      dup2\n        /* \"#utility.yul\":3866:3900   */\n      eq\n        /* \"#utility.yul\":3856:3918   */\n      tag_239\n      jumpi\n        /* \"#utility.yul\":3914:3915   */\n      0x00\n        /* \"#utility.yul\":3911:3912   */\n      dup1\n        /* \"#utility.yul\":3904:3916   */\n      revert\n        /* \"#utility.yul\":3856:3918   */\n    tag_239:\n        /* \"#utility.yul\":3804:3924   */\n      pop\n      jump\t// out\n        /* \"#utility.yul\":3930:4067   */\n    tag_143:\n        /* \"#utility.yul\":3975:3980   */\n      0x00\n        /* \"#utility.yul\":4013:4019   */\n      dup2\n        /* \"#utility.yul\":4000:4020   */\n      calldataload\n        /* \"#utility.yul\":3991:4020   */\n      swap1\n      pop\n        /* \"#utility.yul\":4029:4061   */\n      tag_241\n        /* \"#utility.yul\":4055:4060   */\n      dup2\n        /* \"#utility.yul\":4029:4061   */\n      tag_142\n      jump\t// in\n    tag_241:\n        /* \"#utility.yul\":3930:4067   */\n      swap3\n      swap2\n      pop\n      pop\n      jump\t// out\n        /* \"#utility.yul\":4073:4400   */\n    tag_21:\n        /* \"#utility.yul\":4131:4137   */\n      0x00\n        /* \"#utility.yul\":4180:4182   */\n      0x20\n        /* \"#utility.yul\":4168:4177   */\n      dup3\n        /* \"#utility.yul\":4159:4166   */\n      dup5\n        /* \"#utility.yul\":4155:4178   */\n      sub\n        /* \"#utility.yul\":4151:4183   */\n      slt\n        /* \"#utility.yul\":4148:4267   */\n      iszero\n      tag_243\n      jumpi\n        /* \"#utility.yul\":4186:4265   */\n      tag_244\n      tag_125\n      jump\t// in\n    tag_244:\n        /* \"#utility.yul\":4148:4267   */\n    tag_243:\n        /* \"#utility.yul\":4306:4307   */\n      0x00\n        /* \"#utility.yul\":4331:4383   */\n      tag_245\n        /* \"#utility.yul\":4375:4382   */\n      dup5\n        /* \"#utility.yul\":4366:4372   */\n      dup3\n        /* \"#utility.yul\":4355:4364   */\n      dup6\n        /* \"#utility.yul\":4351:4373   */\n      add\n        /* \"#utility.yul\":4331:4383   */\n      tag_143\n      jump\t// in\n    tag_245:\n        /* \"#utility.yul\":4321:4383   */\n      swap2\n      pop\n        /* \"#utility.yul\":4277:4393   */\n      pop\n        /* \"#utility.yul\":4073:4400   */\n      swap3\n      swap2\n      pop\n      pop\n      jump\t// out\n        /* \"#utility.yul\":4406:4521   */\n    tag_144:\n        /* \"#utility.yul\":4491:4514   */\n      tag_247\n        /* \"#utility.yul\":4508:4513   */\n      dup2\n        /* \"#utility.yul\":4491:4514   */\n      tag_141\n      jump\t// in\n    tag_247:\n        /* \"#utility.yul\":4486:4489   */\n      dup3\n        /* \"#utility.yul\":4479:4515   */\n      mstore\n        /* \"#utility.yul\":4406:4521   */\n      pop\n      pop\n      jump\t// out\n        /* \"#utility.yul\":4527:4745   */\n    tag_26:\n        /* \"#utility.yul\":4618:4622   */\n      0x00\n        /* \"#utility.yul\":4656:4658   */\n      0x20\n        /* \"#utility.yul\":4645:4654   */\n      dup3\n        /* \"#utility.yul\":4641:4659   */\n      add\n        /* \"#utility.yul\":4633:4659   */\n      swap1\n      pop\n        /* \"#utility.yul\":4669:4738   */\n      tag_249\n        /* \"#utility.yul\":4735:4736   */\n      0x00\n        /* \"#utility.yul\":4724:4733   */\n      dup4\n        /* \"#utility.yul\":4720:4737   */\n      add\n        /* \"#utility.yul\":4711:4717   */\n      dup5\n        /* \"#utility.yul\":4669:4738   */\n      tag_144\n      jump\t// in\n    tag_249:\n        /* \"#utility.yul\":4527:4745   */\n      swap3\n      swap2\n      pop\n      pop\n      jump\t// out\n        /* \"#utility.yul\":4751:4868   */\n    tag_145:\n        /* \"#utility.yul\":4860:4861   */\n      0x00\n        /* \"#utility.yul\":4857:4858   */\n      dup1\n        /* \"#utility.yul\":4850:4862   */\n      revert\n        /* \"#utility.yul\":4874:4991   */\n    tag_146:\n        /* \"#utility.yul\":4983:4984   */\n      0x00\n        /* \"#utility.yul\":4980:4981   */\n      dup1\n        /* \"#utility.yul\":4973:4985   */\n      revert\n        /* \"#utility.yul\":4997:5177   */\n    tag_147:\n        /* \"#utility.yul\":5045:5122   */\n      0x4e487b7100000000000000000000000000000000000000000000000000000000\n        /* \"#utility.yul\":5042:5043   */\n      0x00\n        /* \"#utility.yul\":5035:5123   */\n      mstore\n        /* \"#utility.yul\":5142:5146   */\n      0x41\n        /* \"#utility.yul\":5139:5140   */\n      0x04\n        /* \"#utility.yul\":5132:5147   */\n      mstore\n        /* \"#utility.yul\":5166:5170   */\n      0x24\n        /* \"#utility.yul\":5163:5164   */\n      0x00\n        /* \"#utility.yul\":5156:5171   */\n      revert\n        /* \"#utility.yul\":5183:5464   */\n    tag_148:\n        /* \"#utility.yul\":5266:5293   */\n      tag_254\n        /* \"#utility.yul\":5288:5292   */\n      dup3\n        /* \"#utility.yul\":5266:5293   */\n      tag_139\n      jump\t// in\n    tag_254:\n        /* \"#utility.yul\":5258:5264   */\n      dup2\n        /* \"#utility.yul\":5254:5294   */\n      add\n        /* \"#utility.yul\":5396:5402   */\n      dup2\n        /* \"#utility.yul\":5384:5394   */\n      dup2\n        /* \"#utility.yul\":5381:5403   */\n      lt\n        /* \"#utility.yul\":5360:5378   */\n      0xffffffffffffffff\n        /* \"#utility.yul\":5348:5358   */\n      dup3\n        /* \"#utility.yul\":5345:5379   */\n      gt\n        /* \"#utility.yul\":5342:5404   */\n      or\n        /* \"#utility.yul\":5339:5427   */\n      iszero\n      tag_255\n      jumpi\n        /* \"#utility.yul\":5407:5425   */\n      tag_256\n      tag_147\n      jump\t// in\n    tag_256:\n        /* \"#utility.yul\":5339:5427   */\n    tag_255:\n        /* \"#utility.yul\":5447:5457   */\n      dup1\n        /* \"#utility.yul\":5443:5445   */\n      0x40\n        /* \"#utility.yul\":5436:5458   */\n      mstore\n        /* \"#utility.yul\":5226:5464   */\n      pop\n        /* \"#utility.yul\":5183:5464   */\n      pop\n      pop\n      jump\t// out\n        /* \"#utility.yul\":5470:5599   */\n    tag_149:\n        /* \"#utility.yul\":5504:5510   */\n      0x00\n        /* \"#utility.yul\":5531:5551   */\n      tag_258\n      tag_124\n      jump\t// in\n    tag_258:\n        /* \"#utility.yul\":5521:5551   */\n      swap1\n      pop\n        /* \"#utility.yul\":5560:5593   */\n      tag_259\n        /* \"#utility.yul\":5588:5592   */\n      dup3\n        /* \"#utility.yul\":5580:5586   */\n      dup3\n        /* \"#utility.yul\":5560:5593   */\n      tag_148\n      jump\t// in\n    tag_259:\n        /* \"#utility.yul\":5470:5599   */\n      swap2\n      swap1\n      pop\n      jump\t// out\n        /* \"#utility.yul\":5605:5913   */\n    tag_150:\n        /* \"#utility.yul\":5667:5671   */\n      0x00\n        /* \"#utility.yul\":5757:5775   */\n      0xffffffffffffffff\n        /* \"#utility.yul\":5749:5755   */\n      dup3\n        /* \"#utility.yul\":5746:5776   */\n      gt\n        /* \"#utility.yul\":5743:5799   */\n      iszero\n      tag_261\n      jumpi\n        /* \"#utility.yul\":5779:5797   */\n      tag_262\n      tag_147\n      jump\t// in\n    tag_262:\n        /* \"#utility.yul\":5743:5799   */\n    tag_261:\n        /* \"#utility.yul\":5817:5846   */\n      tag_263\n        /* \"#utility.yul\":5839:5845   */\n      dup3\n        /* \"#utility.yul\":5817:5846   */\n      tag_139\n      jump\t// in\n    tag_263:\n        /* \"#utility.yul\":5809:5846   */\n      swap1\n      pop\n        /* \"#utility.yul\":5901:5905   */\n      0x20\n        /* \"#utility.yul\":5895:5899   */\n      dup2\n        /* \"#utility.yul\":5891:5906   */\n      add\n        /* \"#utility.yul\":5883:5906   */\n      swap1\n      pop\n        /* \"#utility.yul\":5605:5913   */\n      swap2\n      swap1\n      pop\n      jump\t// out\n        /* \"#utility.yul\":5919:6065   */\n    tag_151:\n        /* \"#utility.yul\":6016:6022   */\n      dup3\n        /* \"#utility.yul\":6011:6014   */\n      dup2\n        /* \"#utility.yul\":6006:6009   */\n      dup4\n        /* \"#utility.yul\":5993:6023   */\n      calldatacopy\n        /* \"#utility.yul\":6057:6058   */\n      0x00\n        /* \"#utility.yul\":6048:6054   */\n      dup4\n        /* \"#utility.yul\":6043:6046   */\n      dup4\n        /* \"#utility.yul\":6039:6055   */\n      add\n        /* \"#utility.yul\":6032:6059   */\n      mstore\n        /* \"#utility.yul\":5919:6065   */\n      pop\n      pop\n      pop\n      jump\t// out\n        /* \"#utility.yul\":6071:6496   */\n    tag_152:\n        /* \"#utility.yul\":6149:6154   */\n      0x00\n        /* \"#utility.yul\":6174:6240   */\n      tag_266\n        /* \"#utility.yul\":6190:6239   */\n      tag_267\n        /* \"#utility.yul\":6232:6238   */\n      dup5\n        /* \"#utility.yul\":6190:6239   */\n      tag_150\n      jump\t// in\n    tag_267:\n        /* \"#utility.yul\":6174:6240   */\n      tag_149\n      jump\t// in\n    tag_266:\n        /* \"#utility.yul\":6165:6240   */\n      swap1\n      pop\n        /* \"#utility.yul\":6263:6269   */\n      dup3\n        /* \"#utility.yul\":6256:6261   */\n      dup2\n        /* \"#utility.yul\":6249:6270   */\n      mstore\n        /* \"#utility.yul\":6301:6305   */\n      0x20\n        /* \"#utility.yul\":6294:6299   */\n      dup2\n        /* \"#utility.yul\":6290:6306   */\n      add\n        /* \"#utility.yul\":6339:6342   */\n      dup5\n        /* \"#utility.yul\":6330:6336   */\n      dup5\n        /* \"#utility.yul\":6325:6328   */\n      dup5\n        /* \"#utility.yul\":6321:6337   */\n      add\n        /* \"#utility.yul\":6318:6343   */\n      gt\n        /* \"#utility.yul\":6315:6427   */\n      iszero\n      tag_268\n      jumpi\n        /* \"#utility.yul\":6346:6425   */\n      tag_269\n      tag_146\n      jump\t// in\n    tag_269:\n        /* \"#utility.yul\":6315:6427   */\n    tag_268:\n        /* \"#utility.yul\":6436:6490   */\n      tag_270\n        /* \"#utility.yul\":6483:6489   */\n      dup5\n        /* \"#utility.yul\":6478:6481   */\n      dup3\n        /* \"#utility.yul\":6473:6476   */\n      dup6\n        /* \"#utility.yul\":6436:6490   */\n      tag_151\n      jump\t// in\n    tag_270:\n        /* \"#utility.yul\":6155:6496   */\n      pop\n        /* \"#utility.yul\":6071:6496   */\n      swap4\n      swap3\n      pop\n      pop\n      pop\n      jump\t// out\n        /* \"#utility.yul\":6516:6856   */\n    tag_153:\n        /* \"#utility.yul\":6572:6577   */\n      0x00\n        /* \"#utility.yul\":6621:6624   */\n      dup3\n        /* \"#utility.yul\":6614:6618   */\n      0x1f\n        /* \"#utility.yul\":6606:6612   */\n      dup4\n        /* \"#utility.yul\":6602:6619   */\n      add\n        /* \"#utility.yul\":6598:6625   */\n      slt\n        /* \"#utility.yul\":6588:6710   */\n      tag_272\n      jumpi\n        /* \"#utility.yul\":6629:6708   */\n      tag_273\n      tag_145\n      jump\t// in\n    tag_273:\n        /* \"#utility.yul\":6588:6710   */\n    tag_272:\n        /* \"#utility.yul\":6746:6752   */\n      dup2\n        /* \"#utility.yul\":6733:6753   */\n      calldataload\n        /* \"#utility.yul\":6771:6850   */\n      tag_274\n        /* \"#utility.yul\":6846:6849   */\n      dup5\n        /* \"#utility.yul\":6838:6844   */\n      dup3\n        /* \"#utility.yul\":6831:6835   */\n      0x20\n        /* \"#utility.yul\":6823:6829   */\n      dup7\n        /* \"#utility.yul\":6819:6836   */\n      add\n        /* \"#utility.yul\":6771:6850   */\n      tag_152\n      jump\t// in\n    tag_274:\n        /* \"#utility.yul\":6762:6850   */\n      swap2\n      pop\n        /* \"#utility.yul\":6578:6856   */\n      pop\n        /* \"#utility.yul\":6516:6856   */\n      swap3\n      swap2\n      pop\n      pop\n      jump\t// out\n        /* \"#utility.yul\":6862:7371   */\n    tag_29:\n        /* \"#utility.yul\":6931:6937   */\n      0x00\n        /* \"#utility.yul\":6980:6982   */\n      0x20\n        /* \"#utility.yul\":6968:6977   */\n      dup3\n        /* \"#utility.yul\":6959:6966   */\n      dup5\n        /* \"#utility.yul\":6955:6978   */\n      sub\n        /* \"#utility.yul\":6951:6983   */\n      slt\n        /* \"#utility.yul\":6948:7067   */\n      iszero\n      tag_276\n      jumpi\n        /* \"#utility.yul\":6986:7065   */\n      tag_277\n      tag_125\n      jump\t// in\n    tag_277:\n        /* \"#utility.yul\":6948:7067   */\n    tag_276:\n        /* \"#utility.yul\":7134:7135   */\n      0x00\n        /* \"#utility.yul\":7123:7132   */\n      dup3\n        /* \"#utility.yul\":7119:7136   */\n      add\n        /* \"#utility.yul\":7106:7137   */\n      calldataload\n        /* \"#utility.yul\":7164:7182   */\n      0xffffffffffffffff\n        /* \"#utility.yul\":7156:7162   */\n      dup2\n        /* \"#utility.yul\":7153:7183   */\n      gt\n        /* \"#utility.yul\":7150:7267   */\n      iszero\n      tag_278\n      jumpi\n        /* \"#utility.yul\":7186:7265   */\n      tag_279\n      tag_126\n      jump\t// in\n    tag_279:\n        /* \"#utility.yul\":7150:7267   */\n    tag_278:\n        /* \"#utility.yul\":7291:7354   */\n      tag_280\n        /* \"#utility.yul\":7346:7353   */\n      dup5\n        /* \"#utility.yul\":7337:7343   */\n      dup3\n        /* \"#utility.yul\":7326:7335   */\n      dup6\n        /* \"#utility.yul\":7322:7344   */\n      add\n        /* \"#utility.yul\":7291:7354   */\n      tag_153\n      jump\t// in\n    tag_280:\n        /* \"#utility.yul\":7281:7354   */\n      swap2\n      pop\n        /* \"#utility.yul\":7077:7364   */\n      pop\n        /* \"#utility.yul\":6862:7371   */\n      swap3\n      swap2\n      pop\n      pop\n      jump\t// out\n        /* \"#utility.yul\":7377:7599   */\n    tag_34:\n        /* \"#utility.yul\":7470:7474   */\n      0x00\n        /* \"#utility.yul\":7508:7510   */\n      0x20\n        /* \"#utility.yul\":7497:7506   */\n      dup3\n        /* \"#utility.yul\":7493:7511   */\n      add\n        /* \"#utility.yul\":7485:7511   */\n      swap1\n      pop\n        /* \"#utility.yul\":7521:7592   */\n      tag_282\n        /* \"#utility.yul\":7589:7590   */\n      0x00\n        /* \"#utility.yul\":7578:7587   */\n      dup4\n        /* \"#utility.yul\":7574:7591   */\n      add\n        /* \"#utility.yul\":7565:7571   */\n      dup5\n        /* \"#utility.yul\":7521:7592   */\n      tag_135\n      jump\t// in\n    tag_282:\n        /* \"#utility.yul\":7377:7599   */\n      swap3\n      swap2\n      pop\n      pop\n      jump\t// out\n        /* \"#utility.yul\":7605:8079   */\n    tag_37:\n        /* \"#utility.yul\":7673:7679   */\n      0x00\n        /* \"#utility.yul\":7681:7687   */\n      dup1\n        /* \"#utility.yul\":7730:7732   */\n      0x40\n        /* \"#utility.yul\":7718:7727   */\n      dup4\n        /* \"#utility.yul\":7709:7716   */\n      dup6\n        /* \"#utility.yul\":7705:7728   */\n      sub\n        /* \"#utility.yul\":7701:7733   */\n      slt\n        /* \"#utility.yul\":7698:7817   */\n      iszero\n      tag_284\n      jumpi\n        /* \"#utility.yul\":7736:7815   */\n      tag_285\n      tag_125\n      jump\t// in\n    tag_285:\n        /* \"#utility.yul\":7698:7817   */\n    tag_284:\n        /* \"#utility.yul\":7856:7857   */\n      0x00\n        /* \"#utility.yul\":7881:7934   */\n      tag_286\n        /* \"#utility.yul\":7926:7933   */\n      dup6\n        /* \"#utility.yul\":7917:7923   */\n      dup3\n        /* \"#utility.yul\":7906:7915   */\n      dup7\n        /* \"#utility.yul\":7902:7924   */\n      add\n        /* \"#utility.yul\":7881:7934   */\n      tag_133\n      jump\t// in\n    tag_286:\n        /* \"#utility.yul\":7871:7934   */\n      swap3\n      pop\n        /* \"#utility.yul\":7827:7944   */\n      pop\n        /* \"#utility.yul\":7983:7985   */\n      0x20\n        /* \"#utility.yul\":8009:8062   */\n      tag_287\n        /* \"#utility.yul\":8054:8061   */\n      dup6\n        /* \"#utility.yul\":8045:8051   */\n      dup3\n        /* \"#utility.yul\":8034:8043   */\n      dup7\n        /* \"#utility.yul\":8030:8052   */\n      add\n        /* \"#utility.yul\":8009:8062   */\n      tag_130\n      jump\t// in\n    tag_287:\n        /* \"#utility.yul\":7999:8062   */\n      swap2\n      pop\n        /* \"#utility.yul\":7954:8072   */\n      pop\n        /* \"#utility.yul\":7605:8079   */\n      swap3\n      pop\n      swap3\n      swap1\n      pop\n      jump\t// out\n        /* \"#utility.yul\":8085:8414   */\n    tag_41:\n        /* \"#utility.yul\":8144:8150   */\n      0x00\n        /* \"#utility.yul\":8193:8195   */\n      0x20\n        /* \"#utility.yul\":8181:8190   */\n      dup3\n        /* \"#utility.yul\":8172:8179   */\n      dup5\n        /* \"#utility.yul\":8168:8191   */\n      sub\n        /* \"#utility.yul\":8164:8196   */\n      slt\n        /* \"#utility.yul\":8161:8280   */\n      iszero\n      tag_289\n      jumpi\n        /* \"#utility.yul\":8199:8278   */\n      tag_290\n      tag_125\n      jump\t// in\n    tag_290:\n        /* \"#utility.yul\":8161:8280   */\n    tag_289:\n        /* \"#utility.yul\":8319:8320   */\n      0x00\n        /* \"#utility.yul\":8344:8397   */\n      tag_291\n        /* \"#utility.yul\":8389:8396   */\n      dup5\n        /* \"#utility.yul\":8380:8386   */\n      dup3\n        /* \"#utility.yul\":8369:8378   */\n      dup6\n        /* \"#utility.yul\":8365:8387   */\n      add\n        /* \"#utility.yul\":8344:8397   */\n      tag_130\n      jump\t// in\n    tag_291:\n        /* \"#utility.yul\":8334:8397   */\n      swap2\n      pop\n        /* \"#utility.yul\":8290:8407   */\n      pop\n        /* \"#utility.yul\":8085:8414   */\n      swap3\n      swap2\n      pop\n      pop\n      jump\t// out\n        /* \"#utility.yul\":8420:8555   */\n    tag_154:\n        /* \"#utility.yul\":8508:8514   */\n      0x00\n        /* \"#utility.yul\":8542:8547   */\n      dup2\n        /* \"#utility.yul\":8536:8548   */\n      mload\n        /* \"#utility.yul\":8526:8548   */\n      swap1\n      pop\n        /* \"#utility.yul\":8420:8555   */\n      swap2\n      swap1\n      pop\n      jump\t// out\n        /* \"#utility.yul\":8561:8766   */\n    tag_155:\n        /* \"#utility.yul\":8681:8692   */\n      0x00\n        /* \"#utility.yul\":8715:8721   */\n      dup3\n        /* \"#utility.yul\":8710:8713   */\n      dup3\n        /* \"#utility.yul\":8703:8722   */\n      mstore\n        /* \"#utility.yul\":8755:8759   */\n      0x20\n        /* \"#utility.yul\":8750:8753   */\n      dup3\n        /* \"#utility.yul\":8746:8760   */\n      add\n        /* \"#utility.yul\":8731:8760   */\n      swap1\n      pop\n        /* \"#utility.yul\":8561:8766   */\n      swap3\n      swap2\n      pop\n      pop\n      jump\t// out\n        /* \"#utility.yul\":8772:8925   */\n    tag_156:\n        /* \"#utility.yul\":8860:8864   */\n      0x00\n        /* \"#utility.yul\":8883:8886   */\n      dup2\n        /* \"#utility.yul\":8875:8886   */\n      swap1\n      pop\n        /* \"#utility.yul\":8913:8917   */\n      0x20\n        /* \"#utility.yul\":8908:8911   */\n      dup3\n        /* \"#utility.yul\":8904:8918   */\n      add\n        /* \"#utility.yul\":8896:8918   */\n      swap1\n      pop\n        /* \"#utility.yul\":8772:8925   */\n      swap2\n      swap1\n      pop\n      jump\t// out\n        /* \"#utility.yul\":8931:9039   */\n    tag_157:\n        /* \"#utility.yul\":9008:9032   */\n      tag_296\n        /* \"#utility.yul\":9026:9031   */\n      dup2\n        /* \"#utility.yul\":9008:9032   */\n      tag_131\n      jump\t// in\n    tag_296:\n        /* \"#utility.yul\":9003:9006   */\n      dup3\n        /* \"#utility.yul\":8996:9033   */\n      mstore\n        /* \"#utility.yul\":8931:9039   */\n      pop\n      pop\n      jump\t// out\n        /* \"#utility.yul\":9045:9153   */\n    tag_158:\n        /* \"#utility.yul\":9122:9146   */\n      tag_298\n        /* \"#utility.yul\":9140:9145   */\n      dup2\n        /* \"#utility.yul\":9122:9146   */\n      tag_128\n      jump\t// in\n    tag_298:\n        /* \"#utility.yul\":9117:9120   */\n      dup3\n        /* \"#utility.yul\":9110:9147   */\n      mstore\n        /* \"#utility.yul\":9045:9153   */\n      pop\n      pop\n      jump\t// out\n        /* \"#utility.yul\":9159:9318   */\n    tag_159:\n        /* \"#utility.yul\":9233:9244   */\n      0x00\n        /* \"#utility.yul\":9267:9273   */\n      dup3\n        /* \"#utility.yul\":9262:9265   */\n      dup3\n        /* \"#utility.yul\":9255:9274   */\n      mstore\n        /* \"#utility.yul\":9307:9311   */\n      0x20\n        /* \"#utility.yul\":9302:9305   */\n      dup3\n        /* \"#utility.yul\":9298:9312   */\n      add\n        /* \"#utility.yul\":9283:9312   */\n      swap1\n      pop\n        /* \"#utility.yul\":9159:9318   */\n      swap3\n      swap2\n      pop\n      pop\n      jump\t// out\n        /* \"#utility.yul\":9324:9681   */\n    tag_160:\n        /* \"#utility.yul\":9402:9405   */\n      0x00\n        /* \"#utility.yul\":9430:9469   */\n      tag_301\n        /* \"#utility.yul\":9463:9468   */\n      dup3\n        /* \"#utility.yul\":9430:9469   */\n      tag_136\n      jump\t// in\n    tag_301:\n        /* \"#utility.yul\":9485:9546   */\n      tag_302\n        /* \"#utility.yul\":9539:9545   */\n      dup2\n        /* \"#utility.yul\":9534:9537   */\n      dup6\n        /* \"#utility.yul\":9485:9546   */\n      tag_159\n      jump\t// in\n    tag_302:\n        /* \"#utility.yul\":9478:9546   */\n      swap4\n      pop\n        /* \"#utility.yul\":9555:9620   */\n      tag_303\n        /* \"#utility.yul\":9613:9619   */\n      dup2\n        /* \"#utility.yul\":9608:9611   */\n      dup6\n        /* \"#utility.yul\":9601:9605   */\n      0x20\n        /* \"#utility.yul\":9594:9599   */\n      dup7\n        /* \"#utility.yul\":9590:9606   */\n      add\n        /* \"#utility.yul\":9555:9620   */\n      tag_138\n      jump\t// in\n    tag_303:\n        /* \"#utility.yul\":9645:9674   */\n      tag_304\n        /* \"#utility.yul\":9667:9673   */\n      dup2\n        /* \"#utility.yul\":9645:9674   */\n      tag_139\n      jump\t// in\n    tag_304:\n        /* \"#utility.yul\":9640:9643   */\n      dup5\n        /* \"#utility.yul\":9636:9675   */\n      add\n        /* \"#utility.yul\":9629:9675   */\n      swap2\n      pop\n        /* \"#utility.yul\":9406:9681   */\n      pop\n        /* \"#utility.yul\":9324:9681   */\n      swap3\n      swap2\n      pop\n      pop\n      jump\t// out\n        /* \"#utility.yul\":9739:10858   */\n    tag_161:\n        /* \"#utility.yul\":9840:9843   */\n      0x00\n        /* \"#utility.yul\":9876:9880   */\n      0xa0\n        /* \"#utility.yul\":9871:9874   */\n      dup4\n        /* \"#utility.yul\":9867:9881   */\n      add\n        /* \"#utility.yul\":9961:9965   */\n      0x00\n        /* \"#utility.yul\":9954:9959   */\n      dup4\n        /* \"#utility.yul\":9950:9966   */\n      add\n        /* \"#utility.yul\":9944:9967   */\n      mload\n        /* \"#utility.yul\":9980:10043   */\n      tag_306\n        /* \"#utility.yul\":10037:10041   */\n      0x00\n        /* \"#utility.yul\":10032:10035   */\n      dup7\n        /* \"#utility.yul\":10028:10042   */\n      add\n        /* \"#utility.yul\":10014:10026   */\n      dup3\n        /* \"#utility.yul\":9980:10043   */\n      tag_157\n      jump\t// in\n    tag_306:\n        /* \"#utility.yul\":9891:10053   */\n      pop\n        /* \"#utility.yul\":10137:10141   */\n      0x20\n        /* \"#utility.yul\":10130:10135   */\n      dup4\n        /* \"#utility.yul\":10126:10142   */\n      add\n        /* \"#utility.yul\":10120:10143   */\n      mload\n        /* \"#utility.yul\":10156:10219   */\n      tag_307\n        /* \"#utility.yul\":10213:10217   */\n      0x20\n        /* \"#utility.yul\":10208:10211   */\n      dup7\n        /* \"#utility.yul\":10204:10218   */\n      add\n        /* \"#utility.yul\":10190:10202   */\n      dup3\n        /* \"#utility.yul\":10156:10219   */\n      tag_158\n      jump\t// in\n    tag_307:\n        /* \"#utility.yul\":10063:10229   */\n      pop\n        /* \"#utility.yul\":10314:10318   */\n      0x40\n        /* \"#utility.yul\":10307:10312   */\n      dup4\n        /* \"#utility.yul\":10303:10319   */\n      add\n        /* \"#utility.yul\":10297:10320   */\n      mload\n        /* \"#utility.yul\":10367:10370   */\n      dup5\n        /* \"#utility.yul\":10361:10365   */\n      dup3\n        /* \"#utility.yul\":10357:10371   */\n      sub\n        /* \"#utility.yul\":10350:10354   */\n      0x40\n        /* \"#utility.yul\":10345:10348   */\n      dup7\n        /* \"#utility.yul\":10341:10355   */\n      add\n        /* \"#utility.yul\":10334:10372   */\n      mstore\n        /* \"#utility.yul\":10393:10466   */\n      tag_308\n        /* \"#utility.yul\":10461:10465   */\n      dup3\n        /* \"#utility.yul\":10447:10459   */\n      dup3\n        /* \"#utility.yul\":10393:10466   */\n      tag_160\n      jump\t// in\n    tag_308:\n        /* \"#utility.yul\":10385:10466   */\n      swap2\n      pop\n        /* \"#utility.yul\":10239:10477   */\n      pop\n        /* \"#utility.yul\":10564:10568   */\n      0x60\n        /* \"#utility.yul\":10557:10562   */\n      dup4\n        /* \"#utility.yul\":10553:10569   */\n      add\n        /* \"#utility.yul\":10547:10570   */\n      mload\n        /* \"#utility.yul\":10583:10646   */\n      tag_309\n        /* \"#utility.yul\":10640:10644   */\n      0x60\n        /* \"#utility.yul\":10635:10638   */\n      dup7\n        /* \"#utility.yul\":10631:10645   */\n      add\n        /* \"#utility.yul\":10617:10629   */\n      dup3\n        /* \"#utility.yul\":10583:10646   */\n      tag_157\n      jump\t// in\n    tag_309:\n        /* \"#utility.yul\":10487:10656   */\n      pop\n        /* \"#utility.yul\":10739:10743   */\n      0x80\n        /* \"#utility.yul\":10732:10737   */\n      dup4\n        /* \"#utility.yul\":10728:10744   */\n      add\n        /* \"#utility.yul\":10722:10745   */\n      mload\n        /* \"#utility.yul\":10758:10821   */\n      tag_310\n        /* \"#utility.yul\":10815:10819   */\n      0x80\n        /* \"#utility.yul\":10810:10813   */\n      dup7\n        /* \"#utility.yul\":10806:10820   */\n      add\n        /* \"#utility.yul\":10792:10804   */\n      dup3\n        /* \"#utility.yul\":10758:10821   */\n      tag_157\n      jump\t// in\n    tag_310:\n        /* \"#utility.yul\":10666:10831   */\n      pop\n        /* \"#utility.yul\":10848:10852   */\n      dup1\n        /* \"#utility.yul\":10841:10852   */\n      swap2\n      pop\n        /* \"#utility.yul\":9845:10858   */\n      pop\n        /* \"#utility.yul\":9739:10858   */\n      swap3\n      swap2\n      pop\n      pop\n      jump\t// out\n        /* \"#utility.yul\":10864:11104   */\n    tag_162:\n        /* \"#utility.yul\":10975:10985   */\n      0x00\n        /* \"#utility.yul\":11010:11098   */\n      tag_312\n        /* \"#utility.yul\":11094:11097   */\n      dup4\n        /* \"#utility.yul\":11086:11092   */\n      dup4\n        /* \"#utility.yul\":11010:11098   */\n      tag_161\n      jump\t// in\n    tag_312:\n        /* \"#utility.yul\":10996:11098   */\n      swap1\n      pop\n        /* \"#utility.yul\":10864:11104   */\n      swap3\n      swap2\n      pop\n      pop\n      jump\t// out\n        /* \"#utility.yul\":11110:11244   */\n    tag_163:\n        /* \"#utility.yul\":11201:11205   */\n      0x00\n        /* \"#utility.yul\":11233:11237   */\n      0x20\n        /* \"#utility.yul\":11228:11231   */\n      dup3\n        /* \"#utility.yul\":11224:11238   */\n      add\n        /* \"#utility.yul\":11216:11238   */\n      swap1\n      pop\n        /* \"#utility.yul\":11110:11244   */\n      swap2\n      swap1\n      pop\n      jump\t// out\n        /* \"#utility.yul\":11306:12385   */\n    tag_164:\n        /* \"#utility.yul\":11467:11470   */\n      0x00\n        /* \"#utility.yul\":11496:11571   */\n      tag_315\n        /* \"#utility.yul\":11565:11570   */\n      dup3\n        /* \"#utility.yul\":11496:11571   */\n      tag_154\n      jump\t// in\n    tag_315:\n        /* \"#utility.yul\":11587:11694   */\n      tag_316\n        /* \"#utility.yul\":11687:11693   */\n      dup2\n        /* \"#utility.yul\":11682:11685   */\n      dup6\n        /* \"#utility.yul\":11587:11694   */\n      tag_155\n      jump\t// in\n    tag_316:\n        /* \"#utility.yul\":11580:11694   */\n      swap4\n      pop\n        /* \"#utility.yul\":11720:11723   */\n      dup4\n        /* \"#utility.yul\":11765:11769   */\n      0x20\n        /* \"#utility.yul\":11757:11763   */\n      dup3\n        /* \"#utility.yul\":11753:11770   */\n      mul\n        /* \"#utility.yul\":11748:11751   */\n      dup6\n        /* \"#utility.yul\":11744:11771   */\n      add\n        /* \"#utility.yul\":11795:11872   */\n      tag_317\n        /* \"#utility.yul\":11866:11871   */\n      dup6\n        /* \"#utility.yul\":11795:11872   */\n      tag_156\n      jump\t// in\n    tag_317:\n        /* \"#utility.yul\":11895:11902   */\n      dup1\n        /* \"#utility.yul\":11926:11927   */\n      0x00\n        /* \"#utility.yul\":11911:12340   */\n    tag_318:\n        /* \"#utility.yul\":11936:11942   */\n      dup6\n        /* \"#utility.yul\":11933:11934   */\n      dup2\n        /* \"#utility.yul\":11930:11943   */\n      lt\n        /* \"#utility.yul\":11911:12340   */\n      iszero\n      tag_320\n      jumpi\n        /* \"#utility.yul\":12007:12016   */\n      dup5\n        /* \"#utility.yul\":12001:12005   */\n      dup5\n        /* \"#utility.yul\":11997:12017   */\n      sub\n        /* \"#utility.yul\":11992:11995   */\n      dup10\n        /* \"#utility.yul\":11985:12018   */\n      mstore\n        /* \"#utility.yul\":12058:12064   */\n      dup2\n        /* \"#utility.yul\":12052:12065   */\n      mload\n        /* \"#utility.yul\":12086:12192   */\n      tag_321\n        /* \"#utility.yul\":12187:12191   */\n      dup6\n        /* \"#utility.yul\":12172:12185   */\n      dup3\n        /* \"#utility.yul\":12086:12192   */\n      tag_162\n      jump\t// in\n    tag_321:\n        /* \"#utility.yul\":12078:12192   */\n      swap5\n      pop\n        /* \"#utility.yul\":12215:12296   */\n      tag_322\n        /* \"#utility.yul\":12289:12295   */\n      dup4\n        /* \"#utility.yul\":12215:12296   */\n      tag_163\n      jump\t// in\n    tag_322:\n        /* \"#utility.yul\":12205:12296   */\n      swap3\n      pop\n        /* \"#utility.yul\":12325:12329   */\n      0x20\n        /* \"#utility.yul\":12320:12323   */\n      dup11\n        /* \"#utility.yul\":12316:12330   */\n      add\n        /* \"#utility.yul\":12309:12330   */\n      swap10\n      pop\n        /* \"#utility.yul\":11971:12340   */\n      pop\n        /* \"#utility.yul\":11958:11959   */\n      0x01\n        /* \"#utility.yul\":11955:11956   */\n      dup2\n        /* \"#utility.yul\":11951:11960   */\n      add\n        /* \"#utility.yul\":11946:11960   */\n      swap1\n      pop\n        /* \"#utility.yul\":11911:12340   */\n      jump(tag_318)\n    tag_320:\n        /* \"#utility.yul\":11915:11929   */\n      pop\n        /* \"#utility.yul\":12356:12360   */\n      dup3\n        /* \"#utility.yul\":12349:12360   */\n      swap8\n      pop\n        /* \"#utility.yul\":12376:12379   */\n      dup8\n        /* \"#utility.yul\":12369:12379   */\n      swap6\n      pop\n        /* \"#utility.yul\":11472:12385   */\n      pop\n      pop\n      pop\n      pop\n      pop\n        /* \"#utility.yul\":11306:12385   */\n      swap3\n      swap2\n      pop\n      pop\n      jump\t// out\n        /* \"#utility.yul\":12391:12848   */\n    tag_44:\n        /* \"#utility.yul\":12576:12580   */\n      0x00\n        /* \"#utility.yul\":12614:12616   */\n      0x20\n        /* \"#utility.yul\":12603:12612   */\n      dup3\n        /* \"#utility.yul\":12599:12617   */\n      add\n        /* \"#utility.yul\":12591:12617   */\n      swap1\n      pop\n        /* \"#utility.yul\":12663:12672   */\n      dup2\n        /* \"#utility.yul\":12657:12661   */\n      dup2\n        /* \"#utility.yul\":12653:12673   */\n      sub\n        /* \"#utility.yul\":12649:12650   */\n      0x00\n        /* \"#utility.yul\":12638:12647   */\n      dup4\n        /* \"#utility.yul\":12634:12651   */\n      add\n        /* \"#utility.yul\":12627:12674   */\n      mstore\n        /* \"#utility.yul\":12691:12841   */\n      tag_324\n        /* \"#utility.yul\":12836:12840   */\n      dup2\n        /* \"#utility.yul\":12827:12833   */\n      dup5\n        /* \"#utility.yul\":12691:12841   */\n      tag_164\n      jump\t// in\n    tag_324:\n        /* \"#utility.yul\":12683:12841   */\n      swap1\n      pop\n        /* \"#utility.yul\":12391:12848   */\n      swap3\n      swap2\n      pop\n      pop\n      jump\t// out\n        /* \"#utility.yul\":12854:13183   */\n    tag_47:\n        /* \"#utility.yul\":12913:12919   */\n      0x00\n        /* \"#utility.yul\":12962:12964   */\n      0x20\n        /* \"#utility.yul\":12950:12959   */\n      dup3\n        /* \"#utility.yul\":12941:12948   */\n      dup5\n        /* \"#utility.yul\":12937:12960   */\n      sub\n        /* \"#utility.yul\":12933:12965   */\n      slt\n        /* \"#utility.yul\":12930:13049   */\n      iszero\n      tag_326\n      jumpi\n        /* \"#utility.yul\":12968:13047   */\n      tag_327\n      tag_125\n      jump\t// in\n    tag_327:\n        /* \"#utility.yul\":12930:13049   */\n    tag_326:\n        /* \"#utility.yul\":13088:13089   */\n      0x00\n        /* \"#utility.yul\":13113:13166   */\n      tag_328\n        /* \"#utility.yul\":13158:13165   */\n      dup5\n        /* \"#utility.yul\":13149:13155   */\n      dup3\n        /* \"#utility.yul\":13138:13147   */\n      dup6\n        /* \"#utility.yul\":13134:13156   */\n      add\n        /* \"#utility.yul\":13113:13166   */\n      tag_133\n      jump\t// in\n    tag_328:\n        /* \"#utility.yul\":13103:13166   */\n      swap2\n      pop\n        /* \"#utility.yul\":13059:13176   */\n      pop\n        /* \"#utility.yul\":12854:13183   */\n      swap3\n      swap2\n      pop\n      pop\n      jump\t// out\n        /* \"#utility.yul\":13241:14370   */\n    tag_165:\n        /* \"#utility.yul\":13352:13355   */\n      0x00\n        /* \"#utility.yul\":13388:13392   */\n      0xa0\n        /* \"#utility.yul\":13383:13386   */\n      dup4\n        /* \"#utility.yul\":13379:13393   */\n      add\n        /* \"#utility.yul\":13473:13477   */\n      0x00\n        /* \"#utility.yul\":13466:13471   */\n      dup4\n        /* \"#utility.yul\":13462:13478   */\n      add\n        /* \"#utility.yul\":13456:13479   */\n      mload\n        /* \"#utility.yul\":13492:13555   */\n      tag_330\n        /* \"#utility.yul\":13549:13553   */\n      0x00\n        /* \"#utility.yul\":13544:13547   */\n      dup7\n        /* \"#utility.yul\":13540:13554   */\n      add\n        /* \"#utility.yul\":13526:13538   */\n      dup3\n        /* \"#utility.yul\":13492:13555   */\n      tag_157\n      jump\t// in\n    tag_330:\n        /* \"#utility.yul\":13403:13565   */\n      pop\n        /* \"#utility.yul\":13649:13653   */\n      0x20\n        /* \"#utility.yul\":13642:13647   */\n      dup4\n        /* \"#utility.yul\":13638:13654   */\n      add\n        /* \"#utility.yul\":13632:13655   */\n      mload\n        /* \"#utility.yul\":13668:13731   */\n      tag_331\n        /* \"#utility.yul\":13725:13729   */\n      0x20\n        /* \"#utility.yul\":13720:13723   */\n      dup7\n        /* \"#utility.yul\":13716:13730   */\n      add\n        /* \"#utility.yul\":13702:13714   */\n      dup3\n        /* \"#utility.yul\":13668:13731   */\n      tag_158\n      jump\t// in\n    tag_331:\n        /* \"#utility.yul\":13575:13741   */\n      pop\n        /* \"#utility.yul\":13826:13830   */\n      0x40\n        /* \"#utility.yul\":13819:13824   */\n      dup4\n        /* \"#utility.yul\":13815:13831   */\n      add\n        /* \"#utility.yul\":13809:13832   */\n      mload\n        /* \"#utility.yul\":13879:13882   */\n      dup5\n        /* \"#utility.yul\":13873:13877   */\n      dup3\n        /* \"#utility.yul\":13869:13883   */\n      sub\n        /* \"#utility.yul\":13862:13866   */\n      0x40\n        /* \"#utility.yul\":13857:13860   */\n      dup7\n        /* \"#utility.yul\":13853:13867   */\n      add\n        /* \"#utility.yul\":13846:13884   */\n      mstore\n        /* \"#utility.yul\":13905:13978   */\n      tag_332\n        /* \"#utility.yul\":13973:13977   */\n      dup3\n        /* \"#utility.yul\":13959:13971   */\n      dup3\n        /* \"#utility.yul\":13905:13978   */\n      tag_160\n      jump\t// in\n    tag_332:\n        /* \"#utility.yul\":13897:13978   */\n      swap2\n      pop\n        /* \"#utility.yul\":13751:13989   */\n      pop\n        /* \"#utility.yul\":14076:14080   */\n      0x60\n        /* \"#utility.yul\":14069:14074   */\n      dup4\n        /* \"#utility.yul\":14065:14081   */\n      add\n        /* \"#utility.yul\":14059:14082   */\n      mload\n        /* \"#utility.yul\":14095:14158   */\n      tag_333\n        /* \"#utility.yul\":14152:14156   */\n      0x60\n        /* \"#utility.yul\":14147:14150   */\n      dup7\n        /* \"#utility.yul\":14143:14157   */\n      add\n        /* \"#utility.yul\":14129:14141   */\n      dup3\n        /* \"#utility.yul\":14095:14158   */\n      tag_157\n      jump\t// in\n    tag_333:\n        /* \"#utility.yul\":13999:14168   */\n      pop\n        /* \"#utility.yul\":14251:14255   */\n      0x80\n        /* \"#utility.yul\":14244:14249   */\n      dup4\n        /* \"#utility.yul\":14240:14256   */\n      add\n        /* \"#utility.yul\":14234:14257   */\n      mload\n        /* \"#utility.yul\":14270:14333   */\n      tag_334\n        /* \"#utility.yul\":14327:14331   */\n      0x80\n        /* \"#utility.yul\":14322:14325   */\n      dup7\n        /* \"#utility.yul\":14318:14332   */\n      add\n        /* \"#utility.yul\":14304:14316   */\n      dup3\n        /* \"#utility.yul\":14270:14333   */\n      tag_157\n      jump\t// in\n    tag_334:\n        /* \"#utility.yul\":14178:14343   */\n      pop\n        /* \"#utility.yul\":14360:14364   */\n      dup1\n        /* \"#utility.yul\":14353:14364   */\n      swap2\n      pop\n        /* \"#utility.yul\":13357:14370   */\n      pop\n        /* \"#utility.yul\":13241:14370   */\n      swap3\n      swap2\n      pop\n      pop\n      jump\t// out\n        /* \"#utility.yul\":14376:14733   */\n    tag_50:\n        /* \"#utility.yul\":14511:14515   */\n      0x00\n        /* \"#utility.yul\":14549:14551   */\n      0x20\n        /* \"#utility.yul\":14538:14547   */\n      dup3\n        /* \"#utility.yul\":14534:14552   */\n      add\n        /* \"#utility.yul\":14526:14552   */\n      swap1\n      pop\n        /* \"#utility.yul\":14598:14607   */\n      dup2\n        /* \"#utility.yul\":14592:14596   */\n      dup2\n        /* \"#utility.yul\":14588:14608   */\n      sub\n        /* \"#utility.yul\":14584:14585   */\n      0x00\n        /* \"#utility.yul\":14573:14582   */\n      dup4\n        /* \"#utility.yul\":14569:14586   */\n      add\n        /* \"#utility.yul\":14562:14609   */\n      mstore\n        /* \"#utility.yul\":14626:14726   */\n      tag_336\n        /* \"#utility.yul\":14721:14725   */\n      dup2\n        /* \"#utility.yul\":14712:14718   */\n      dup5\n        /* \"#utility.yul\":14626:14726   */\n      tag_165\n      jump\t// in\n    tag_336:\n        /* \"#utility.yul\":14618:14726   */\n      swap1\n      pop\n        /* \"#utility.yul\":14376:14733   */\n      swap3\n      swap2\n      pop\n      pop\n      jump\t// out\n        /* \"#utility.yul\":14739:14919   */\n    tag_166:\n        /* \"#utility.yul\":14787:14864   */\n      0x4e487b7100000000000000000000000000000000000000000000000000000000\n        /* \"#utility.yul\":14784:14785   */\n      0x00\n        /* \"#utility.yul\":14777:14865   */\n      mstore\n        /* \"#utility.yul\":14884:14888   */\n      0x22\n        /* \"#utility.yul\":14881:14882   */\n      0x04\n        /* \"#utility.yul\":14874:14889   */\n      mstore\n        /* \"#utility.yul\":14908:14912   */\n      0x24\n        /* \"#utility.yul\":14905:14906   */\n      0x00\n        /* \"#utility.yul\":14898:14913   */\n      revert\n        /* \"#utility.yul\":14925:15245   */\n    tag_57:\n        /* \"#utility.yul\":14969:14975   */\n      0x00\n        /* \"#utility.yul\":15006:15007   */\n      0x02\n        /* \"#utility.yul\":15000:15004   */\n      dup3\n        /* \"#utility.yul\":14996:15008   */\n      div\n        /* \"#utility.yul\":14986:15008   */\n      swap1\n      pop\n        /* \"#utility.yul\":15053:15054   */\n      0x01\n        /* \"#utility.yul\":15047:15051   */\n      dup3\n        /* \"#utility.yul\":15043:15055   */\n      and\n        /* \"#utility.yul\":15074:15092   */\n      dup1\n        /* \"#utility.yul\":15064:15145   */\n      tag_339\n      jumpi\n        /* \"#utility.yul\":15130:15134   */\n      0x7f\n        /* \"#utility.yul\":15122:15128   */\n      dup3\n        /* \"#utility.yul\":15118:15135   */\n      and\n        /* \"#utility.yul\":15108:15135   */\n      swap2\n      pop\n        /* \"#utility.yul\":15064:15145   */\n    tag_339:\n        /* \"#utility.yul\":15192:15194   */\n      0x20\n        /* \"#utility.yul\":15184:15190   */\n      dup3\n        /* \"#utility.yul\":15181:15195   */\n      lt\n        /* \"#utility.yul\":15161:15179   */\n      dup2\n        /* \"#utility.yul\":15158:15196   */\n      sub\n        /* \"#utility.yul\":15155:15239   */\n      tag_340\n      jumpi\n        /* \"#utility.yul\":15211:15229   */\n      tag_341\n      tag_166\n      jump\t// in\n    tag_341:\n        /* \"#utility.yul\":15155:15239   */\n    tag_340:\n        /* \"#utility.yul\":14976:15245   */\n      pop\n        /* \"#utility.yul\":14925:15245   */\n      swap2\n      swap1\n      pop\n      jump\t// out\n        /* \"#utility.yul\":15251:15422   */\n    tag_167:\n        /* \"#utility.yul\":15391:15414   */\n      0x594f5520415245204e4f5420544845204f574e45520000000000000000000000\n        /* \"#utility.yul\":15387:15388   */\n      0x00\n        /* \"#utility.yul\":15379:15385   */\n      dup3\n        /* \"#utility.yul\":15375:15389   */\n      add\n        /* \"#utility.yul\":15368:15415   */\n      mstore\n        /* \"#utility.yul\":15251:15422   */\n      pop\n      jump\t// out\n        /* \"#utility.yul\":15428:15794   */\n    tag_168:\n        /* \"#utility.yul\":15570:15573   */\n      0x00\n        /* \"#utility.yul\":15591:15658   */\n      tag_344\n        /* \"#utility.yul\":15655:15657   */\n      0x15\n        /* \"#utility.yul\":15650:15653   */\n      dup4\n        /* \"#utility.yul\":15591:15658   */\n      tag_137\n      jump\t// in\n    tag_344:\n        /* \"#utility.yul\":15584:15658   */\n      swap2\n      pop\n        /* \"#utility.yul\":15667:15760   */\n      tag_345\n        /* \"#utility.yul\":15756:15759   */\n      dup3\n        /* \"#utility.yul\":15667:15760   */\n      tag_167\n      jump\t// in\n    tag_345:\n        /* \"#utility.yul\":15785:15787   */\n      0x20\n        /* \"#utility.yul\":15780:15783   */\n      dup3\n        /* \"#utility.yul\":15776:15788   */\n      add\n        /* \"#utility.yul\":15769:15788   */\n      swap1\n      pop\n        /* \"#utility.yul\":15428:15794   */\n      swap2\n      swap1\n      pop\n      jump\t// out\n        /* \"#utility.yul\":15800:16219   */\n    tag_65:\n        /* \"#utility.yul\":15966:15970   */\n      0x00\n        /* \"#utility.yul\":16004:16006   */\n      0x20\n        /* \"#utility.yul\":15993:16002   */\n      dup3\n        /* \"#utility.yul\":15989:16007   */\n      add\n        /* \"#utility.yul\":15981:16007   */\n      swap1\n      pop\n        /* \"#utility.yul\":16053:16062   */\n      dup2\n        /* \"#utility.yul\":16047:16051   */\n      dup2\n        /* \"#utility.yul\":16043:16063   */\n      sub\n        /* \"#utility.yul\":16039:16040   */\n      0x00\n        /* \"#utility.yul\":16028:16037   */\n      dup4\n        /* \"#utility.yul\":16024:16041   */\n      add\n        /* \"#utility.yul\":16017:16064   */\n      mstore\n        /* \"#utility.yul\":16081:16212   */\n      tag_347\n        /* \"#utility.yul\":16207:16211   */\n      dup2\n        /* \"#utility.yul\":16081:16212   */\n      tag_168\n      jump\t// in\n    tag_347:\n        /* \"#utility.yul\":16073:16212   */\n      swap1\n      pop\n        /* \"#utility.yul\":15800:16219   */\n      swap2\n      swap1\n      pop\n      jump\t// out\n        /* \"#utility.yul\":16225:16393   */\n    tag_169:\n        /* \"#utility.yul\":16365:16385   */\n      0x547765657420697320746f6f206c6f6e67210000000000000000000000000000\n        /* \"#utility.yul\":16361:16362   */\n      0x00\n        /* \"#utility.yul\":16353:16359   */\n      dup3\n        /* \"#utility.yul\":16349:16363   */\n      add\n        /* \"#utility.yul\":16342:16386   */\n      mstore\n        /* \"#utility.yul\":16225:16393   */\n      pop\n      jump\t// out\n        /* \"#utility.yul\":16399:16765   */\n    tag_170:\n        /* \"#utility.yul\":16541:16544   */\n      0x00\n        /* \"#utility.yul\":16562:16629   */\n      tag_350\n        /* \"#utility.yul\":16626:16628   */\n      0x12\n        /* \"#utility.yul\":16621:16624   */\n      dup4\n        /* \"#utility.yul\":16562:16629   */\n      tag_137\n      jump\t// in\n    tag_350:\n        /* \"#utility.yul\":16555:16629   */\n      swap2\n      pop\n        /* \"#utility.yul\":16638:16731   */\n      tag_351\n        /* \"#utility.yul\":16727:16730   */\n      dup3\n        /* \"#utility.yul\":16638:16731   */\n      tag_169\n      jump\t// in\n    tag_351:\n        /* \"#utility.yul\":16756:16758   */\n      0x20\n        /* \"#utility.yul\":16751:16754   */\n      dup3\n        /* \"#utility.yul\":16747:16759   */\n      add\n        /* \"#utility.yul\":16740:16759   */\n      swap1\n      pop\n        /* \"#utility.yul\":16399:16765   */\n      swap2\n      swap1\n      pop\n      jump\t// out\n        /* \"#utility.yul\":16771:17190   */\n    tag_70:\n        /* \"#utility.yul\":16937:16941   */\n      0x00\n        /* \"#utility.yul\":16975:16977   */\n      0x20\n        /* \"#utility.yul\":16964:16973   */\n      dup3\n        /* \"#utility.yul\":16960:16978   */\n      add\n        /* \"#utility.yul\":16952:16978   */\n      swap1\n      pop\n        /* \"#utility.yul\":17024:17033   */\n      dup2\n        /* \"#utility.yul\":17018:17022   */\n      dup2\n        /* \"#utility.yul\":17014:17034   */\n      sub\n        /* \"#utility.yul\":17010:17011   */\n      0x00\n        /* \"#utility.yul\":16999:17008   */\n      dup4\n        /* \"#utility.yul\":16995:17012   */\n      add\n        /* \"#utility.yul\":16988:17035   */\n      mstore\n        /* \"#utility.yul\":17052:17183   */\n      tag_353\n        /* \"#utility.yul\":17178:17182   */\n      dup2\n        /* \"#utility.yul\":17052:17183   */\n      tag_170\n      jump\t// in\n    tag_353:\n        /* \"#utility.yul\":17044:17183   */\n      swap1\n      pop\n        /* \"#utility.yul\":16771:17190   */\n      swap2\n      swap1\n      pop\n      jump\t// out\n        /* \"#utility.yul\":17196:17337   */\n    tag_171:\n        /* \"#utility.yul\":17245:17249   */\n      0x00\n        /* \"#utility.yul\":17268:17271   */\n      dup2\n        /* \"#utility.yul\":17260:17271   */\n      swap1\n      pop\n        /* \"#utility.yul\":17291:17294   */\n      dup2\n        /* \"#utility.yul\":17288:17289   */\n      0x00\n        /* \"#utility.yul\":17281:17295   */\n      mstore\n        /* \"#utility.yul\":17325:17329   */\n      0x20\n        /* \"#utility.yul\":17322:17323   */\n      0x00\n        /* \"#utility.yul\":17312:17330   */\n      keccak256\n        /* \"#utility.yul\":17304:17330   */\n      swap1\n      pop\n        /* \"#utility.yul\":17196:17337   */\n      swap2\n      swap1\n      pop\n      jump\t// out\n        /* \"#utility.yul\":17343:17436   */\n    tag_172:\n        /* \"#utility.yul\":17380:17386   */\n      0x00\n        /* \"#utility.yul\":17427:17429   */\n      0x20\n        /* \"#utility.yul\":17422:17424   */\n      0x1f\n        /* \"#utility.yul\":17415:17420   */\n      dup4\n        /* \"#utility.yul\":17411:17425   */\n      add\n        /* \"#utility.yul\":17407:17430   */\n      div\n        /* \"#utility.yul\":17397:17430   */\n      swap1\n      pop\n        /* \"#utility.yul\":17343:17436   */\n      swap2\n      swap1\n      pop\n      jump\t// out\n        /* \"#utility.yul\":17442:17549   */\n    tag_173:\n        /* \"#utility.yul\":17486:17494   */\n      0x00\n        /* \"#utility.yul\":17536:17541   */\n      dup3\n        /* \"#utility.yul\":17530:17534   */\n      dup3\n        /* \"#utility.yul\":17526:17542   */\n      shl\n        /* \"#utility.yul\":17505:17542   */\n      swap1\n      pop\n        /* \"#utility.yul\":17442:17549   */\n      swap3\n      swap2\n      pop\n      pop\n      jump\t// out\n        /* \"#utility.yul\":17555:17948   */\n    tag_174:\n        /* \"#utility.yul\":17624:17630   */\n      0x00\n        /* \"#utility.yul\":17674:17675   */\n      0x08\n        /* \"#utility.yul\":17662:17672   */\n      dup4\n        /* \"#utility.yul\":17658:17676   */\n      mul\n        /* \"#utility.yul\":17697:17794   */\n      tag_358\n        /* \"#utility.yul\":17727:17793   */\n      0xffffffffffffffffffffffffffffffffffffffffffffffffffffffffffffffff\n        /* \"#utility.yul\":17716:17725   */\n      dup3\n        /* \"#utility.yul\":17697:17794   */\n      tag_173\n      jump\t// in\n    tag_358:\n        /* \"#utility.yul\":17815:17854   */\n      tag_359\n        /* \"#utility.yul\":17845:17853   */\n      dup7\n        /* \"#utility.yul\":17834:17843   */\n      dup4\n        /* \"#utility.yul\":17815:17854   */\n      tag_173\n      jump\t// in\n    tag_359:\n        /* \"#utility.yul\":17803:17854   */\n      swap6\n      pop\n        /* \"#utility.yul\":17887:17891   */\n      dup1\n        /* \"#utility.yul\":17883:17892   */\n      not\n        /* \"#utility.yul\":17876:17881   */\n      dup5\n        /* \"#utility.yul\":17872:17893   */\n      and\n        /* \"#utility.yul\":17863:17893   */\n      swap4\n      pop\n        /* \"#utility.yul\":17936:17940   */\n      dup1\n        /* \"#utility.yul\":17926:17934   */\n      dup7\n        /* \"#utility.yul\":17922:17941   */\n      and\n        /* \"#utility.yul\":17915:17920   */\n      dup5\n        /* \"#utility.yul\":17912:17942   */\n      or\n        /* \"#utility.yul\":17902:17942   */\n      swap3\n      pop\n        /* \"#utility.yul\":17631:17948   */\n      pop\n      pop\n        /* \"#utility.yul\":17555:17948   */\n      swap4\n      swap3\n      pop\n      pop\n      pop\n      jump\t// out\n        /* \"#utility.yul\":17954:18014   */\n    tag_175:\n        /* \"#utility.yul\":17982:17985   */\n      0x00\n        /* \"#utility.yul\":18003:18008   */\n      dup2\n        /* \"#utility.yul\":17996:18008   */\n      swap1\n      pop\n        /* \"#utility.yul\":17954:18014   */\n      swap2\n      swap1\n      pop\n      jump\t// out\n        /* \"#utility.yul\":18020:18162   */\n    tag_176:\n        /* \"#utility.yul\":18070:18079   */\n      0x00\n        /* \"#utility.yul\":18103:18156   */\n      tag_362\n        /* \"#utility.yul\":18121:18155   */\n      tag_363\n        /* \"#utility.yul\":18130:18154   */\n      tag_364\n        /* \"#utility.yul\":18148:18153   */\n      dup5\n        /* \"#utility.yul\":18130:18154   */\n      tag_131\n      jump\t// in\n    tag_364:\n        /* \"#utility.yul\":18121:18155   */\n      tag_175\n      jump\t// in\n    tag_363:\n        /* \"#utility.yul\":18103:18156   */\n      tag_131\n      jump\t// in\n    tag_362:\n        /* \"#utility.yul\":18090:18156   */\n      swap1\n      pop\n        /* \"#utility.yul\":18020:18162   */\n      swap2\n      swap1\n      pop\n      jump\t// out\n        /* \"#utility.yul\":18168:18243   */\n    tag_177:\n        /* \"#utility.yul\":18211:18214   */\n      0x00\n        /* \"#utility.yul\":18232:18237   */\n      dup2\n        /* \"#utility.yul\":18225:18237   */\n      swap1\n      pop\n        /* \"#utility.yul\":18168:18243   */\n      swap2\n      swap1\n      pop\n      jump\t// out\n        /* \"#utility.yul\":18249:18518   */\n    tag_178:\n        /* \"#utility.yul\":18359:18398   */\n      tag_367\n        /* \"#utility.yul\":18390:18397   */\n      dup4\n        /* \"#utility.yul\":18359:18398   */\n      tag_176\n      jump\t// in\n    tag_367:\n        /* \"#utility.yul\":18420:18511   */\n      tag_368\n        /* \"#utility.yul\":18469:18510   */\n      tag_369\n        /* \"#utility.yul\":18493:18509   */\n      dup3\n        /* \"#utility.yul\":18469:18510   */\n      tag_177\n      jump\t// in\n    tag_369:\n        /* \"#utility.yul\":18461:18467   */\n      dup5\n        /* \"#utility.yul\":18454:18458   */\n      dup5\n        /* \"#utility.yul\":18448:18459   */\n      sload\n        /* \"#utility.yul\":18420:18511   */\n      tag_174\n      jump\t// in\n    tag_368:\n        /* \"#utility.yul\":18414:18418   */\n      dup3\n        /* \"#utility.yul\":18407:18512   */\n      sstore\n        /* \"#utility.yul\":18325:18518   */\n      pop\n        /* \"#utility.yul\":18249:18518   */\n      pop\n      pop\n      pop\n      jump\t// out\n        /* \"#utility.yul\":18524:18597   */\n    tag_179:\n        /* \"#utility.yul\":18569:18572   */\n      0x00\n        /* \"#utility.yul\":18524:18597   */\n      swap1\n      jump\t// out\n        /* \"#utility.yul\":18603:18792   */\n    tag_180:\n        /* \"#utility.yul\":18680:18712   */\n      tag_372\n      tag_179\n      jump\t// in\n    tag_372:\n        /* \"#utility.yul\":18721:18786   */\n      tag_373\n        /* \"#utility.yul\":18779:18785   */\n      dup2\n        /* \"#utility.yul\":18771:18777   */\n      dup5\n        /* \"#utility.yul\":18765:18769   */\n      dup5\n        /* \"#utility.yul\":18721:18786   */\n      tag_178\n      jump\t// in\n    tag_373:\n        /* \"#utility.yul\":18656:18792   */\n      pop\n        /* \"#utility.yul\":18603:18792   */\n      pop\n      pop\n      jump\t// out\n        /* \"#utility.yul\":18798:18984   */\n    tag_181:\n        /* \"#utility.yul\":18858:18978   */\n    tag_375:\n        /* \"#utility.yul\":18875:18878   */\n      dup2\n        /* \"#utility.yul\":18868:18873   */\n      dup2\n        /* \"#utility.yul\":18865:18879   */\n      lt\n        /* \"#utility.yul\":18858:18978   */\n      iszero\n      tag_377\n      jumpi\n        /* \"#utility.yul\":18929:18968   */\n      tag_378\n        /* \"#utility.yul\":18966:18967   */\n      0x00\n        /* \"#utility.yul\":18959:18964   */\n      dup3\n        /* \"#utility.yul\":18929:18968   */\n      tag_180\n      jump\t// in\n    tag_378:\n        /* \"#utility.yul\":18902:18903   */\n      0x01\n        /* \"#utility.yul\":18895:18900   */\n      dup2\n        /* \"#utility.yul\":18891:18904   */\n      add\n        /* \"#utility.yul\":18882:18904   */\n      swap1\n      pop\n        /* \"#utility.yul\":18858:18978   */\n      jump(tag_375)\n    tag_377:\n        /* \"#utility.yul\":18798:18984   */\n      pop\n      pop\n      jump\t// out\n        /* \"#utility.yul\":18990:19533   */\n    tag_182:\n        /* \"#utility.yul\":19091:19093   */\n      0x1f\n        /* \"#utility.yul\":19086:19089   */\n      dup3\n        /* \"#utility.yul\":19083:19094   */\n      gt\n        /* \"#utility.yul\":19080:19526   */\n      iszero\n      tag_380\n      jumpi\n        /* \"#utility.yul\":19125:19163   */\n      tag_381\n        /* \"#utility.yul\":19157:19162   */\n      dup2\n        /* \"#utility.yul\":19125:19163   */\n      tag_171\n      jump\t// in\n    tag_381:\n        /* \"#utility.yul\":19209:19238   */\n      tag_382\n        /* \"#utility.yul\":19227:19237   */\n      dup5\n        /* \"#utility.yul\":19209:19238   */\n      tag_172\n      jump\t// in\n    tag_382:\n        /* \"#utility.yul\":19199:19207   */\n      dup2\n        /* \"#utility.yul\":19195:19239   */\n      add\n        /* \"#utility.yul\":19392:19394   */\n      0x20\n        /* \"#utility.yul\":19380:19390   */\n      dup6\n        /* \"#utility.yul\":19377:19395   */\n      lt\n        /* \"#utility.yul\":19374:19423   */\n      iszero\n      tag_383\n      jumpi\n        /* \"#utility.yul\":19413:19421   */\n      dup2\n        /* \"#utility.yul\":19398:19421   */\n      swap1\n      pop\n        /* \"#utility.yul\":19374:19423   */\n    tag_383:\n        /* \"#utility.yul\":19436:19516   */\n      tag_384\n        /* \"#utility.yul\":19492:19514   */\n      tag_385\n        /* \"#utility.yul\":19510:19513   */\n      dup6\n        /* \"#utility.yul\":19492:19514   */\n      tag_172\n      jump\t// in\n    tag_385:\n        /* \"#utility.yul\":19482:19490   */\n      dup4\n        /* \"#utility.yul\":19478:19515   */\n      add\n        /* \"#utility.yul\":19465:19476   */\n      dup3\n        /* \"#utility.yul\":19436:19516   */\n      tag_181\n      jump\t// in\n    tag_384:\n        /* \"#utility.yul\":19095:19526   */\n      pop\n      pop\n        /* \"#utility.yul\":19080:19526   */\n    tag_380:\n        /* \"#utility.yul\":18990:19533   */\n      pop\n      pop\n      pop\n      jump\t// out\n        /* \"#utility.yul\":19539:19656   */\n    tag_183:\n        /* \"#utility.yul\":19593:19601   */\n      0x00\n        /* \"#utility.yul\":19643:19648   */\n      dup3\n        /* \"#utility.yul\":19637:19641   */\n      dup3\n        /* \"#utility.yul\":19633:19649   */\n      shr\n        /* \"#utility.yul\":19612:19649   */\n      swap1\n      pop\n        /* \"#utility.yul\":19539:19656   */\n      swap3\n      swap2\n      pop\n      pop\n      jump\t// out\n        /* \"#utility.yul\":19662:19831   */\n    tag_184:\n        /* \"#utility.yul\":19706:19712   */\n      0x00\n        /* \"#utility.yul\":19739:19790   */\n      tag_388\n        /* \"#utility.yul\":19787:19788   */\n      0x00\n        /* \"#utility.yul\":19783:19789   */\n      not\n        /* \"#utility.yul\":19775:19780   */\n      dup5\n        /* \"#utility.yul\":19772:19773   */\n      0x08\n        /* \"#utility.yul\":19768:19781   */\n      mul\n        /* \"#utility.yul\":19739:19790   */\n      tag_183\n      jump\t// in\n    tag_388:\n        /* \"#utility.yul\":19735:19791   */\n      not\n        /* \"#utility.yul\":19820:19824   */\n      dup1\n        /* \"#utility.yul\":19814:19818   */\n      dup4\n        /* \"#utility.yul\":19810:19825   */\n      and\n        /* \"#utility.yul\":19800:19825   */\n      swap2\n      pop\n        /* \"#utility.yul\":19713:19831   */\n      pop\n        /* \"#utility.yul\":19662:19831   */\n      swap3\n      swap2\n      pop\n      pop\n      jump\t// out\n        /* \"#utility.yul\":19836:20131   */\n    tag_185:\n        /* \"#utility.yul\":19912:19916   */\n      0x00\n        /* \"#utility.yul\":20058:20087   */\n      tag_390\n        /* \"#utility.yul\":20083:20086   */\n      dup4\n        /* \"#utility.yul\":20077:20081   */\n      dup4\n        /* \"#utility.yul\":20058:20087   */\n      tag_184\n      jump\t// in\n    tag_390:\n        /* \"#utility.yul\":20050:20087   */\n      swap2\n      pop\n        /* \"#utility.yul\":20120:20123   */\n      dup3\n        /* \"#utility.yul\":20117:20118   */\n      0x02\n        /* \"#utility.yul\":20113:20124   */\n      mul\n        /* \"#utility.yul\":20107:20111   */\n      dup3\n        /* \"#utility.yul\":20104:20125   */\n      or\n        /* \"#utility.yul\":20096:20125   */\n      swap1\n      pop\n        /* \"#utility.yul\":19836:20131   */\n      swap3\n      swap2\n      pop\n      pop\n      jump\t// out\n        /* \"#utility.yul\":20136:21531   */\n    tag_73:\n        /* \"#utility.yul\":20253:20290   */\n      tag_392\n        /* \"#utility.yul\":20286:20289   */\n      dup3\n        /* \"#utility.yul\":20253:20290   */\n      tag_136\n      jump\t// in\n    tag_392:\n        /* \"#utility.yul\":20355:20373   */\n      0xffffffffffffffff\n        /* \"#utility.yul\":20347:20353   */\n      dup2\n        /* \"#utility.yul\":20344:20374   */\n      gt\n        /* \"#utility.yul\":20341:20397   */\n      iszero\n      tag_393\n      jumpi\n        /* \"#utility.yul\":20377:20395   */\n      tag_394\n      tag_147\n      jump\t// in\n    tag_394:\n        /* \"#utility.yul\":20341:20397   */\n    tag_393:\n        /* \"#utility.yul\":20421:20459   */\n      tag_395\n        /* \"#utility.yul\":20453:20457   */\n      dup3\n        /* \"#utility.yul\":20447:20458   */\n      sload\n        /* \"#utility.yul\":20421:20459   */\n      tag_57\n      jump\t// in\n    tag_395:\n        /* \"#utility.yul\":20506:20573   */\n      tag_396\n        /* \"#utility.yul\":20566:20572   */\n      dup3\n        /* \"#utility.yul\":20558:20564   */\n      dup3\n        /* \"#utility.yul\":20552:20556   */\n      dup6\n        /* \"#utility.yul\":20506:20573   */\n      tag_182\n      jump\t// in\n    tag_396:\n        /* \"#utility.yul\":20600:20601   */\n      0x00\n        /* \"#utility.yul\":20624:20628   */\n      0x20\n        /* \"#utility.yul\":20611:20628   */\n      swap1\n      pop\n        /* \"#utility.yul\":20656:20658   */\n      0x1f\n        /* \"#utility.yul\":20648:20654   */\n      dup4\n        /* \"#utility.yul\":20645:20659   */\n      gt\n        /* \"#utility.yul\":20673:20674   */\n      0x01\n        /* \"#utility.yul\":20668:21286   */\n      dup2\n      eq\n      tag_398\n      jumpi\n        /* \"#utility.yul\":21330:21331   */\n      0x00\n        /* \"#utility.yul\":21347:21353   */\n      dup5\n        /* \"#utility.yul\":21344:21421   */\n      iszero\n      tag_399\n      jumpi\n        /* \"#utility.yul\":21396:21405   */\n      dup3\n        /* \"#utility.yul\":21391:21394   */\n      dup8\n        /* \"#utility.yul\":21387:21406   */\n      add\n        /* \"#utility.yul\":21381:21407   */\n      mload\n        /* \"#utility.yul\":21372:21407   */\n      swap1\n      pop\n        /* \"#utility.yul\":21344:21421   */\n    tag_399:\n        /* \"#utility.yul\":21447:21514   */\n      tag_400\n        /* \"#utility.yul\":21507:21513   */\n      dup6\n        /* \"#utility.yul\":21500:21505   */\n      dup3\n        /* \"#utility.yul\":21447:21514   */\n      tag_185\n      jump\t// in\n    tag_400:\n        /* \"#utility.yul\":21441:21445   */\n      dup7\n        /* \"#utility.yul\":21434:21515   */\n      sstore\n        /* \"#utility.yul\":21303:21525   */\n      pop\n        /* \"#utility.yul\":20638:21525   */\n      jump(tag_397)\n        /* \"#utility.yul\":20668:21286   */\n    tag_398:\n        /* \"#utility.yul\":20720:20724   */\n      0x1f\n        /* \"#utility.yul\":20716:20725   */\n      not\n        /* \"#utility.yul\":20708:20714   */\n      dup5\n        /* \"#utility.yul\":20704:20726   */\n      and\n        /* \"#utility.yul\":20754:20791   */\n      tag_401\n        /* \"#utility.yul\":20786:20790   */\n      dup7\n        /* \"#utility.yul\":20754:20791   */\n      tag_171\n      jump\t// in\n    tag_401:\n        /* \"#utility.yul\":20813:20814   */\n      0x00\n        /* \"#utility.yul\":20827:21035   */\n    tag_402:\n        /* \"#utility.yul\":20841:20848   */\n      dup3\n        /* \"#utility.yul\":20838:20839   */\n      dup2\n        /* \"#utility.yul\":20835:20849   */\n      lt\n        /* \"#utility.yul\":20827:21035   */\n      iszero\n      tag_404\n      jumpi\n        /* \"#utility.yul\":20920:20929   */\n      dup5\n        /* \"#utility.yul\":20915:20918   */\n      dup10\n        /* \"#utility.yul\":20911:20930   */\n      add\n        /* \"#utility.yul\":20905:20931   */\n      mload\n        /* \"#utility.yul\":20897:20903   */\n      dup3\n        /* \"#utility.yul\":20890:20932   */\n      sstore\n        /* \"#utility.yul\":20971:20972   */\n      0x01\n        /* \"#utility.yul\":20963:20969   */\n      dup3\n        /* \"#utility.yul\":20959:20973   */\n      add\n        /* \"#utility.yul\":20949:20973   */\n      swap2\n      pop\n        /* \"#utility.yul\":21018:21020   */\n      0x20\n        /* \"#utility.yul\":21007:21016   */\n      dup6\n        /* \"#utility.yul\":21003:21021   */\n      add\n        /* \"#utility.yul\":20990:21021   */\n      swap5\n      pop\n        /* \"#utility.yul\":20864:20868   */\n      0x20\n        /* \"#utility.yul\":20861:20862   */\n      dup2\n        /* \"#utility.yul\":20857:20869   */\n      add\n        /* \"#utility.yul\":20852:20869   */\n      swap1\n      pop\n        /* \"#utility.yul\":20827:21035   */\n      jump(tag_402)\n    tag_404:\n        /* \"#utility.yul\":21063:21069   */\n      dup7\n        /* \"#utility.yul\":21054:21061   */\n      dup4\n        /* \"#utility.yul\":21051:21070   */\n      lt\n        /* \"#utility.yul\":21048:21227   */\n      iszero\n      tag_405\n      jumpi\n        /* \"#utility.yul\":21121:21130   */\n      dup5\n        /* \"#utility.yul\":21116:21119   */\n      dup10\n        /* \"#utility.yul\":21112:21131   */\n      add\n        /* \"#utility.yul\":21106:21132   */\n      mload\n        /* \"#utility.yul\":21164:21212   */\n      tag_406\n        /* \"#utility.yul\":21206:21210   */\n      0x1f\n        /* \"#utility.yul\":21198:21204   */\n      dup10\n        /* \"#utility.yul\":21194:21211   */\n      and\n        /* \"#utility.yul\":21183:21192   */\n      dup3\n        /* \"#utility.yul\":21164:21212   */\n      tag_184\n      jump\t// in\n    tag_406:\n        /* \"#utility.yul\":21156:21162   */\n      dup4\n        /* \"#utility.yul\":21149:21213   */\n      sstore\n        /* \"#utility.yul\":21071:21227   */\n      pop\n        /* \"#utility.yul\":21048:21227   */\n    tag_405:\n        /* \"#utility.yul\":21273:21274   */\n      0x01\n        /* \"#utility.yul\":21269:21270   */\n      0x02\n        /* \"#utility.yul\":21261:21267   */\n      dup9\n        /* \"#utility.yul\":21257:21271   */\n      mul\n        /* \"#utility.yul\":21253:21275   */\n      add\n        /* \"#utility.yul\":21247:21251   */\n      dup9\n        /* \"#utility.yul\":21240:21276   */\n      sstore\n        /* \"#utility.yul\":20675:21286   */\n      pop\n      pop\n      pop\n        /* \"#utility.yul\":20638:21525   */\n    tag_397:\n      pop\n        /* \"#utility.yul\":20228:21531   */\n      pop\n      pop\n      pop\n        /* \"#utility.yul\":20136:21531   */\n      pop\n      pop\n      jump\t// out\n        /* \"#utility.yul\":21537:21717   */\n    tag_77:\n        /* \"#utility.yul\":21585:21662   */\n      0x4e487b7100000000000000000000000000000000000000000000000000000000\n        /* \"#utility.yul\":21582:21583   */\n      0x00\n        /* \"#utility.yul\":21575:21663   */\n      mstore\n        /* \"#utility.yul\":21682:21686   */\n      0x32\n        /* \"#utility.yul\":21679:21680   */\n      0x04\n        /* \"#utility.yul\":21672:21687   */\n      mstore\n        /* \"#utility.yul\":21706:21710   */\n      0x24\n        /* \"#utility.yul\":21703:21704   */\n      0x00\n        /* \"#utility.yul\":21696:21711   */\n      revert\n        /* \"#utility.yul\":21723:21893   */\n    tag_186:\n        /* \"#utility.yul\":21863:21885   */\n      0x545745455420444f4553204e4f54204558495354000000000000000000000000\n        /* \"#utility.yul\":21859:21860   */\n      0x00\n        /* \"#utility.yul\":21851:21857   */\n      dup3\n        /* \"#utility.yul\":21847:21861   */\n      add\n        /* \"#utility.yul\":21840:21886   */\n      mstore\n        /* \"#utility.yul\":21723:21893   */\n      pop\n      jump\t// out\n        /* \"#utility.yul\":21899:22265   */\n    tag_187:\n        /* \"#utility.yul\":22041:22044   */\n      0x00\n        /* \"#utility.yul\":22062:22129   */\n      tag_410\n        /* \"#utility.yul\":22126:22128   */\n      0x14\n        /* \"#utility.yul\":22121:22124   */\n      dup4\n        /* \"#utility.yul\":22062:22129   */\n      tag_137\n      jump\t// in\n    tag_410:\n        /* \"#utility.yul\":22055:22129   */\n      swap2\n      pop\n        /* \"#utility.yul\":22138:22231   */\n      tag_411\n        /* \"#utility.yul\":22227:22230   */\n      dup3\n        /* \"#utility.yul\":22138:22231   */\n      tag_186\n      jump\t// in\n    tag_411:\n        /* \"#utility.yul\":22256:22258   */\n      0x20\n        /* \"#utility.yul\":22251:22254   */\n      dup3\n        /* \"#utility.yul\":22247:22259   */\n      add\n        /* \"#utility.yul\":22240:22259   */\n      swap1\n      pop\n        /* \"#utility.yul\":21899:22265   */\n      swap2\n      swap1\n      pop\n      jump\t// out\n        /* \"#utility.yul\":22271:22690   */\n    tag_81:\n        /* \"#utility.yul\":22437:22441   */\n      0x00\n        /* \"#utility.yul\":22475:22477   */\n      0x20\n        /* \"#utility.yul\":22464:22473   */\n      dup3\n        /* \"#utility.yul\":22460:22478   */\n      add\n        /* \"#utility.yul\":22452:22478   */\n      swap1\n      pop\n        /* \"#utility.yul\":22524:22533   */\n      dup2\n        /* \"#utility.yul\":22518:22522   */\n      dup2\n        /* \"#utility.yul\":22514:22534   */\n      sub\n        /* \"#utility.yul\":22510:22511   */\n      0x00\n        /* \"#utility.yul\":22499:22508   */\n      dup4\n        /* \"#utility.yul\":22495:22512   */\n      add\n        /* \"#utility.yul\":22488:22535   */\n      mstore\n        /* \"#utility.yul\":22552:22683   */\n      tag_413\n        /* \"#utility.yul\":22678:22682   */\n      dup2\n        /* \"#utility.yul\":22552:22683   */\n      tag_187\n      jump\t// in\n    tag_413:\n        /* \"#utility.yul\":22544:22683   */\n      swap1\n      pop\n        /* \"#utility.yul\":22271:22690   */\n      swap2\n      swap1\n      pop\n      jump\t// out\n        /* \"#utility.yul\":22696:22864   */\n    tag_188:\n        /* \"#utility.yul\":22836:22856   */\n      0x545745455420484153204e4f204c494b45530000000000000000000000000000\n        /* \"#utility.yul\":22832:22833   */\n      0x00\n        /* \"#utility.yul\":22824:22830   */\n      dup3\n        /* \"#utility.yul\":22820:22834   */\n      add\n        /* \"#utility.yul\":22813:22857   */\n      mstore\n        /* \"#utility.yul\":22696:22864   */\n      pop\n      jump\t// out\n        /* \"#utility.yul\":22870:23236   */\n    tag_189:\n        /* \"#utility.yul\":23012:23015   */\n      0x00\n        /* \"#utility.yul\":23033:23100   */\n      tag_416\n        /* \"#utility.yul\":23097:23099   */\n      0x12\n        /* \"#utility.yul\":23092:23095   */\n      dup4\n        /* \"#utility.yul\":23033:23100   */\n      tag_137\n      jump\t// in\n    tag_416:\n        /* \"#utility.yul\":23026:23100   */\n      swap2\n      pop\n        /* \"#utility.yul\":23109:23202   */\n      tag_417\n        /* \"#utility.yul\":23198:23201   */\n      dup3\n        /* \"#utility.yul\":23109:23202   */\n      tag_188\n      jump\t// in\n    tag_417:\n        /* \"#utility.yul\":23227:23229   */\n      0x20\n        /* \"#utility.yul\":23222:23225   */\n      dup3\n        /* \"#utility.yul\":23218:23230   */\n      add\n        /* \"#utility.yul\":23211:23230   */\n      swap1\n      pop\n        /* \"#utility.yul\":22870:23236   */\n      swap2\n      swap1\n      pop\n      jump\t// out\n        /* \"#utility.yul\":23242:23661   */\n    tag_87:\n        /* \"#utility.yul\":23408:23412   */\n      0x00\n        /* \"#utility.yul\":23446:23448   */\n      0x20\n        /* \"#utility.yul\":23435:23444   */\n      dup3\n        /* \"#utility.yul\":23431:23449   */\n      add\n        /* \"#utility.yul\":23423:23449   */\n      swap1\n      pop\n        /* \"#utility.yul\":23495:23504   */\n      dup2\n        /* \"#utility.yul\":23489:23493   */\n      dup2\n        /* \"#utility.yul\":23485:23505   */\n      sub\n        /* \"#utility.yul\":23481:23482   */\n      0x00\n        /* \"#utility.yul\":23470:23479   */\n      dup4\n        /* \"#utility.yul\":23466:23483   */\n      add\n        /* \"#utility.yul\":23459:23506   */\n      mstore\n        /* \"#utility.yul\":23523:23654   */\n      tag_419\n        /* \"#utility.yul\":23649:23653   */\n      dup2\n        /* \"#utility.yul\":23523:23654   */\n      tag_189\n      jump\t// in\n    tag_419:\n        /* \"#utility.yul\":23515:23654   */\n      swap1\n      pop\n        /* \"#utility.yul\":23242:23661   */\n      swap2\n      swap1\n      pop\n      jump\t// out\n        /* \"#utility.yul\":23667:23847   */\n    tag_190:\n        /* \"#utility.yul\":23715:23792   */\n      0x4e487b7100000000000000000000000000000000000000000000000000000000\n        /* \"#utility.yul\":23712:23713   */\n      0x00\n        /* \"#utility.yul\":23705:23793   */\n      mstore\n        /* \"#utility.yul\":23812:23816   */\n      0x11\n        /* \"#utility.yul\":23809:23810   */\n      0x04\n        /* \"#utility.yul\":23802:23817   */\n      mstore\n        /* \"#utility.yul\":23836:23840   */\n      0x24\n        /* \"#utility.yul\":23833:23834   */\n      0x00\n        /* \"#utility.yul\":23826:23841   */\n      revert\n        /* \"#utility.yul\":23853:24024   */\n    tag_92:\n        /* \"#utility.yul\":23892:23895   */\n      0x00\n        /* \"#utility.yul\":23915:23939   */\n      tag_422\n        /* \"#utility.yul\":23933:23938   */\n      dup3\n        /* \"#utility.yul\":23915:23939   */\n      tag_131\n      jump\t// in\n    tag_422:\n        /* \"#utility.yul\":23906:23939   */\n      swap2\n      pop\n        /* \"#utility.yul\":23961:23965   */\n      0x00\n        /* \"#utility.yul\":23954:23959   */\n      dup3\n        /* \"#utility.yul\":23951:23966   */\n      sub\n        /* \"#utility.yul\":23948:23989   */\n      tag_423\n      jumpi\n        /* \"#utility.yul\":23969:23987   */\n      tag_424\n      tag_190\n      jump\t// in\n    tag_424:\n        /* \"#utility.yul\":23948:23989   */\n    tag_423:\n        /* \"#utility.yul\":24016:24017   */\n      0x01\n        /* \"#utility.yul\":24009:24014   */\n      dup3\n        /* \"#utility.yul\":24005:24018   */\n      sub\n        /* \"#utility.yul\":23998:24018   */\n      swap1\n      pop\n        /* \"#utility.yul\":23853:24024   */\n      swap2\n      swap1\n      pop\n      jump\t// out\n        /* \"#utility.yul\":24030:24263   */\n    tag_123:\n        /* \"#utility.yul\":24069:24072   */\n      0x00\n        /* \"#utility.yul\":24092:24116   */\n      tag_426\n        /* \"#utility.yul\":24110:24115   */\n      dup3\n        /* \"#utility.yul\":24092:24116   */\n      tag_131\n      jump\t// in\n    tag_426:\n        /* \"#utility.yul\":24083:24116   */\n      swap2\n      pop\n        /* \"#utility.yul\":24138:24204   */\n      0xffffffffffffffffffffffffffffffffffffffffffffffffffffffffffffffff\n        /* \"#utility.yul\":24131:24136   */\n      dup3\n        /* \"#utility.yul\":24128:24205   */\n      sub\n        /* \"#utility.yul\":24125:24228   */\n      tag_427\n      jumpi\n        /* \"#utility.yul\":24208:24226   */\n      tag_428\n      tag_190\n      jump\t// in\n    tag_428:\n        /* \"#utility.yul\":24125:24228   */\n    tag_427:\n        /* \"#utility.yul\":24255:24256   */\n      0x01\n        /* \"#utility.yul\":24248:24253   */\n      dup3\n        /* \"#utility.yul\":24244:24257   */\n      add\n        /* \"#utility.yul\":24237:24257   */\n      swap1\n      pop\n        /* \"#utility.yul\":24030:24263   */\n      swap2\n      swap1\n      pop\n      jump\t// out\n\n    auxdata: 0xa2646970667358221220b6c79d09055f457d1d8a1937e1e5641677f8becf8e167b750695eddbc5765dd464736f6c63430008120033\n}\n",
				"bytecode": {
					"linkReferences": {},
					"object": "60806040526101186000806101000a81548161ffff021916908361ffff16021790555034801561002e57600080fd5b5033600260006101000a81548173ffffffffffffffffffffffffffffffffffffffff021916908373ffffffffffffffffffffffffffffffffffffffff16021790555061186c8061007f6000396000f3fe608060405234801561001057600080fd5b50600436106100935760003560e01c80638da5cb5b116100665780638da5cb5b14610122578063a1488f7c14610140578063b64988b81461015c578063c3ad5ecb1461018c578063d04ddaa0146101bc57610093565b806305a1b4a91461009857806358bfa4ab146100cc5780636eb10797146100e85780637c9cd2bc14610106575b600080fd5b6100b260048036038101906100ad9190610c73565b6101d8565b6040516100c3959493929190610d61565b60405180910390f35b6100e660048036038101906100e19190610df5565b6102d3565b005b6100f0610382565b6040516100fd9190610e31565b60405180910390f35b610120600480360381019061011b9190610f81565b610394565b005b61012a610558565b6040516101379190610fca565b60405180910390f35b61015a60048036038101906101559190610fe5565b61057e565b005b61017660048036038101906101719190611025565b610743565b60405161018391906111f2565b60405180910390f35b6101a660048036038101906101a19190611214565b6108e7565b6040516101b391906112b7565b60405180910390f35b6101d660048036038101906101d19190610fe5565b610a66565b005b600160205281600052604060002081815481106101f457600080fd5b9060005260206000209060050201600091509150508060000154908060010160009054906101000a900473ffffffffffffffffffffffffffffffffffffffff169080600201805461024490611308565b80601f016020809104026020016040519081016040528092919081815260200182805461027090611308565b80156102bd5780601f10610292576101008083540402835291602001916102bd565b820191906000526020600020905b8154815290600101906020018083116102a057829003601f168201915b5050505050908060030154908060040154905085565b600260009054906101000a900473ffffffffffffffffffffffffffffffffffffffff1673ffffffffffffffffffffffffffffffffffffffff163373ffffffffffffffffffffffffffffffffffffffff1614610363576040517f08c379a000000000000000000000000000000000000000000000000000000000815260040161035a90611385565b60405180910390fd5b806000806101000a81548161ffff021916908361ffff16021790555050565b60008054906101000a900461ffff1681565b60008054906101000a900461ffff1661ffff16815111156103ea576040517f08c379a00000000000000000000000000000000000000000000000000000000081526004016103e1906113f1565b60405180910390fd5b60006040518060a00160405280600160003373ffffffffffffffffffffffffffffffffffffffff1673ffffffffffffffffffffffffffffffffffffffff1681526020019081526020016000208054905081526020013373ffffffffffffffffffffffffffffffffffffffff16815260200183815260200142815260200160008152509050600160003373ffffffffffffffffffffffffffffffffffffffff1673ffffffffffffffffffffffffffffffffffffffff1681526020019081526020016000208190806001815401808255809150506001900390600052602060002090600502016000909190919091506000820151816000015560208201518160010160006101000a81548173ffffffffffffffffffffffffffffffffffffffff021916908373ffffffffffffffffffffffffffffffffffffffff160217905550604082015181600201908161053d91906115bd565b50606082015181600301556080820151816004015550505050565b600260009054906101000a900473ffffffffffffffffffffffffffffffffffffffff1681565b81600160008373ffffffffffffffffffffffffffffffffffffffff1673ffffffffffffffffffffffffffffffffffffffff16815260200190815260200160002083815481106105d0576105cf61168f565b5b90600052602060002090600502016000015414610622576040517f08c379a00000000000000000000000000000000000000000000000000000000081526004016106199061170a565b60405180910390fd5b6000600160008373ffffffffffffffffffffffffffffffffffffffff1673ffffffffffffffffffffffffffffffffffffffff16815260200190815260200160002083815481106106755761067461168f565b5b906000526020600020906005020160040154116106c7576040517f08c379a00000000000000000000000000000000000000000000000000000000081526004016106be90611776565b60405180910390fd5b600160008273ffffffffffffffffffffffffffffffffffffffff1673ffffffffffffffffffffffffffffffffffffffff16815260200190815260200160002082815481106107185761071761168f565b5b9060005260206000209060050201600401600081548092919061073a906117c5565b91905055505050565b6060600160008373ffffffffffffffffffffffffffffffffffffffff1673ffffffffffffffffffffffffffffffffffffffff168152602001908152602001600020805480602002602001604051908101604052809291908181526020016000905b828210156108dc57838290600052602060002090600502016040518060a0016040529081600082015481526020016001820160009054906101000a900473ffffffffffffffffffffffffffffffffffffffff1673ffffffffffffffffffffffffffffffffffffffff1673ffffffffffffffffffffffffffffffffffffffff16815260200160028201805461083790611308565b80601f016020809104026020016040519081016040528092919081815260200182805461086390611308565b80156108b05780601f10610885576101008083540402835291602001916108b0565b820191906000526020600020905b81548152906001019060200180831161089357829003601f168201915b5050505050815260200160038201548152602001600482015481525050815260200190600101906107a4565b505050509050919050565b6108ef610b86565b600160003373ffffffffffffffffffffffffffffffffffffffff1673ffffffffffffffffffffffffffffffffffffffff16815260200190815260200160002082815481106109405761093f61168f565b5b90600052602060002090600502016040518060a0016040529081600082015481526020016001820160009054906101000a900473ffffffffffffffffffffffffffffffffffffffff1673ffffffffffffffffffffffffffffffffffffffff1673ffffffffffffffffffffffffffffffffffffffff1681526020016002820180546109c990611308565b80601f01602080910402602001604051908101604052809291908181526020018280546109f590611308565b8015610a425780601f10610a1757610100808354040283529160200191610a42565b820191906000526020600020905b815481529060010190602001808311610a2557829003601f168201915b50505050508152602001600382015481526020016004820154815250509050919050565b81600160008373ffffffffffffffffffffffffffffffffffffffff1673ffffffffffffffffffffffffffffffffffffffff1681526020019081526020016000208381548110610ab857610ab761168f565b5b90600052602060002090600502016000015414610b0a576040517f08c379a0000000000000000000000000000000000000000000000000000000008152600401610b019061170a565b60405180910390fd5b600160008273ffffffffffffffffffffffffffffffffffffffff1673ffffffffffffffffffffffffffffffffffffffff1681526020019081526020016000208281548110610b5b57610b5a61168f565b5b90600052602060002090600502016004016000815480929190610b7d906117ee565b91905055505050565b6040518060a0016040528060008152602001600073ffffffffffffffffffffffffffffffffffffffff1681526020016060815260200160008152602001600081525090565b6000604051905090565b600080fd5b600080fd5b600073ffffffffffffffffffffffffffffffffffffffff82169050919050565b6000610c0a82610bdf565b9050919050565b610c1a81610bff565b8114610c2557600080fd5b50565b600081359050610c3781610c11565b92915050565b6000819050919050565b610c5081610c3d565b8114610c5b57600080fd5b50565b600081359050610c6d81610c47565b92915050565b60008060408385031215610c8a57610c89610bd5565b5b6000610c9885828601610c28565b9250506020610ca985828601610c5e565b9150509250929050565b610cbc81610c3d565b82525050565b610ccb81610bff565b82525050565b600081519050919050565b600082825260208201905092915050565b60005b83811015610d0b578082015181840152602081019050610cf0565b60008484015250505050565b6000601f19601f8301169050919050565b6000610d3382610cd1565b610d3d8185610cdc565b9350610d4d818560208601610ced565b610d5681610d17565b840191505092915050565b600060a082019050610d766000830188610cb3565b610d836020830187610cc2565b8181036040830152610d958186610d28565b9050610da46060830185610cb3565b610db16080830184610cb3565b9695505050505050565b600061ffff82169050919050565b610dd281610dbb565b8114610ddd57600080fd5b50565b600081359050610def81610dc9565b92915050565b600060208284031215610e0b57610e0a610bd5565b5b6000610e1984828501610de0565b91505092915050565b610e2b81610dbb565b82525050565b6000602082019050610e466000830184610e22565b92915050565b600080fd5b600080fd5b7f4e487b7100000000000000000000000000000000000000000000000000000000600052604160045260246000fd5b610e8e82610d17565b810181811067ffffffffffffffff82111715610ead57610eac610e56565b5b80604052505050565b6000610ec0610bcb565b9050610ecc8282610e85565b919050565b600067ffffffffffffffff821115610eec57610eeb610e56565b5b610ef582610d17565b9050602081019050919050565b82818337600083830152505050565b6000610f24610f1f84610ed1565b610eb6565b905082815260208101848484011115610f4057610f3f610e51565b5b610f4b848285610f02565b509392505050565b600082601f830112610f6857610f67610e4c565b5b8135610f78848260208601610f11565b91505092915050565b600060208284031215610f9757610f96610bd5565b5b600082013567ffffffffffffffff811115610fb557610fb4610bda565b5b610fc184828501610f53565b91505092915050565b6000602082019050610fdf6000830184610cc2565b92915050565b60008060408385031215610ffc57610ffb610bd5565b5b600061100a85828601610c5e565b925050602061101b85828601610c28565b9150509250929050565b60006020828403121561103b5761103a610bd5565b5b600061104984828501610c28565b91505092915050565b600081519050919050565b600082825260208201905092915050565b6000819050602082019050919050565b61108781610c3d565b82525050565b61109681610bff565b82525050565b600082825260208201905092915050565b60006110b882610cd1565b6110c2818561109c565b93506110d2818560208601610ced565b6110db81610d17565b840191505092915050565b600060a0830160008301516110fe600086018261107e565b506020830151611111602086018261108d565b506040830151848203604086015261112982826110ad565b915050606083015161113e606086018261107e565b506080830151611151608086018261107e565b508091505092915050565b600061116883836110e6565b905092915050565b6000602082019050919050565b600061118882611052565b611192818561105d565b9350836020820285016111a48561106e565b8060005b858110156111e057848403895281516111c1858261115c565b94506111cc83611170565b925060208a019950506001810190506111a8565b50829750879550505050505092915050565b6000602082019050818103600083015261120c818461117d565b905092915050565b60006020828403121561122a57611229610bd5565b5b600061123884828501610c5e565b91505092915050565b600060a083016000830151611259600086018261107e565b50602083015161126c602086018261108d565b506040830151848203604086015261128482826110ad565b9150506060830151611299606086018261107e565b5060808301516112ac608086018261107e565b508091505092915050565b600060208201905081810360008301526112d18184611241565b905092915050565b7f4e487b7100000000000000000000000000000000000000000000000000000000600052602260045260246000fd5b6000600282049050600182168061132057607f821691505b602082108103611333576113326112d9565b5b50919050565b7f594f5520415245204e4f5420544845204f574e45520000000000000000000000600082015250565b600061136f601583610cdc565b915061137a82611339565b602082019050919050565b6000602082019050818103600083015261139e81611362565b9050919050565b7f547765657420697320746f6f206c6f6e67210000000000000000000000000000600082015250565b60006113db601283610cdc565b91506113e6826113a5565b602082019050919050565b6000602082019050818103600083015261140a816113ce565b9050919050565b60008190508160005260206000209050919050565b60006020601f8301049050919050565b600082821b905092915050565b6000600883026114737fffffffffffffffffffffffffffffffffffffffffffffffffffffffffffffffff82611436565b61147d8683611436565b95508019841693508086168417925050509392505050565b6000819050919050565b60006114ba6114b56114b084610c3d565b611495565b610c3d565b9050919050565b6000819050919050565b6114d48361149f565b6114e86114e0826114c1565b848454611443565b825550505050565b600090565b6114fd6114f0565b6115088184846114cb565b505050565b5b8181101561152c576115216000826114f5565b60018101905061150e565b5050565b601f8211156115715761154281611411565b61154b84611426565b8101602085101561155a578190505b61156e61156685611426565b83018261150d565b50505b505050565b600082821c905092915050565b600061159460001984600802611576565b1980831691505092915050565b60006115ad8383611583565b9150826002028217905092915050565b6115c682610cd1565b67ffffffffffffffff8111156115df576115de610e56565b5b6115e98254611308565b6115f4828285611530565b600060209050601f8311600181146116275760008415611615578287015190505b61161f85826115a1565b865550611687565b601f19841661163586611411565b60005b8281101561165d57848901518255600182019150602085019450602081019050611638565b8683101561167a5784890151611676601f891682611583565b8355505b6001600288020188555050505b505050505050565b7f4e487b7100000000000000000000000000000000000000000000000000000000600052603260045260246000fd5b7f545745455420444f4553204e4f54204558495354000000000000000000000000600082015250565b60006116f4601483610cdc565b91506116ff826116be565b602082019050919050565b60006020820190508181036000830152611723816116e7565b9050919050565b7f545745455420484153204e4f204c494b45530000000000000000000000000000600082015250565b6000611760601283610cdc565b915061176b8261172a565b602082019050919050565b6000602082019050818103600083015261178f81611753565b9050919050565b7f4e487b7100000000000000000000000000000000000000000000000000000000600052601160045260246000fd5b60006117d082610c3d565b9150600082036117e3576117e2611796565b5b600182039050919050565b60006117f982610c3d565b91507fffffffffffffffffffffffffffffffffffffffffffffffffffffffffffffffff820361182b5761182a611796565b5b60018201905091905056fea2646970667358221220b6c79d09055f457d1d8a1937e1e5641677f8becf8e167b750695eddbc5765dd464736f6c63430008120033",
					"opcodes": "PUSH1 0x80 PUSH1 0x40 MSTORE PUSH2 0x118 PUSH1 0x0 DUP1 PUSH2 0x100 EXP DUP2 SLOAD DUP2 PUSH2 0xFFFF MUL NOT AND SWAP1 DUP4 PUSH2 0xFFFF AND MUL OR SWAP1 SSTORE POP CALLVALUE DUP1 ISZERO PUSH2 0x2E JUMPI PUSH1 0x0 DUP1 REVERT JUMPDEST POP CALLER PUSH1 0x2 PUSH1 0x0 PUSH2 0x100 EXP DUP2 SLOAD DUP2 PUSH20 0xFFFFFFFFFFFFFFFFFFFFFFFFFFFFFFFFFFFFFFFF MUL NOT AND SWAP1 DUP4 PUSH20 0xFFFFFFFFFFFFFFFFFFFFFFFFFFFFFFFFFFFFFFFF AND MUL OR SWAP1 SSTORE POP PUSH2 0x186C DUP1 PUSH2 0x7F PUSH1 0x0 CODECOPY PUSH1 0x0 RETURN INVALID PUSH1 0x80 PUSH1 0x40 MSTORE CALLVALUE DUP1 ISZERO PUSH2 0x10 JUMPI PUSH1 0x0 DUP1 REVERT JUMPDEST POP PUSH1 0x4 CALLDATASIZE LT PUSH2 0x93 JUMPI PUSH1 0x0 CALLDATALOAD PUSH1 0xE0 SHR DUP1 PUSH4 0x8DA5CB5B GT PUSH2 0x66 JUMPI DUP1 PUSH4 0x8DA5CB5B EQ PUSH2 0x122 JUMPI DUP1 PUSH4 0xA1488F7C EQ PUSH2 0x140 JUMPI DUP1 PUSH4 0xB64988B8 EQ PUSH2 0x15C JUMPI DUP1 PUSH4 0xC3AD5ECB EQ PUSH2 0x18C JUMPI DUP1 PUSH4 0xD04DDAA0 EQ PUSH2 0x1BC JUMPI PUSH2 0x93 JUMP JUMPDEST DUP1 PUSH4 0x5A1B4A9 EQ PUSH2 0x98 JUMPI DUP1 PUSH4 0x58BFA4AB EQ PUSH2 0xCC JUMPI DUP1 PUSH4 0x6EB10797 EQ PUSH2 0xE8 JUMPI DUP1 PUSH4 0x7C9CD2BC EQ PUSH2 0x106 JUMPI JUMPDEST PUSH1 0x0 DUP1 REVERT JUMPDEST PUSH2 0xB2 PUSH1 0x4 DUP1 CALLDATASIZE SUB DUP2 ADD SWAP1 PUSH2 0xAD SWAP2 SWAP1 PUSH2 0xC73 JUMP JUMPDEST PUSH2 0x1D8 JUMP JUMPDEST PUSH1 0x40 MLOAD PUSH2 0xC3 SWAP6 SWAP5 SWAP4 SWAP3 SWAP2 SWAP1 PUSH2 0xD61 JUMP JUMPDEST PUSH1 0x40 MLOAD DUP1 SWAP2 SUB SWAP1 RETURN JUMPDEST PUSH2 0xE6 PUSH1 0x4 DUP1 CALLDATASIZE SUB DUP2 ADD SWAP1 PUSH2 0xE1 SWAP2 SWAP1 PUSH2 0xDF5 JUMP JUMPDEST PUSH2 0x2D3 JUMP JUMPDEST STOP JUMPDEST PUSH2 0xF0 PUSH2 0x382 JUMP JUMPDEST PUSH1 0x40 MLOAD PUSH2 0xFD SWAP2 SWAP1 PUSH2 0xE31 JUMP JUMPDEST PUSH1 0x40 MLOAD DUP1 SWAP2 SUB SWAP1 RETURN JUMPDEST PUSH2 0x120 PUSH1 0x4 DUP1 CALLDATASIZE SUB DUP2 ADD SWAP1 PUSH2 0x11B SWAP2 SWAP1 PUSH2 0xF81 JUMP JUMPDEST PUSH2 0x394 JUMP JUMPDEST STOP JUMPDEST PUSH2 0x12A PUSH2 0x558 JUMP JUMPDEST PUSH1 0x40 MLOAD PUSH2 0x137 SWAP2 SWAP1 PUSH2 0xFCA JUMP JUMPDEST PUSH1 0x40 MLOAD DUP1 SWAP2 SUB SWAP1 RETURN JUMPDEST PUSH2 0x15A PUSH1 0x4 DUP1 CALLDATASIZE SUB DUP2 ADD SWAP1 PUSH2 0x155 SWAP2 SWAP1 PUSH2 0xFE5 JUMP JUMPDEST PUSH2 0x57E JUMP JUMPDEST STOP JUMPDEST PUSH2 0x176 PUSH1 0x4 DUP1 CALLDATASIZE SUB DUP2 ADD SWAP1 PUSH2 0x171 SWAP2 SWAP1 PUSH2 0x1025 JUMP JUMPDEST PUSH2 0x743 JUMP JUMPDEST PUSH1 0x40 MLOAD PUSH2 0x183 SWAP2 SWAP1 PUSH2 0x11F2 JUMP JUMPDEST PUSH1 0x40 MLOAD DUP1 SWAP2 SUB SWAP1 RETURN JUMPDEST PUSH2 0x1A6 PUSH1 0x4 DUP1 CALLDATASIZE SUB DUP2 ADD SWAP1 PUSH2 0x1A1 SWAP2 SWAP1 PUSH2 0x1214 JUMP JUMPDEST PUSH2 0x8E7 JUMP JUMPDEST PUSH1 0x40 MLOAD PUSH2 0x1B3 SWAP2 SWAP1 PUSH2 0x12B7 JUMP JUMPDEST PUSH1 0x40 MLOAD DUP1 SWAP2 SUB SWAP1 RETURN JUMPDEST PUSH2 0x1D6 PUSH1 0x4 DUP1 CALLDATASIZE SUB DUP2 ADD SWAP1 PUSH2 0x1D1 SWAP2 SWAP1 PUSH2 0xFE5 JUMP JUMPDEST PUSH2 0xA66 JUMP JUMPDEST STOP JUMPDEST PUSH1 0x1 PUSH1 0x20 MSTORE DUP2 PUSH1 0x0 MSTORE PUSH1 0x40 PUSH1 0x0 KECCAK256 DUP2 DUP2 SLOAD DUP2 LT PUSH2 0x1F4 JUMPI PUSH1 0x0 DUP1 REVERT JUMPDEST SWAP1 PUSH1 0x0 MSTORE PUSH1 0x20 PUSH1 0x0 KECCAK256 SWAP1 PUSH1 0x5 MUL ADD PUSH1 0x0 SWAP2 POP SWAP2 POP POP DUP1 PUSH1 0x0 ADD SLOAD SWAP1 DUP1 PUSH1 0x1 ADD PUSH1 0x0 SWAP1 SLOAD SWAP1 PUSH2 0x100 EXP SWAP1 DIV PUSH20 0xFFFFFFFFFFFFFFFFFFFFFFFFFFFFFFFFFFFFFFFF AND SWAP1 DUP1 PUSH1 0x2 ADD DUP1 SLOAD PUSH2 0x244 SWAP1 PUSH2 0x1308 JUMP JUMPDEST DUP1 PUSH1 0x1F ADD PUSH1 0x20 DUP1 SWAP2 DIV MUL PUSH1 0x20 ADD PUSH1 0x40 MLOAD SWAP1 DUP2 ADD PUSH1 0x40 MSTORE DUP1 SWAP3 SWAP2 SWAP1 DUP2 DUP2 MSTORE PUSH1 0x20 ADD DUP3 DUP1 SLOAD PUSH2 0x270 SWAP1 PUSH2 0x1308 JUMP JUMPDEST DUP1 ISZERO PUSH2 0x2BD JUMPI DUP1 PUSH1 0x1F LT PUSH2 0x292 JUMPI PUSH2 0x100 DUP1 DUP4 SLOAD DIV MUL DUP4 MSTORE SWAP2 PUSH1 0x20 ADD SWAP2 PUSH2 0x2BD JUMP JUMPDEST DUP3 ADD SWAP2 SWAP1 PUSH1 0x0 MSTORE PUSH1 0x20 PUSH1 0x0 KECCAK256 SWAP1 JUMPDEST DUP2 SLOAD DUP2 MSTORE SWAP1 PUSH1 0x1 ADD SWAP1 PUSH1 0x20 ADD DUP1 DUP4 GT PUSH2 0x2A0 JUMPI DUP3 SWAP1 SUB PUSH1 0x1F AND DUP3 ADD SWAP2 JUMPDEST POP POP POP POP POP SWAP1 DUP1 PUSH1 0x3 ADD SLOAD SWAP1 DUP1 PUSH1 0x4 ADD SLOAD SWAP1 POP DUP6 JUMP JUMPDEST PUSH1 0x2 PUSH1 0x0 SWAP1 SLOAD SWAP1 PUSH2 0x100 EXP SWAP1 DIV PUSH20 0xFFFFFFFFFFFFFFFFFFFFFFFFFFFFFFFFFFFFFFFF AND PUSH20 0xFFFFFFFFFFFFFFFFFFFFFFFFFFFFFFFFFFFFFFFF AND CALLER PUSH20 0xFFFFFFFFFFFFFFFFFFFFFFFFFFFFFFFFFFFFFFFF AND EQ PUSH2 0x363 JUMPI PUSH1 0x40 MLOAD PUSH32 0x8C379A000000000000000000000000000000000000000000000000000000000 DUP2 MSTORE PUSH1 0x4 ADD PUSH2 0x35A SWAP1 PUSH2 0x1385 JUMP JUMPDEST PUSH1 0x40 MLOAD DUP1 SWAP2 SUB SWAP1 REVERT JUMPDEST DUP1 PUSH1 0x0 DUP1 PUSH2 0x100 EXP DUP2 SLOAD DUP2 PUSH2 0xFFFF MUL NOT AND SWAP1 DUP4 PUSH2 0xFFFF AND MUL OR SWAP1 SSTORE POP POP JUMP JUMPDEST PUSH1 0x0 DUP1 SLOAD SWAP1 PUSH2 0x100 EXP SWAP1 DIV PUSH2 0xFFFF AND DUP2 JUMP JUMPDEST PUSH1 0x0 DUP1 SLOAD SWAP1 PUSH2 0x100 EXP SWAP1 DIV PUSH2 0xFFFF AND PUSH2 0xFFFF AND DUP2 MLOAD GT ISZERO PUSH2 0x3EA JUMPI PUSH1 0x40 MLOAD PUSH32 0x8C379A000000000000000000000000000000000000000000000000000000000 DUP2 MSTORE PUSH1 0x4 ADD PUSH2 0x3E1 SWAP1 PUSH2 0x13F1 JUMP JUMPDEST PUSH1 0x40 MLOAD DUP1 SWAP2 SUB SWAP1 REVERT JUMPDEST PUSH1 0x0 PUSH1 0x40 MLOAD DUP1 PUSH1 0xA0 ADD PUSH1 0x40 MSTORE DUP1 PUSH1 0x1 PUSH1 0x0 CALLER PUSH20 0xFFFFFFFFFFFFFFFFFFFFFFFFFFFFFFFFFFFFFFFF AND PUSH20 0xFFFFFFFFFFFFFFFFFFFFFFFFFFFFFFFFFFFFFFFF AND DUP2 MSTORE PUSH1 0x20 ADD SWAP1 DUP2 MSTORE PUSH1 0x20 ADD PUSH1 0x0 KECCAK256 DUP1 SLOAD SWAP1 POP DUP2 MSTORE PUSH1 0x20 ADD CALLER PUSH20 0xFFFFFFFFFFFFFFFFFFFFFFFFFFFFFFFFFFFFFFFF AND DUP2 MSTORE PUSH1 0x20 ADD DUP4 DUP2 MSTORE PUSH1 0x20 ADD TIMESTAMP DUP2 MSTORE PUSH1 0x20 ADD PUSH1 0x0 DUP2 MSTORE POP SWAP1 POP PUSH1 0x1 PUSH1 0x0 CALLER PUSH20 0xFFFFFFFFFFFFFFFFFFFFFFFFFFFFFFFFFFFFFFFF AND PUSH20 0xFFFFFFFFFFFFFFFFFFFFFFFFFFFFFFFFFFFFFFFF AND DUP2 MSTORE PUSH1 0x20 ADD SWAP1 DUP2 MSTORE PUSH1 0x20 ADD PUSH1 0x0 KECCAK256 DUP2 SWAP1 DUP1 PUSH1 0x1 DUP2 SLOAD ADD DUP1 DUP3 SSTORE DUP1 SWAP2 POP POP PUSH1 0x1 SWAP1 SUB SWAP1 PUSH1 0x0 MSTORE PUSH1 0x20 PUSH1 0x0 KECCAK256 SWAP1 PUSH1 0x5 MUL ADD PUSH1 0x0 SWAP1 SWAP2 SWAP1 SWAP2 SWAP1 SWAP2 POP PUSH1 0x0 DUP3 ADD MLOAD DUP2 PUSH1 0x0 ADD SSTORE PUSH1 0x20 DUP3 ADD MLOAD DUP2 PUSH1 0x1 ADD PUSH1 0x0 PUSH2 0x100 EXP DUP2 SLOAD DUP2 PUSH20 0xFFFFFFFFFFFFFFFFFFFFFFFFFFFFFFFFFFFFFFFF MUL NOT AND SWAP1 DUP4 PUSH20 0xFFFFFFFFFFFFFFFFFFFFFFFFFFFFFFFFFFFFFFFF AND MUL OR SWAP1 SSTORE POP PUSH1 0x40 DUP3 ADD MLOAD DUP2 PUSH1 0x2 ADD SWAP1 DUP2 PUSH2 0x53D SWAP2 SWAP1 PUSH2 0x15BD JUMP JUMPDEST POP PUSH1 0x60 DUP3 ADD MLOAD DUP2 PUSH1 0x3 ADD SSTORE PUSH1 0x80 DUP3 ADD MLOAD DUP2 PUSH1 0x4 ADD SSTORE POP POP POP POP JUMP JUMPDEST PUSH1 0x2 PUSH1 0x0 SWAP1 SLOAD SWAP1 PUSH2 0x100 EXP SWAP1 DIV PUSH20 0xFFFFFFFFFFFFFFFFFFFFFFFFFFFFFFFFFFFFFFFF AND DUP2 JUMP JUMPDEST DUP2 PUSH1 0x1 PUSH1 0x0 DUP4 PUSH20 0xFFFFFFFFFFFFFFFFFFFFFFFFFFFFFFFFFFFFFFFF AND PUSH20 0xFFFFFFFFFFFFFFFFFFFFFFFFFFFFFFFFFFFFFFFF AND DUP2 MSTORE PUSH1 0x20 ADD SWAP1 DUP2 MSTORE PUSH1 0x20 ADD PUSH1 0x0 KECCAK256 DUP4 DUP2 SLOAD DUP2 LT PUSH2 0x5D0 JUMPI PUSH2 0x5CF PUSH2 0x168F JUMP JUMPDEST JUMPDEST SWAP1 PUSH1 0x0 MSTORE PUSH1 0x20 PUSH1 0x0 KECCAK256 SWAP1 PUSH1 0x5 MUL ADD PUSH1 0x0 ADD SLOAD EQ PUSH2 0x622 JUMPI PUSH1 0x40 MLOAD PUSH32 0x8C379A000000000000000000000000000000000000000000000000000000000 DUP2 MSTORE PUSH1 0x4 ADD PUSH2 0x619 SWAP1 PUSH2 0x170A JUMP JUMPDEST PUSH1 0x40 MLOAD DUP1 SWAP2 SUB SWAP1 REVERT JUMPDEST PUSH1 0x0 PUSH1 0x1 PUSH1 0x0 DUP4 PUSH20 0xFFFFFFFFFFFFFFFFFFFFFFFFFFFFFFFFFFFFFFFF AND PUSH20 0xFFFFFFFFFFFFFFFFFFFFFFFFFFFFFFFFFFFFFFFF AND DUP2 MSTORE PUSH1 0x20 ADD SWAP1 DUP2 MSTORE PUSH1 0x20 ADD PUSH1 0x0 KECCAK256 DUP4 DUP2 SLOAD DUP2 LT PUSH2 0x675 JUMPI PUSH2 0x674 PUSH2 0x168F JUMP JUMPDEST JUMPDEST SWAP1 PUSH1 0x0 MSTORE PUSH1 0x20 PUSH1 0x0 KECCAK256 SWAP1 PUSH1 0x5 MUL ADD PUSH1 0x4 ADD SLOAD GT PUSH2 0x6C7 JUMPI PUSH1 0x40 MLOAD PUSH32 0x8C379A000000000000000000000000000000000000000000000000000000000 DUP2 MSTORE PUSH1 0x4 ADD PUSH2 0x6BE SWAP1 PUSH2 0x1776 JUMP JUMPDEST PUSH1 0x40 MLOAD DUP1 SWAP2 SUB SWAP1 REVERT JUMPDEST PUSH1 0x1 PUSH1 0x0 DUP3 PUSH20 0xFFFFFFFFFFFFFFFFFFFFFFFFFFFFFFFFFFFFFFFF AND PUSH20 0xFFFFFFFFFFFFFFFFFFFFFFFFFFFFFFFFFFFFFFFF AND DUP2 MSTORE PUSH1 0x20 ADD SWAP1 DUP2 MSTORE PUSH1 0x20 ADD PUSH1 0x0 KECCAK256 DUP3 DUP2 SLOAD DUP2 LT PUSH2 0x718 JUMPI PUSH2 0x717 PUSH2 0x168F JUMP JUMPDEST JUMPDEST SWAP1 PUSH1 0x0 MSTORE PUSH1 0x20 PUSH1 0x0 KECCAK256 SWAP1 PUSH1 0x5 MUL ADD PUSH1 0x4 ADD PUSH1 0x0 DUP2 SLOAD DUP1 SWAP3 SWAP2 SWAP1 PUSH2 0x73A SWAP1 PUSH2 0x17C5 JUMP JUMPDEST SWAP2 SWAP1 POP SSTORE POP POP POP JUMP JUMPDEST PUSH1 0x60 PUSH1 0x1 PUSH1 0x0 DUP4 PUSH20 0xFFFFFFFFFFFFFFFFFFFFFFFFFFFFFFFFFFFFFFFF AND PUSH20 0xFFFFFFFFFFFFFFFFFFFFFFFFFFFFFFFFFFFFFFFF AND DUP2 MSTORE PUSH1 0x20 ADD SWAP1 DUP2 MSTORE PUSH1 0x20 ADD PUSH1 0x0 KECCAK256 DUP1 SLOAD DUP1 PUSH1 0x20 MUL PUSH1 0x20 ADD PUSH1 0x40 MLOAD SWAP1 DUP2 ADD PUSH1 0x40 MSTORE DUP1 SWAP3 SWAP2 SWAP1 DUP2 DUP2 MSTORE PUSH1 0x20 ADD PUSH1 0x0 SWAP1 JUMPDEST DUP3 DUP3 LT ISZERO PUSH2 0x8DC JUMPI DUP4 DUP3 SWAP1 PUSH1 0x0 MSTORE PUSH1 0x20 PUSH1 0x0 KECCAK256 SWAP1 PUSH1 0x5 MUL ADD PUSH1 0x40 MLOAD DUP1 PUSH1 0xA0 ADD PUSH1 0x40 MSTORE SWAP1 DUP2 PUSH1 0x0 DUP3 ADD SLOAD DUP2 MSTORE PUSH1 0x20 ADD PUSH1 0x1 DUP3 ADD PUSH1 0x0 SWAP1 SLOAD SWAP1 PUSH2 0x100 EXP SWAP1 DIV PUSH20 0xFFFFFFFFFFFFFFFFFFFFFFFFFFFFFFFFFFFFFFFF AND PUSH20 0xFFFFFFFFFFFFFFFFFFFFFFFFFFFFFFFFFFFFFFFF AND PUSH20 0xFFFFFFFFFFFFFFFFFFFFFFFFFFFFFFFFFFFFFFFF AND DUP2 MSTORE PUSH1 0x20 ADD PUSH1 0x2 DUP3 ADD DUP1 SLOAD PUSH2 0x837 SWAP1 PUSH2 0x1308 JUMP JUMPDEST DUP1 PUSH1 0x1F ADD PUSH1 0x20 DUP1 SWAP2 DIV MUL PUSH1 0x20 ADD PUSH1 0x40 MLOAD SWAP1 DUP2 ADD PUSH1 0x40 MSTORE DUP1 SWAP3 SWAP2 SWAP1 DUP2 DUP2 MSTORE PUSH1 0x20 ADD DUP3 DUP1 SLOAD PUSH2 0x863 SWAP1 PUSH2 0x1308 JUMP JUMPDEST DUP1 ISZERO PUSH2 0x8B0 JUMPI DUP1 PUSH1 0x1F LT PUSH2 0x885 JUMPI PUSH2 0x100 DUP1 DUP4 SLOAD DIV MUL DUP4 MSTORE SWAP2 PUSH1 0x20 ADD SWAP2 PUSH2 0x8B0 JUMP JUMPDEST DUP3 ADD SWAP2 SWAP1 PUSH1 0x0 MSTORE PUSH1 0x20 PUSH1 0x0 KECCAK256 SWAP1 JUMPDEST DUP2 SLOAD DUP2 MSTORE SWAP1 PUSH1 0x1 ADD SWAP1 PUSH1 0x20 ADD DUP1 DUP4 GT PUSH2 0x893 JUMPI DUP3 SWAP1 SUB PUSH1 0x1F AND DUP3 ADD SWAP2 JUMPDEST POP POP POP POP POP DUP2 MSTORE PUSH1 0x20 ADD PUSH1 0x3 DUP3 ADD SLOAD DUP2 MSTORE PUSH1 0x20 ADD PUSH1 0x4 DUP3 ADD SLOAD DUP2 MSTORE POP POP DUP2 MSTORE PUSH1 0x20 ADD SWAP1 PUSH1 0x1 ADD SWAP1 PUSH2 0x7A4 JUMP JUMPDEST POP POP POP POP SWAP1 POP SWAP2 SWAP1 POP JUMP JUMPDEST PUSH2 0x8EF PUSH2 0xB86 JUMP JUMPDEST PUSH1 0x1 PUSH1 0x0 CALLER PUSH20 0xFFFFFFFFFFFFFFFFFFFFFFFFFFFFFFFFFFFFFFFF AND PUSH20 0xFFFFFFFFFFFFFFFFFFFFFFFFFFFFFFFFFFFFFFFF AND DUP2 MSTORE PUSH1 0x20 ADD SWAP1 DUP2 MSTORE PUSH1 0x20 ADD PUSH1 0x0 KECCAK256 DUP3 DUP2 SLOAD DUP2 LT PUSH2 0x940 JUMPI PUSH2 0x93F PUSH2 0x168F JUMP JUMPDEST JUMPDEST SWAP1 PUSH1 0x0 MSTORE PUSH1 0x20 PUSH1 0x0 KECCAK256 SWAP1 PUSH1 0x5 MUL ADD PUSH1 0x40 MLOAD DUP1 PUSH1 0xA0 ADD PUSH1 0x40 MSTORE SWAP1 DUP2 PUSH1 0x0 DUP3 ADD SLOAD DUP2 MSTORE PUSH1 0x20 ADD PUSH1 0x1 DUP3 ADD PUSH1 0x0 SWAP1 SLOAD SWAP1 PUSH2 0x100 EXP SWAP1 DIV PUSH20 0xFFFFFFFFFFFFFFFFFFFFFFFFFFFFFFFFFFFFFFFF AND PUSH20 0xFFFFFFFFFFFFFFFFFFFFFFFFFFFFFFFFFFFFFFFF AND PUSH20 0xFFFFFFFFFFFFFFFFFFFFFFFFFFFFFFFFFFFFFFFF AND DUP2 MSTORE PUSH1 0x20 ADD PUSH1 0x2 DUP3 ADD DUP1 SLOAD PUSH2 0x9C9 SWAP1 PUSH2 0x1308 JUMP JUMPDEST DUP1 PUSH1 0x1F ADD PUSH1 0x20 DUP1 SWAP2 DIV MUL PUSH1 0x20 ADD PUSH1 0x40 MLOAD SWAP1 DUP2 ADD PUSH1 0x40 MSTORE DUP1 SWAP3 SWAP2 SWAP1 DUP2 DUP2 MSTORE PUSH1 0x20 ADD DUP3 DUP1 SLOAD PUSH2 0x9F5 SWAP1 PUSH2 0x1308 JUMP JUMPDEST DUP1 ISZERO PUSH2 0xA42 JUMPI DUP1 PUSH1 0x1F LT PUSH2 0xA17 JUMPI PUSH2 0x100 DUP1 DUP4 SLOAD DIV MUL DUP4 MSTORE SWAP2 PUSH1 0x20 ADD SWAP2 PUSH2 0xA42 JUMP JUMPDEST DUP3 ADD SWAP2 SWAP1 PUSH1 0x0 MSTORE PUSH1 0x20 PUSH1 0x0 KECCAK256 SWAP1 JUMPDEST DUP2 SLOAD DUP2 MSTORE SWAP1 PUSH1 0x1 ADD SWAP1 PUSH1 0x20 ADD DUP1 DUP4 GT PUSH2 0xA25 JUMPI DUP3 SWAP1 SUB PUSH1 0x1F AND DUP3 ADD SWAP2 JUMPDEST POP POP POP POP POP DUP2 MSTORE PUSH1 0x20 ADD PUSH1 0x3 DUP3 ADD SLOAD DUP2 MSTORE PUSH1 0x20 ADD PUSH1 0x4 DUP3 ADD SLOAD DUP2 MSTORE POP POP SWAP1 POP SWAP2 SWAP1 POP JUMP JUMPDEST DUP2 PUSH1 0x1 PUSH1 0x0 DUP4 PUSH20 0xFFFFFFFFFFFFFFFFFFFFFFFFFFFFFFFFFFFFFFFF AND PUSH20 0xFFFFFFFFFFFFFFFFFFFFFFFFFFFFFFFFFFFFFFFF AND DUP2 MSTORE PUSH1 0x20 ADD SWAP1 DUP2 MSTORE PUSH1 0x20 ADD PUSH1 0x0 KECCAK256 DUP4 DUP2 SLOAD DUP2 LT PUSH2 0xAB8 JUMPI PUSH2 0xAB7 PUSH2 0x168F JUMP JUMPDEST JUMPDEST SWAP1 PUSH1 0x0 MSTORE PUSH1 0x20 PUSH1 0x0 KECCAK256 SWAP1 PUSH1 0x5 MUL ADD PUSH1 0x0 ADD SLOAD EQ PUSH2 0xB0A JUMPI PUSH1 0x40 MLOAD PUSH32 0x8C379A000000000000000000000000000000000000000000000000000000000 DUP2 MSTORE PUSH1 0x4 ADD PUSH2 0xB01 SWAP1 PUSH2 0x170A JUMP JUMPDEST PUSH1 0x40 MLOAD DUP1 SWAP2 SUB SWAP1 REVERT JUMPDEST PUSH1 0x1 PUSH1 0x0 DUP3 PUSH20 0xFFFFFFFFFFFFFFFFFFFFFFFFFFFFFFFFFFFFFFFF AND PUSH20 0xFFFFFFFFFFFFFFFFFFFFFFFFFFFFFFFFFFFFFFFF AND DUP2 MSTORE PUSH1 0x20 ADD SWAP1 DUP2 MSTORE PUSH1 0x20 ADD PUSH1 0x0 KECCAK256 DUP3 DUP2 SLOAD DUP2 LT PUSH2 0xB5B JUMPI PUSH2 0xB5A PUSH2 0x168F JUMP JUMPDEST JUMPDEST SWAP1 PUSH1 0x0 MSTORE PUSH1 0x20 PUSH1 0x0 KECCAK256 SWAP1 PUSH1 0x5 MUL ADD PUSH1 0x4 ADD PUSH1 0x0 DUP2 SLOAD DUP1 SWAP3 SWAP2 SWAP1 PUSH2 0xB7D SWAP1 PUSH2 0x17EE JUMP JUMPDEST SWAP2 SWAP1 POP SSTORE POP POP POP JUMP JUMPDEST PUSH1 0x40 MLOAD DUP1 PUSH1 0xA0 ADD PUSH1 0x40 MSTORE DUP1 PUSH1 0x0 DUP2 MSTORE PUSH1 0x20 ADD PUSH1 0x0 PUSH20 0xFFFFFFFFFFFFFFFFFFFFFFFFFFFFFFFFFFFFFFFF AND DUP2 MSTORE PUSH1 0x20 ADD PUSH1 0x60 DUP2 MSTORE PUSH1 0x20 ADD PUSH1 0x0 DUP2 MSTORE PUSH1 0x20 ADD PUSH1 0x0 DUP2 MSTORE POP SWAP1 JUMP JUMPDEST PUSH1 0x0 PUSH1 0x40 MLOAD SWAP1 POP SWAP1 JUMP JUMPDEST PUSH1 0x0 DUP1 REVERT JUMPDEST PUSH1 0x0 DUP1 REVERT JUMPDEST PUSH1 0x0 PUSH20 0xFFFFFFFFFFFFFFFFFFFFFFFFFFFFFFFFFFFFFFFF DUP3 AND SWAP1 POP SWAP2 SWAP1 POP JUMP JUMPDEST PUSH1 0x0 PUSH2 0xC0A DUP3 PUSH2 0xBDF JUMP JUMPDEST SWAP1 POP SWAP2 SWAP1 POP JUMP JUMPDEST PUSH2 0xC1A DUP2 PUSH2 0xBFF JUMP JUMPDEST DUP2 EQ PUSH2 0xC25 JUMPI PUSH1 0x0 DUP1 REVERT JUMPDEST POP JUMP JUMPDEST PUSH1 0x0 DUP2 CALLDATALOAD SWAP1 POP PUSH2 0xC37 DUP2 PUSH2 0xC11 JUMP JUMPDEST SWAP3 SWAP2 POP POP JUMP JUMPDEST PUSH1 0x0 DUP2 SWAP1 POP SWAP2 SWAP1 POP JUMP JUMPDEST PUSH2 0xC50 DUP2 PUSH2 0xC3D JUMP JUMPDEST DUP2 EQ PUSH2 0xC5B JUMPI PUSH1 0x0 DUP1 REVERT JUMPDEST POP JUMP JUMPDEST PUSH1 0x0 DUP2 CALLDATALOAD SWAP1 POP PUSH2 0xC6D DUP2 PUSH2 0xC47 JUMP JUMPDEST SWAP3 SWAP2 POP POP JUMP JUMPDEST PUSH1 0x0 DUP1 PUSH1 0x40 DUP4 DUP6 SUB SLT ISZERO PUSH2 0xC8A JUMPI PUSH2 0xC89 PUSH2 0xBD5 JUMP JUMPDEST JUMPDEST PUSH1 0x0 PUSH2 0xC98 DUP6 DUP3 DUP7 ADD PUSH2 0xC28 JUMP JUMPDEST SWAP3 POP POP PUSH1 0x20 PUSH2 0xCA9 DUP6 DUP3 DUP7 ADD PUSH2 0xC5E JUMP JUMPDEST SWAP2 POP POP SWAP3 POP SWAP3 SWAP1 POP JUMP JUMPDEST PUSH2 0xCBC DUP2 PUSH2 0xC3D JUMP JUMPDEST DUP3 MSTORE POP POP JUMP JUMPDEST PUSH2 0xCCB DUP2 PUSH2 0xBFF JUMP JUMPDEST DUP3 MSTORE POP POP JUMP JUMPDEST PUSH1 0x0 DUP2 MLOAD SWAP1 POP SWAP2 SWAP1 POP JUMP JUMPDEST PUSH1 0x0 DUP3 DUP3 MSTORE PUSH1 0x20 DUP3 ADD SWAP1 POP SWAP3 SWAP2 POP POP JUMP JUMPDEST PUSH1 0x0 JUMPDEST DUP4 DUP2 LT ISZERO PUSH2 0xD0B JUMPI DUP1 DUP3 ADD MLOAD DUP2 DUP5 ADD MSTORE PUSH1 0x20 DUP2 ADD SWAP1 POP PUSH2 0xCF0 JUMP JUMPDEST PUSH1 0x0 DUP5 DUP5 ADD MSTORE POP POP POP POP JUMP JUMPDEST PUSH1 0x0 PUSH1 0x1F NOT PUSH1 0x1F DUP4 ADD AND SWAP1 POP SWAP2 SWAP1 POP JUMP JUMPDEST PUSH1 0x0 PUSH2 0xD33 DUP3 PUSH2 0xCD1 JUMP JUMPDEST PUSH2 0xD3D DUP2 DUP6 PUSH2 0xCDC JUMP JUMPDEST SWAP4 POP PUSH2 0xD4D DUP2 DUP6 PUSH1 0x20 DUP7 ADD PUSH2 0xCED JUMP JUMPDEST PUSH2 0xD56 DUP2 PUSH2 0xD17 JUMP JUMPDEST DUP5 ADD SWAP2 POP POP SWAP3 SWAP2 POP POP JUMP JUMPDEST PUSH1 0x0 PUSH1 0xA0 DUP3 ADD SWAP1 POP PUSH2 0xD76 PUSH1 0x0 DUP4 ADD DUP9 PUSH2 0xCB3 JUMP JUMPDEST PUSH2 0xD83 PUSH1 0x20 DUP4 ADD DUP8 PUSH2 0xCC2 JUMP JUMPDEST DUP2 DUP2 SUB PUSH1 0x40 DUP4 ADD MSTORE PUSH2 0xD95 DUP2 DUP7 PUSH2 0xD28 JUMP JUMPDEST SWAP1 POP PUSH2 0xDA4 PUSH1 0x60 DUP4 ADD DUP6 PUSH2 0xCB3 JUMP JUMPDEST PUSH2 0xDB1 PUSH1 0x80 DUP4 ADD DUP5 PUSH2 0xCB3 JUMP JUMPDEST SWAP7 SWAP6 POP POP POP POP POP POP JUMP JUMPDEST PUSH1 0x0 PUSH2 0xFFFF DUP3 AND SWAP1 POP SWAP2 SWAP1 POP JUMP JUMPDEST PUSH2 0xDD2 DUP2 PUSH2 0xDBB JUMP JUMPDEST DUP2 EQ PUSH2 0xDDD JUMPI PUSH1 0x0 DUP1 REVERT JUMPDEST POP JUMP JUMPDEST PUSH1 0x0 DUP2 CALLDATALOAD SWAP1 POP PUSH2 0xDEF DUP2 PUSH2 0xDC9 JUMP JUMPDEST SWAP3 SWAP2 POP POP JUMP JUMPDEST PUSH1 0x0 PUSH1 0x20 DUP3 DUP5 SUB SLT ISZERO PUSH2 0xE0B JUMPI PUSH2 0xE0A PUSH2 0xBD5 JUMP JUMPDEST JUMPDEST PUSH1 0x0 PUSH2 0xE19 DUP5 DUP3 DUP6 ADD PUSH2 0xDE0 JUMP JUMPDEST SWAP2 POP POP SWAP3 SWAP2 POP POP JUMP JUMPDEST PUSH2 0xE2B DUP2 PUSH2 0xDBB JUMP JUMPDEST DUP3 MSTORE POP POP JUMP JUMPDEST PUSH1 0x0 PUSH1 0x20 DUP3 ADD SWAP1 POP PUSH2 0xE46 PUSH1 0x0 DUP4 ADD DUP5 PUSH2 0xE22 JUMP JUMPDEST SWAP3 SWAP2 POP POP JUMP JUMPDEST PUSH1 0x0 DUP1 REVERT JUMPDEST PUSH1 0x0 DUP1 REVERT JUMPDEST PUSH32 0x4E487B7100000000000000000000000000000000000000000000000000000000 PUSH1 0x0 MSTORE PUSH1 0x41 PUSH1 0x4 MSTORE PUSH1 0x24 PUSH1 0x0 REVERT JUMPDEST PUSH2 0xE8E DUP3 PUSH2 0xD17 JUMP JUMPDEST DUP2 ADD DUP2 DUP2 LT PUSH8 0xFFFFFFFFFFFFFFFF DUP3 GT OR ISZERO PUSH2 0xEAD JUMPI PUSH2 0xEAC PUSH2 0xE56 JUMP JUMPDEST JUMPDEST DUP1 PUSH1 0x40 MSTORE POP POP POP JUMP JUMPDEST PUSH1 0x0 PUSH2 0xEC0 PUSH2 0xBCB JUMP JUMPDEST SWAP1 POP PUSH2 0xECC DUP3 DUP3 PUSH2 0xE85 JUMP JUMPDEST SWAP2 SWAP1 POP JUMP JUMPDEST PUSH1 0x0 PUSH8 0xFFFFFFFFFFFFFFFF DUP3 GT ISZERO PUSH2 0xEEC JUMPI PUSH2 0xEEB PUSH2 0xE56 JUMP JUMPDEST JUMPDEST PUSH2 0xEF5 DUP3 PUSH2 0xD17 JUMP JUMPDEST SWAP1 POP PUSH1 0x20 DUP2 ADD SWAP1 POP SWAP2 SWAP1 POP JUMP JUMPDEST DUP3 DUP2 DUP4 CALLDATACOPY PUSH1 0x0 DUP4 DUP4 ADD MSTORE POP POP POP JUMP JUMPDEST PUSH1 0x0 PUSH2 0xF24 PUSH2 0xF1F DUP5 PUSH2 0xED1 JUMP JUMPDEST PUSH2 0xEB6 JUMP JUMPDEST SWAP1 POP DUP3 DUP2 MSTORE PUSH1 0x20 DUP2 ADD DUP5 DUP5 DUP5 ADD GT ISZERO PUSH2 0xF40 JUMPI PUSH2 0xF3F PUSH2 0xE51 JUMP JUMPDEST JUMPDEST PUSH2 0xF4B DUP5 DUP3 DUP6 PUSH2 0xF02 JUMP JUMPDEST POP SWAP4 SWAP3 POP POP POP JUMP JUMPDEST PUSH1 0x0 DUP3 PUSH1 0x1F DUP4 ADD SLT PUSH2 0xF68 JUMPI PUSH2 0xF67 PUSH2 0xE4C JUMP JUMPDEST JUMPDEST DUP2 CALLDATALOAD PUSH2 0xF78 DUP5 DUP3 PUSH1 0x20 DUP7 ADD PUSH2 0xF11 JUMP JUMPDEST SWAP2 POP POP SWAP3 SWAP2 POP POP JUMP JUMPDEST PUSH1 0x0 PUSH1 0x20 DUP3 DUP5 SUB SLT ISZERO PUSH2 0xF97 JUMPI PUSH2 0xF96 PUSH2 0xBD5 JUMP JUMPDEST JUMPDEST PUSH1 0x0 DUP3 ADD CALLDATALOAD PUSH8 0xFFFFFFFFFFFFFFFF DUP2 GT ISZERO PUSH2 0xFB5 JUMPI PUSH2 0xFB4 PUSH2 0xBDA JUMP JUMPDEST JUMPDEST PUSH2 0xFC1 DUP5 DUP3 DUP6 ADD PUSH2 0xF53 JUMP JUMPDEST SWAP2 POP POP SWAP3 SWAP2 POP POP JUMP JUMPDEST PUSH1 0x0 PUSH1 0x20 DUP3 ADD SWAP1 POP PUSH2 0xFDF PUSH1 0x0 DUP4 ADD DUP5 PUSH2 0xCC2 JUMP JUMPDEST SWAP3 SWAP2 POP POP JUMP JUMPDEST PUSH1 0x0 DUP1 PUSH1 0x40 DUP4 DUP6 SUB SLT ISZERO PUSH2 0xFFC JUMPI PUSH2 0xFFB PUSH2 0xBD5 JUMP JUMPDEST JUMPDEST PUSH1 0x0 PUSH2 0x100A DUP6 DUP3 DUP7 ADD PUSH2 0xC5E JUMP JUMPDEST SWAP3 POP POP PUSH1 0x20 PUSH2 0x101B DUP6 DUP3 DUP7 ADD PUSH2 0xC28 JUMP JUMPDEST SWAP2 POP POP SWAP3 POP SWAP3 SWAP1 POP JUMP JUMPDEST PUSH1 0x0 PUSH1 0x20 DUP3 DUP5 SUB SLT ISZERO PUSH2 0x103B JUMPI PUSH2 0x103A PUSH2 0xBD5 JUMP JUMPDEST JUMPDEST PUSH1 0x0 PUSH2 0x1049 DUP5 DUP3 DUP6 ADD PUSH2 0xC28 JUMP JUMPDEST SWAP2 POP POP SWAP3 SWAP2 POP POP JUMP JUMPDEST PUSH1 0x0 DUP2 MLOAD SWAP1 POP SWAP2 SWAP1 POP JUMP JUMPDEST PUSH1 0x0 DUP3 DUP3 MSTORE PUSH1 0x20 DUP3 ADD SWAP1 POP SWAP3 SWAP2 POP POP JUMP JUMPDEST PUSH1 0x0 DUP2 SWAP1 POP PUSH1 0x20 DUP3 ADD SWAP1 POP SWAP2 SWAP1 POP JUMP JUMPDEST PUSH2 0x1087 DUP2 PUSH2 0xC3D JUMP JUMPDEST DUP3 MSTORE POP POP JUMP JUMPDEST PUSH2 0x1096 DUP2 PUSH2 0xBFF JUMP JUMPDEST DUP3 MSTORE POP POP JUMP JUMPDEST PUSH1 0x0 DUP3 DUP3 MSTORE PUSH1 0x20 DUP3 ADD SWAP1 POP SWAP3 SWAP2 POP POP JUMP JUMPDEST PUSH1 0x0 PUSH2 0x10B8 DUP3 PUSH2 0xCD1 JUMP JUMPDEST PUSH2 0x10C2 DUP2 DUP6 PUSH2 0x109C JUMP JUMPDEST SWAP4 POP PUSH2 0x10D2 DUP2 DUP6 PUSH1 0x20 DUP7 ADD PUSH2 0xCED JUMP JUMPDEST PUSH2 0x10DB DUP2 PUSH2 0xD17 JUMP JUMPDEST DUP5 ADD SWAP2 POP POP SWAP3 SWAP2 POP POP JUMP JUMPDEST PUSH1 0x0 PUSH1 0xA0 DUP4 ADD PUSH1 0x0 DUP4 ADD MLOAD PUSH2 0x10FE PUSH1 0x0 DUP7 ADD DUP3 PUSH2 0x107E JUMP JUMPDEST POP PUSH1 0x20 DUP4 ADD MLOAD PUSH2 0x1111 PUSH1 0x20 DUP7 ADD DUP3 PUSH2 0x108D JUMP JUMPDEST POP PUSH1 0x40 DUP4 ADD MLOAD DUP5 DUP3 SUB PUSH1 0x40 DUP7 ADD MSTORE PUSH2 0x1129 DUP3 DUP3 PUSH2 0x10AD JUMP JUMPDEST SWAP2 POP POP PUSH1 0x60 DUP4 ADD MLOAD PUSH2 0x113E PUSH1 0x60 DUP7 ADD DUP3 PUSH2 0x107E JUMP JUMPDEST POP PUSH1 0x80 DUP4 ADD MLOAD PUSH2 0x1151 PUSH1 0x80 DUP7 ADD DUP3 PUSH2 0x107E JUMP JUMPDEST POP DUP1 SWAP2 POP POP SWAP3 SWAP2 POP POP JUMP JUMPDEST PUSH1 0x0 PUSH2 0x1168 DUP4 DUP4 PUSH2 0x10E6 JUMP JUMPDEST SWAP1 POP SWAP3 SWAP2 POP POP JUMP JUMPDEST PUSH1 0x0 PUSH1 0x20 DUP3 ADD SWAP1 POP SWAP2 SWAP1 POP JUMP JUMPDEST PUSH1 0x0 PUSH2 0x1188 DUP3 PUSH2 0x1052 JUMP JUMPDEST PUSH2 0x1192 DUP2 DUP6 PUSH2 0x105D JUMP JUMPDEST SWAP4 POP DUP4 PUSH1 0x20 DUP3 MUL DUP6 ADD PUSH2 0x11A4 DUP6 PUSH2 0x106E JUMP JUMPDEST DUP1 PUSH1 0x0 JUMPDEST DUP6 DUP2 LT ISZERO PUSH2 0x11E0 JUMPI DUP5 DUP5 SUB DUP10 MSTORE DUP2 MLOAD PUSH2 0x11C1 DUP6 DUP3 PUSH2 0x115C JUMP JUMPDEST SWAP5 POP PUSH2 0x11CC DUP4 PUSH2 0x1170 JUMP JUMPDEST SWAP3 POP PUSH1 0x20 DUP11 ADD SWAP10 POP POP PUSH1 0x1 DUP2 ADD SWAP1 POP PUSH2 0x11A8 JUMP JUMPDEST POP DUP3 SWAP8 POP DUP8 SWAP6 POP POP POP POP POP POP SWAP3 SWAP2 POP POP JUMP JUMPDEST PUSH1 0x0 PUSH1 0x20 DUP3 ADD SWAP1 POP DUP2 DUP2 SUB PUSH1 0x0 DUP4 ADD MSTORE PUSH2 0x120C DUP2 DUP5 PUSH2 0x117D JUMP JUMPDEST SWAP1 POP SWAP3 SWAP2 POP POP JUMP JUMPDEST PUSH1 0x0 PUSH1 0x20 DUP3 DUP5 SUB SLT ISZERO PUSH2 0x122A JUMPI PUSH2 0x1229 PUSH2 0xBD5 JUMP JUMPDEST JUMPDEST PUSH1 0x0 PUSH2 0x1238 DUP5 DUP3 DUP6 ADD PUSH2 0xC5E JUMP JUMPDEST SWAP2 POP POP SWAP3 SWAP2 POP POP JUMP JUMPDEST PUSH1 0x0 PUSH1 0xA0 DUP4 ADD PUSH1 0x0 DUP4 ADD MLOAD PUSH2 0x1259 PUSH1 0x0 DUP7 ADD DUP3 PUSH2 0x107E JUMP JUMPDEST POP PUSH1 0x20 DUP4 ADD MLOAD PUSH2 0x126C PUSH1 0x20 DUP7 ADD DUP3 PUSH2 0x108D JUMP JUMPDEST POP PUSH1 0x40 DUP4 ADD MLOAD DUP5 DUP3 SUB PUSH1 0x40 DUP7 ADD MSTORE PUSH2 0x1284 DUP3 DUP3 PUSH2 0x10AD JUMP JUMPDEST SWAP2 POP POP PUSH1 0x60 DUP4 ADD MLOAD PUSH2 0x1299 PUSH1 0x60 DUP7 ADD DUP3 PUSH2 0x107E JUMP JUMPDEST POP PUSH1 0x80 DUP4 ADD MLOAD PUSH2 0x12AC PUSH1 0x80 DUP7 ADD DUP3 PUSH2 0x107E JUMP JUMPDEST POP DUP1 SWAP2 POP POP SWAP3 SWAP2 POP POP JUMP JUMPDEST PUSH1 0x0 PUSH1 0x20 DUP3 ADD SWAP1 POP DUP2 DUP2 SUB PUSH1 0x0 DUP4 ADD MSTORE PUSH2 0x12D1 DUP2 DUP5 PUSH2 0x1241 JUMP JUMPDEST SWAP1 POP SWAP3 SWAP2 POP POP JUMP JUMPDEST PUSH32 0x4E487B7100000000000000000000000000000000000000000000000000000000 PUSH1 0x0 MSTORE PUSH1 0x22 PUSH1 0x4 MSTORE PUSH1 0x24 PUSH1 0x0 REVERT JUMPDEST PUSH1 0x0 PUSH1 0x2 DUP3 DIV SWAP1 POP PUSH1 0x1 DUP3 AND DUP1 PUSH2 0x1320 JUMPI PUSH1 0x7F DUP3 AND SWAP2 POP JUMPDEST PUSH1 0x20 DUP3 LT DUP2 SUB PUSH2 0x1333 JUMPI PUSH2 0x1332 PUSH2 0x12D9 JUMP JUMPDEST JUMPDEST POP SWAP2 SWAP1 POP JUMP JUMPDEST PUSH32 0x594F5520415245204E4F5420544845204F574E45520000000000000000000000 PUSH1 0x0 DUP3 ADD MSTORE POP JUMP JUMPDEST PUSH1 0x0 PUSH2 0x136F PUSH1 0x15 DUP4 PUSH2 0xCDC JUMP JUMPDEST SWAP2 POP PUSH2 0x137A DUP3 PUSH2 0x1339 JUMP JUMPDEST PUSH1 0x20 DUP3 ADD SWAP1 POP SWAP2 SWAP1 POP JUMP JUMPDEST PUSH1 0x0 PUSH1 0x20 DUP3 ADD SWAP1 POP DUP2 DUP2 SUB PUSH1 0x0 DUP4 ADD MSTORE PUSH2 0x139E DUP2 PUSH2 0x1362 JUMP JUMPDEST SWAP1 POP SWAP2 SWAP1 POP JUMP JUMPDEST PUSH32 0x547765657420697320746F6F206C6F6E67210000000000000000000000000000 PUSH1 0x0 DUP3 ADD MSTORE POP JUMP JUMPDEST PUSH1 0x0 PUSH2 0x13DB PUSH1 0x12 DUP4 PUSH2 0xCDC JUMP JUMPDEST SWAP2 POP PUSH2 0x13E6 DUP3 PUSH2 0x13A5 JUMP JUMPDEST PUSH1 0x20 DUP3 ADD SWAP1 POP SWAP2 SWAP1 POP JUMP JUMPDEST PUSH1 0x0 PUSH1 0x20 DUP3 ADD SWAP1 POP DUP2 DUP2 SUB PUSH1 0x0 DUP4 ADD MSTORE PUSH2 0x140A DUP2 PUSH2 0x13CE JUMP JUMPDEST SWAP1 POP SWAP2 SWAP1 POP JUMP JUMPDEST PUSH1 0x0 DUP2 SWAP1 POP DUP2 PUSH1 0x0 MSTORE PUSH1 0x20 PUSH1 0x0 KECCAK256 SWAP1 POP SWAP2 SWAP1 POP JUMP JUMPDEST PUSH1 0x0 PUSH1 0x20 PUSH1 0x1F DUP4 ADD DIV SWAP1 POP SWAP2 SWAP1 POP JUMP JUMPDEST PUSH1 0x0 DUP3 DUP3 SHL SWAP1 POP SWAP3 SWAP2 POP POP JUMP JUMPDEST PUSH1 0x0 PUSH1 0x8 DUP4 MUL PUSH2 0x1473 PUSH32 0xFFFFFFFFFFFFFFFFFFFFFFFFFFFFFFFFFFFFFFFFFFFFFFFFFFFFFFFFFFFFFFFF DUP3 PUSH2 0x1436 JUMP JUMPDEST PUSH2 0x147D DUP7 DUP4 PUSH2 0x1436 JUMP JUMPDEST SWAP6 POP DUP1 NOT DUP5 AND SWAP4 POP DUP1 DUP7 AND DUP5 OR SWAP3 POP POP POP SWAP4 SWAP3 POP POP POP JUMP JUMPDEST PUSH1 0x0 DUP2 SWAP1 POP SWAP2 SWAP1 POP JUMP JUMPDEST PUSH1 0x0 PUSH2 0x14BA PUSH2 0x14B5 PUSH2 0x14B0 DUP5 PUSH2 0xC3D JUMP JUMPDEST PUSH2 0x1495 JUMP JUMPDEST PUSH2 0xC3D JUMP JUMPDEST SWAP1 POP SWAP2 SWAP1 POP JUMP JUMPDEST PUSH1 0x0 DUP2 SWAP1 POP SWAP2 SWAP1 POP JUMP JUMPDEST PUSH2 0x14D4 DUP4 PUSH2 0x149F JUMP JUMPDEST PUSH2 0x14E8 PUSH2 0x14E0 DUP3 PUSH2 0x14C1 JUMP JUMPDEST DUP5 DUP5 SLOAD PUSH2 0x1443 JUMP JUMPDEST DUP3 SSTORE POP POP POP POP JUMP JUMPDEST PUSH1 0x0 SWAP1 JUMP JUMPDEST PUSH2 0x14FD PUSH2 0x14F0 JUMP JUMPDEST PUSH2 0x1508 DUP2 DUP5 DUP5 PUSH2 0x14CB JUMP JUMPDEST POP POP POP JUMP JUMPDEST JUMPDEST DUP2 DUP2 LT ISZERO PUSH2 0x152C JUMPI PUSH2 0x1521 PUSH1 0x0 DUP3 PUSH2 0x14F5 JUMP JUMPDEST PUSH1 0x1 DUP2 ADD SWAP1 POP PUSH2 0x150E JUMP JUMPDEST POP POP JUMP JUMPDEST PUSH1 0x1F DUP3 GT ISZERO PUSH2 0x1571 JUMPI PUSH2 0x1542 DUP2 PUSH2 0x1411 JUMP JUMPDEST PUSH2 0x154B DUP5 PUSH2 0x1426 JUMP JUMPDEST DUP2 ADD PUSH1 0x20 DUP6 LT ISZERO PUSH2 0x155A JUMPI DUP2 SWAP1 POP JUMPDEST PUSH2 0x156E PUSH2 0x1566 DUP6 PUSH2 0x1426 JUMP JUMPDEST DUP4 ADD DUP3 PUSH2 0x150D JUMP JUMPDEST POP POP JUMPDEST POP POP POP JUMP JUMPDEST PUSH1 0x0 DUP3 DUP3 SHR SWAP1 POP SWAP3 SWAP2 POP POP JUMP JUMPDEST PUSH1 0x0 PUSH2 0x1594 PUSH1 0x0 NOT DUP5 PUSH1 0x8 MUL PUSH2 0x1576 JUMP JUMPDEST NOT DUP1 DUP4 AND SWAP2 POP POP SWAP3 SWAP2 POP POP JUMP JUMPDEST PUSH1 0x0 PUSH2 0x15AD DUP4 DUP4 PUSH2 0x1583 JUMP JUMPDEST SWAP2 POP DUP3 PUSH1 0x2 MUL DUP3 OR SWAP1 POP SWAP3 SWAP2 POP POP JUMP JUMPDEST PUSH2 0x15C6 DUP3 PUSH2 0xCD1 JUMP JUMPDEST PUSH8 0xFFFFFFFFFFFFFFFF DUP2 GT ISZERO PUSH2 0x15DF JUMPI PUSH2 0x15DE PUSH2 0xE56 JUMP JUMPDEST JUMPDEST PUSH2 0x15E9 DUP3 SLOAD PUSH2 0x1308 JUMP JUMPDEST PUSH2 0x15F4 DUP3 DUP3 DUP6 PUSH2 0x1530 JUMP JUMPDEST PUSH1 0x0 PUSH1 0x20 SWAP1 POP PUSH1 0x1F DUP4 GT PUSH1 0x1 DUP2 EQ PUSH2 0x1627 JUMPI PUSH1 0x0 DUP5 ISZERO PUSH2 0x1615 JUMPI DUP3 DUP8 ADD MLOAD SWAP1 POP JUMPDEST PUSH2 0x161F DUP6 DUP3 PUSH2 0x15A1 JUMP JUMPDEST DUP7 SSTORE POP PUSH2 0x1687 JUMP JUMPDEST PUSH1 0x1F NOT DUP5 AND PUSH2 0x1635 DUP7 PUSH2 0x1411 JUMP JUMPDEST PUSH1 0x0 JUMPDEST DUP3 DUP2 LT ISZERO PUSH2 0x165D JUMPI DUP5 DUP10 ADD MLOAD DUP3 SSTORE PUSH1 0x1 DUP3 ADD SWAP2 POP PUSH1 0x20 DUP6 ADD SWAP5 POP PUSH1 0x20 DUP2 ADD SWAP1 POP PUSH2 0x1638 JUMP JUMPDEST DUP7 DUP4 LT ISZERO PUSH2 0x167A JUMPI DUP5 DUP10 ADD MLOAD PUSH2 0x1676 PUSH1 0x1F DUP10 AND DUP3 PUSH2 0x1583 JUMP JUMPDEST DUP4 SSTORE POP JUMPDEST PUSH1 0x1 PUSH1 0x2 DUP9 MUL ADD DUP9 SSTORE POP POP POP JUMPDEST POP POP POP POP POP POP JUMP JUMPDEST PUSH32 0x4E487B7100000000000000000000000000000000000000000000000000000000 PUSH1 0x0 MSTORE PUSH1 0x32 PUSH1 0x4 MSTORE PUSH1 0x24 PUSH1 0x0 REVERT JUMPDEST PUSH32 0x545745455420444F4553204E4F54204558495354000000000000000000000000 PUSH1 0x0 DUP3 ADD MSTORE POP JUMP JUMPDEST PUSH1 0x0 PUSH2 0x16F4 PUSH1 0x14 DUP4 PUSH2 0xCDC JUMP JUMPDEST SWAP2 POP PUSH2 0x16FF DUP3 PUSH2 0x16BE JUMP JUMPDEST PUSH1 0x20 DUP3 ADD SWAP1 POP SWAP2 SWAP1 POP JUMP JUMPDEST PUSH1 0x0 PUSH1 0x20 DUP3 ADD SWAP1 POP DUP2 DUP2 SUB PUSH1 0x0 DUP4 ADD MSTORE PUSH2 0x1723 DUP2 PUSH2 0x16E7 JUMP JUMPDEST SWAP1 POP SWAP2 SWAP1 POP JUMP JUMPDEST PUSH32 0x545745455420484153204E4F204C494B45530000000000000000000000000000 PUSH1 0x0 DUP3 ADD MSTORE POP JUMP JUMPDEST PUSH1 0x0 PUSH2 0x1760 PUSH1 0x12 DUP4 PUSH2 0xCDC JUMP JUMPDEST SWAP2 POP PUSH2 0x176B DUP3 PUSH2 0x172A JUMP JUMPDEST PUSH1 0x20 DUP3 ADD SWAP1 POP SWAP2 SWAP1 POP JUMP JUMPDEST PUSH1 0x0 PUSH1 0x20 DUP3 ADD SWAP1 POP DUP2 DUP2 SUB PUSH1 0x0 DUP4 ADD MSTORE PUSH2 0x178F DUP2 PUSH2 0x1753 JUMP JUMPDEST SWAP1 POP SWAP2 SWAP1 POP JUMP JUMPDEST PUSH32 0x4E487B7100000000000000000000000000000000000000000000000000000000 PUSH1 0x0 MSTORE PUSH1 0x11 PUSH1 0x4 MSTORE PUSH1 0x24 PUSH1 0x0 REVERT JUMPDEST PUSH1 0x0 PUSH2 0x17D0 DUP3 PUSH2 0xC3D JUMP JUMPDEST SWAP2 POP PUSH1 0x0 DUP3 SUB PUSH2 0x17E3 JUMPI PUSH2 0x17E2 PUSH2 0x1796 JUMP JUMPDEST JUMPDEST PUSH1 0x1 DUP3 SUB SWAP1 POP SWAP2 SWAP1 POP JUMP JUMPDEST PUSH1 0x0 PUSH2 0x17F9 DUP3 PUSH2 0xC3D JUMP JUMPDEST SWAP2 POP PUSH32 0xFFFFFFFFFFFFFFFFFFFFFFFFFFFFFFFFFFFFFFFFFFFFFFFFFFFFFFFFFFFFFFFF DUP3 SUB PUSH2 0x182B JUMPI PUSH2 0x182A PUSH2 0x1796 JUMP JUMPDEST JUMPDEST PUSH1 0x1 DUP3 ADD SWAP1 POP SWAP2 SWAP1 POP JUMP INVALID LOG2 PUSH5 0x6970667358 0x22 SLT KECCAK256 0xB6 0xC7 SWAP14 MULMOD SDIV 0x5F GASLIMIT PUSH30 0x1D8A1937E1E5641677F8BECF8E167B750695EDDBC5765DD464736F6C6343 STOP ADDMOD SLT STOP CALLER "
				},
				"gasEstimates": {
					"creation": {
						"codeDepositCost": "1250400",
						"executionCost": "49835",
						"totalCost": "1300235"
					},
					"external": {
						"MAX_TWEET_LENGTH()": "2513",
						"changeTweetLength(uint16)": "26872",
						"createTweet(string)": "infinite",
						"getAllTweet(address)": "infinite",
						"getTweet(uint256)": "infinite",
						"likeTweet(uint256,address)": "infinite",
						"owner()": "2514",
						"tweets(address,uint256)": "infinite",
						"unlikeTweet(uint256,address)": "infinite"
					}
				},
				"methodIdentifiers": {
					"MAX_TWEET_LENGTH()": "6eb10797",
					"changeTweetLength(uint16)": "58bfa4ab",
					"createTweet(string)": "7c9cd2bc",
					"getAllTweet(address)": "b64988b8",
					"getTweet(uint256)": "c3ad5ecb",
					"likeTweet(uint256,address)": "d04ddaa0",
					"owner()": "8da5cb5b",
					"tweets(address,uint256)": "05a1b4a9",
					"unlikeTweet(uint256,address)": "a1488f7c"
				}
			},
			"storageLayout": {
				"storage": [
					{
						"astId": 4,
						"contract": "Twitter.sol:Twitter",
						"label": "MAX_TWEET_LENGTH",
						"offset": 0,
						"slot": "0",
						"type": "t_uint16"
					},
					{
						"astId": 21,
						"contract": "Twitter.sol:Twitter",
						"label": "tweets",
						"offset": 0,
						"slot": "1",
						"type": "t_mapping(t_address,t_array(t_struct(Tweet)15_storage)dyn_storage)"
					},
					{
						"astId": 23,
						"contract": "Twitter.sol:Twitter",
						"label": "owner",
						"offset": 0,
						"slot": "2",
						"type": "t_address"
					}
				],
				"types": {
					"t_address": {
						"encoding": "inplace",
						"label": "address",
						"numberOfBytes": "20"
					},
					"t_array(t_struct(Tweet)15_storage)dyn_storage": {
						"base": "t_struct(Tweet)15_storage",
						"encoding": "dynamic_array",
						"label": "struct Twitter.Tweet[]",
						"numberOfBytes": "32"
					},
					"t_mapping(t_address,t_array(t_struct(Tweet)15_storage)dyn_storage)": {
						"encoding": "mapping",
						"key": "t_address",
						"label": "mapping(address => struct Twitter.Tweet[])",
						"numberOfBytes": "32",
						"value": "t_array(t_struct(Tweet)15_storage)dyn_storage"
					},
					"t_string_storage": {
						"encoding": "bytes",
						"label": "string",
						"numberOfBytes": "32"
					},
					"t_struct(Tweet)15_storage": {
						"encoding": "inplace",
						"label": "struct Twitter.Tweet",
						"members": [
							{
								"astId": 6,
								"contract": "Twitter.sol:Twitter",
								"label": "id",
								"offset": 0,
								"slot": "0",
								"type": "t_uint256"
							},
							{
								"astId": 8,
								"contract": "Twitter.sol:Twitter",
								"label": "author",
								"offset": 0,
								"slot": "1",
								"type": "t_address"
							},
							{
								"astId": 10,
								"contract": "Twitter.sol:Twitter",
								"label": "content",
								"offset": 0,
								"slot": "2",
								"type": "t_string_storage"
							},
							{
								"astId": 12,
								"contract": "Twitter.sol:Twitter",
								"label": "timestamp",
								"offset": 0,
								"slot": "3",
								"type": "t_uint256"
							},
							{
								"astId": 14,
								"contract": "Twitter.sol:Twitter",
								"label": "likes",
								"offset": 0,
								"slot": "4",
								"type": "t_uint256"
							}
						],
						"numberOfBytes": "160"
					},
					"t_uint16": {
						"encoding": "inplace",
						"label": "uint16",
						"numberOfBytes": "2"
					},
					"t_uint256": {
						"encoding": "inplace",
						"label": "uint256",
						"numberOfBytes": "32"
					}
				}
			},
			"userdoc": {
				"kind": "user",
				"methods": {},
				"version": 1
			}
		}
	}
}